:020000040800F2
:10000000000800200D0400080F0400080F04000879
:100010000F0400080F0400080F0400080F04000874
:100020000F0400080F0400080F04000871390008CD
:100030000F0400080F0400080F0400080F04000854
:100040000F0400080F0400080F0400080F04000844
:100050000F0400080F0400080F0400080F04000834
:100060000F0400080F0400080F04000831220008E4
:10007000D12200087123000811240008B1240008CF
:1000800051250008F12500080F040008111D000883
:100090000F0400080F0400080F0400080F040008F4
:1000A0000F0400080F0400080F0400080F040008E4
:1000B000912000080F0400080F0400080F04000836
:1000C0000F0400080F0400080F040008312C00087A
:1000D0000F0400080F0400080F040008411E000868
:1000E0000F0400080F0400080F0400080F040008A4
:1000F0000F0400080F0400080F04000891260008F0
:100100000F0400080F0400080F0400080F04000883
:100110000F0400080F0400080F0400080F04000873
:1001200031270008D127000871280008112900088C
:10013000B12900080F0400080F0400080F0400088C
:100140000F0400080F0400080F0400080F04000843
:10015000512A0008F12A0008912B00080F0400081A
:100160000F0400080F0400080F0400080F04000823
:100170000F0400080F0400080F0400080F04000813
:100180000F0400080F0400080F0400080F04000803
:10019000D12C00080F0400080F0400080F04000809
:1001A0000F0400080F0400080F0400080F040008E3
:1001B0000F0400080F0400080F0400080F040008D3
:1001C0000F0400080F0400080F0400080F040008C3
:1001D0000F0400080F0400080F0400080F040008B3
:1001E0000F0400080F0400080F0400080F040008A3
:1001F0000F0400080F0400080F0400080F04000893
:100200000F0400080F0400080F0400080F04000882
:100210000F0400080F0400080F0400080F04000872
:100220000F0400080F0400080F0400080F04000862
:100230000F0400080F0400080F0400080F04000852
:100240000F0400080F0400080F0400080F04000842
:100250000F0400080F0400080F0400080F04000832
:100260000F0400080F0400080F0400080F04000822
:100270000F0400080F0400080F0400080F04000812
:100280000F0400080F0400080F0400080F04000802
:100290000F0400080F0400080F0400080F040008F2
:1002A0000F0400080F0400080F0400080F040008E2
:1002B0000F0400080F0400080F0400080F040008D2
:1002C0000F0400080F0400080F0400080F040008C2
:1002D0000F0400080F0400080F0400080F040008B2
:0402E0007140000861
:1002F00072B6374880F30888364880F30988364854
:100300003649086040F20000CCF200004EF634712D
:10031000CEF200010860BFF34F8FBFF36F8F40F242
:100320000000C0F2F0004EF68851CEF200010860E5
:10033000BFF34F8FBFF36F8F4FF00000E1EE100A55
:100340004EF63C71CEF200010860062080F314885E
:10035000BFF36F8F01F01CFC01F05AFC4FF05530D9
:100360001F491B4A91423CBF41F8040BFAE71D4963
:10037000184A91423CBF41F8040BFAE71A491B4A5C
:100380001B4B9A423EBF51F8040B42F8040BF8E7AE
:1003900000201849184A91423CBF41F8040BFAE783
:1003A00001F04EFC01F03CFC144C154DAC4203DA5C
:1003B00054F8041B8847F9E703F0EAFA114C124D90
:1003C000AC4203DA54F8041B8847F9E701F030BC6B
:1003D00000080020001000200000000808ED00E0E8
:1003E0000000002000080020104600080000002443
:1003F0003000002440000024A8470024E002000848
:10040000E4020008E4020008E402000870E700F0DB
:1004100000F8FEE72DE9F04F2DED108AC1F80CD061
:10042000D0F80CD0BDEC108ABDE8F08F002383F328
:1004300011882846A047002003F06AFAFEE702F080
:1004400097FC00DFFEE70000844641EA000313F05A
:1004500003036DD1403A41D351F8043B40F8043BCB
:1004600051F8043B40F8043B51F8043B40F8043B8E
:1004700051F8043B40F8043B51F8043B40F8043B7E
:1004800051F8043B40F8043B51F8043B40F8043B6E
:1004900051F8043B40F8043B51F8043B40F8043B5E
:1004A00051F8043B40F8043B51F8043B40F8043B4E
:1004B00051F8043B40F8043B51F8043B40F8043B3E
:1004C00051F8043B40F8043B51F8043B40F8043B2E
:1004D00051F8043B40F8043B403ABDD2303211D3CE
:1004E00051F8043B40F8043B51F8043B40F8043B0E
:1004F00051F8043B40F8043B51F8043B40F8043BFE
:10050000103AEDD20C3205D351F8043B40F8043BCD
:10051000043AF9D2043208D0D2071CBF11F8013BCB
:1005200000F8013B01D30B8803806046704700BF91
:10053000082A13D38B078DD010F003038AD0C3F1A0
:100540000403D21ADB071CBF11F8013B00F8013B82
:1005500080D331F8023B20F8023B7BE7043AD9D341
:10056000013A11F8013B00F8013BF9D20B78037016
:100570004B7843708B7883706046704753B94AB9A3
:10058000002908BF00281CBF4FF0FF314FF0FF309B
:1005900000F074B9ADF1080C6DE904CE00F006F876
:1005A000DDF804E0DDE9022304B070472DE9F047EF
:1005B000089D04468E46002B4DD18A42944669D947
:1005C000B2FA82F252B101FA02F3C2F1200120FA2A
:1005D00001F10CFA02FC41EA030E94404FEA1C4878
:1005E000210CBEFBF8F61FFA8CF708FB16E341EA74
:1005F000034306FB07F199420AD91CEB030306F1FA
:10060000FF3080F01F81994240F21C81023E63441A
:100610005B1AA4B2B3FBF8F008FB103344EA0344BE
:1006200000FB07F7A7420AD91CEB040400F1FF33D3
:1006300080F00A81A74240F207816444023840EA10
:100640000640E41B00261DB1D4400023C5E9004349
:100650003146BDE8F0878B4209D9002D00F0EF80CC
:100660000026C5E9000130463146BDE8F087B3FAFF
:1006700083F6002E4AD18B4202D3824200F2F980E7
:10068000841A61EB030301209E46002DE0D0C5E9EA
:10069000004EDDE702B9FFDEB2FA82F2002A40F036
:1006A0009280A1EB0C014FEA1C471FFA8CFE012639
:1006B000200CB1FBF7F307FB131140EA01410EFBDD
:1006C00003F0884208D91CEB010103F1FF3802D284
:1006D000884200F2CB804346091AA4B2B1FBF7F07E
:1006E00007FB101144EA01440EFB00FEA64508D9A1
:1006F0001CEB040400F1FF3102D2A64500F2BB80DE
:100700000846A4EB0E0440EA03409CE7C6F120072C
:10071000B34022FA07FC4CEA030C20FA07F401FA72
:1007200006F31C43F9404FEA1C4900FA06F3B1FBFB
:10073000F9F8200C1FFA8CFE09FB181140EA014160
:1007400008FB0EF0884202FA06F20BD91CEB0101FD
:1007500008F1FF3A80F08880884240F28580A8F155
:1007600002086144091AA4B2B1FBF9F009FB1011A7
:1007700044EA014100FB0EFE8E4508D91CEB010145
:1007800000F1FF346CD28E456AD90238614440EAE8
:100790000840A0FB0294A1EB0E01A142C846A64668
:1007A00056D353D05DB1B3EB080261EB0E0101FAF1
:1007B00007F722FA06F3F1401F43C5E9007100264E
:1007C0003146BDE8F087C2F12003D8400CFA02FCA4
:1007D00021FA03F3914001434FEA1C471FFA8CFEB4
:1007E000B3FBF7F007FB10360B0C43EA064300FBA4
:1007F0000EF69E4204FA02F408D91CEB030300F142
:10080000FF382FD29E422DD9023863449B1B89B2F8
:10081000B3FBF7F607FB163341EA034106FB0EF381
:100820008B4208D91CEB010106F1FF3816D28B422E
:1008300014D9023E6144C91A46EA004638E72E46FA
:10084000284605E70646E3E61846F8E64B45A9D2F2
:10085000B9EB020864EB0C0E0138A3E74646EAE761
:10086000204694E74046D1E7D0467BE7023B61440F
:1008700032E7304609E76444023842E7704700BF78
:10088000012914BF6FF01300002070470000000022
:10089000302383F31188426801230021D2E902202A
:1008A00083409BB2538381F311887047000000009E
:1008B000302383F31188426801230021D2E902200A
:1008C00083409BB2138381F31188704700000000BE
:1008D0002DE9F04F02F00308C2F3C105C2F3411441
:1008E000D609C64600224FF00F0B4FF0010A14E064
:1008F0000368072A09EA030343EA0E03036048D8A2
:10090000036A23EA070747EA0C07076249083ED053
:10091000AD000132A4004FEA8E0ECB07F6D5436836
:100920000AFA02FC02F00707B8F1020F23EA0C03EF
:100930004FF0030C4FEA870743604FEA42030CFA7B
:1009400003F3D0F808C02CEA030C6FEA03094CEA61
:10095000050CC0F808C0D0F80CC02CEA030C4CEA17
:10096000040306FA07FC0BFA07F7C360C0D1072A95
:1009700016D8036A23EA070747EA0C0707620368E9
:10098000490809EA030343EA0E030360C0D1BDE846
:10099000F08F436A23EA070747EA0C074762B5E787
:1009A000436A23EA070747EA0C074762E7E700BF05
:1009B000024A136843F0C0031360704700480040C8
:1009C000FEE700BF00000000000000000000000083
:1009D000014B5B6883607047001000E0000000007E
:1009E0000E4A0F4B81685B6810B4946802691B1B48
:1009F000C4685B1A41690134D218026141F10001F7
:100A0000426841619342026888BF43609342C0E9F3
:100A1000023438BF03605DF8044B7047D8460024A9
:100A2000001000E0000000000000000000000000D6
:100A3000302310B483F311880C4B49425C68201AB0
:100A400008401968821A8A4208D3944206D35A6031
:100A5000002383F311885DF8044B704700200023C6
:100A600083F311885DF8044B704700BFD046002423
:100A7000064B49425A68101A08401968884203D345
:100A8000824201D35860704700207047D04600244E
:100A90004FF080424A4B0021526A10B5044642F2A0
:100AA0000F702DED028BE2FB0301002342F2107266
:100AB000B0EE408AFFF762FD94F82030002B6ED034
:100AC000636ADFED406AC31A9FED3F7A07EE903A02
:100AD000F8EE677A67EEA67AF4EEC77AF1EE10FACE
:100AE0004DDCD4ED016A94ED057A68EE266A94ED4A
:100AF000036A6062B1EE460AA6EEA77AB4EEC07A47
:100B0000F1EE10FA05D4B4EEC67AF1EE10FA36FE24
:100B1000070AF5EEC07A94ED007A84ED050AA7EE97
:100B2000080AF1EE10FA25DD94ED045AB7EE003B09
:100B3000D4ED066AB7EEC55A94ED077A78EE666A88
:100B400094ED024A9FED1C2BC6EEA74A25EE025BF0
:100B500083EE056B74EEC75AB7EEC66B36EE276AA6
:100B6000C7EE866AF0EE477AE5EEA67AA7EE840A2B
:100B7000C4ED077A84ED068ABDEC028B10BD94EDBE
:100B8000000A0023012284ED068A28EE000A606232
:100B90006361E36184F82020BDEC028B10BD94ED0D
:100BA000000A012384ED068A28EE000A606284F8B8
:100BB0002030BDEC028B10BD182D4454FB21194090
:100BC00040420F00BD378635CDCC4C3E00000000C2
:100BD00070B5314D00234FF0010C2C680CFA03F274
:100BE000224204D00133102BF8D1002070BD1443F1
:100BF0002C6005EBC305D4B2A960284968601D01CB
:100C000001EB031074B1264BD3F8D84044F0010433
:100C1000C3F8D840D3F8004144F00104C3F80041C0
:100C2000D3F8003112F47F4F0ED01D4BD3F8D820EB
:100C300042F00202C3F8D820D3F8002142F00202A9
:100C4000C3F80021D3F800314A59136823F01F0379
:100C50001360136813F00103FBD129443D2591F87B
:100C60000CE08C7B4E6805FA0EF50E494FEA541CD9
:100C7000356004F01F05136001230C44AB402125AF
:100C80005561A02284F8002301EB8C02C2F8803168
:100C900041F82C3070BD00BF0047002420440008FC
:100CA0000044025800E100E00000000000000000E5
:100CB00070B503780446012B52D0C3696068A16AFD
:100CC000056921F4F04105F01F020132082A2AD8F3
:100CD000E26A22F4F042E2620678002E30D041F45B
:100CE000847142F48472A162E262446918685549D1
:100CF00020F00100544A29401860224000204FF49F
:100D0000807442F0015241F440411C60402458601C
:100D10004FF0FF309960DA601C6198611A6842F008
:100D200001021A6070BD102A11D8E26A41F4205104
:100D3000067822F4F04242F42052E262002ECED134
:100D400021F4847122F48472A162E262CDE7E26A46
:100D500041F4A04122F4F04242F4A042E262BBE737
:100D60003A4B98420ED03A4B98423BD0626AD4E953
:100D700007311268096803F13000886003F120012F
:100D800091609BE701463348FFF722FF0346214667
:100D900031482362FFF71CFF304B2525216AD3F829
:100DA0009820606242F480528E688168C3F898206F
:100DB000D3F8982022F48052C3F89820D3F89820D2
:100DC000D3F8F02042F48052C3F8F020D3F8182171
:100DD00042F48052C3F81821D3F818312623356025
:100DE0000B60C3E701461B48FFF7F2FE03462146AE
:100DF00019482362FFF7ECFE184B5325216AD3F8FC
:100E00009820606242F400528E688168C3F898208E
:100E1000D3F8982022F40052C3F89820D3F89820F1
:100E2000D3F8F02042F40052C3F8F020D3F8182190
:100E300042F40052C3F81821D3F818315423356016
:100E40000B6093E71F3EFFFFFFFFB9DFD8000024D0
:100E500008010024910F0008E10E00080044025828
:100E60000C4A4FF08041D2F88C3002F50960496A93
:100E700010B4094C59601968646864F31F2143F881
:100E8000101B83425DF8044B28BF02F19003C2F8A7
:100E90008C307047F83B0024001000E00000000098
:100EA00008B572B60A4CB4F888301B0706D5094D50
:100EB000094B0322C4F884501A70FEE7D4F88C3032
:100EC0000522044D1A709D60FFF7CAFFF0E700BFCE
:100ED000F83B00241C420008D84600240000000013
:100EE00011F00C0F00D1704708B5FFF7D9FF00BF14
:100EF000124BB3F88820D20710B504460FD5002254
:100F0000A369A16884F824201B689A688A42FBD8E8
:100F10005A6820462360626014605C6010BD90F8DF
:100F20002420D3F88C10D300806A43F00103C1E978
:100F300002400B70FFF794FFE1E700BFF83B00248D
:100F4000114BB3F88820D20710B504460ED5002205
:100F5000A369A16884F824201B689A688A42FBD29E
:100F60005A68C4E9003214605C6010BD90F8242017
:100F7000D3F88C10D300806A43F00103C1E902402A
:100F80000B70FFF76DFFE2E7F83B00240000000064
:100F900011F00C0F70B553D1456804462B78002B27
:100FA00037D1C269416A136843F4806313600A68E9
:100FB000136823F01F0313601368D807FCD4087B61
:100FC0003D234A688340216A13600A68136823F04E
:100FD0001F0313601368DB07FCD4087B3D234968BB
:100FE0006A6883400B606AB30423204623709047ED
:100FF0002378042B26D0302383F31188A06820B1F6
:101000000023A3608362FFF79BFF002383F3118813
:1010100070BDCB060E4603D56B68002BF8D0984701
:10102000B506F5D563685B68002BF1D00422204635
:10103000227098472378042BEAD10323237070BDD4
:10104000FFF72EFF02232370302383F31188A0685B
:101050000028D5D1D9E700BF000000000000000043
:10106000F8B50468A04221D007460D46002604E0EA
:101070000B291CD02468A74218D0E3682B43E360F7
:1010800015B123691D42F5D0D4E90102836B90F8B4
:1010900024101A430A298263EAD1816A0A42E9D0FC
:1010A0008662FFF74DFF2468A742E6D1F8BD816A4A
:1010B00031EA0203DED1F3E7000000000000000087
:1010C00010B530230C4683F3118891F824300C2B93
:1010D00010D8DFE803F02D0F0F290B070F0B0F0FB0
:1010E0000F0F0B00896A8A6801328A60D4E90021F7
:1010F0000A60516016494FF0FF32B1F88800A262D1
:10110000C00719D50022A369A16884F824201B68B0
:101110009A688A42FBD25A68002123606260146098
:101120005C6081F3118810BD8A6A00211160E1E7DB
:10113000002383F3118810BDDB00D1F88C1043F03D
:101140000103C1E902420B70FFF78AFEDAE700BF34
:10115000F83B002400000000000000000000000038
:10116000F8B50468A04229D00546154F00260FE0C7
:10117000A369A16884F824601B689A688A42FBD23C
:101180005A68C4E9003214605C602C68AC4215D027
:10119000B7F88830226813F001032A605560A66210
:1011A000E6D194F82420D7F88C10D200C1E902438C
:1011B00042F001030B70FFF753FED9E7F8BD00BF03
:1011C000F83B0024000000000000000000000000C8
:1011D000164B022A30B403F11004D961826038BF83
:1011E000022244601C69046060608C1818614FF032
:1011F00080404463002404610224C460456AA5EB76
:10120000010C624503D930BC7047294615460134AC
:1012100021444163426A511BA142F6D2022CF2D909
:101220005A6B42F0010230BC5A637047F83B00240D
:1012300038B5144B01211C68DD6885F8240022684C
:10124000536084F82410B3F888101A608A07DC60B1
:1012500005D529462046BDE83840FFF7DBB895F8AC
:101260002420D3F88C10D300A86A43F00203C1E90C
:1012700002400B70FFF7F4FD29462046BDE83840D8
:10128000FFF7C8B8F83B0024000000000000000091
:101290002DE9F0414B1C554D86B0D5F80C8063D03C
:1012A0002F46534B06464FF0804E57F8100FCDE9AE
:1012B0000338B8424FF000030593DEF824C000F075
:1012C0008580EB698468ACEB0303CB1828BF0B4621
:1012D0009C4223D902290A4638BF02220CEB0201A4
:1012E000CEF83410DEF82410A1EB0C0C624515D8B2
:1012F0000222013202EB010CCEF834C0DEF824C029
:10130000ACEB010191426CD2022A07D96A6B42F020
:1013100001026A6302E000681B1B84689C42FAD3E6
:1013200002936C4682680090D31A4268019214605E
:10133000C0E901434FF0FF33AB613046FFF778FF60
:10134000009B63B12A69A24215D09A68DDE90110B9
:1013500002440B60C3E901124FF0FF33AB61D8F8D0
:10136000280006B0BDE8F081FFF762FFD8F828003A
:1013700006B0BDE8F0810022BB422B6100925F60A5
:101380002BD09A684FF0804002990A449A60EB692A
:10139000416ACC1AA242E2D95B1A1344022B38BF2D
:1013A0000223CA184263426A511A9942D7D30223D0
:1013B0000133D1184163416A8A1A9A4213D2022B2F
:1013C000CDD96B6B43F001036B63C8E76C460A46EB
:1013D00061462046FFF7FCFEAFE74FF08043DA603E
:1013E000BDE7614685E70A46E2E700BFF83B002417
:1013F000C110000800000000000000000000000014
:101400002DE9F04F83B09946C7694FF0300A019239
:101410008AF3118892B304460E46DDF804B0A26840
:10142000934532D9A1692269A568A2EB0108A845B4
:1014300032D856D2A5EB0803424630460093FFF758
:1014400003F806EB0800DDF80080E1684246FEF78D
:10145000FBFFE2684244A261A268521BA2603DB356
:101460000FB12046B847002383F31188ABEB050B7F
:101470002E448AF31188BBF1000FD0D101980023CC
:1014800083F3118803B0BDE8F08FA1695D4622693E
:10149000A2EB0108A845CCD92A463046FEF7D4FF76
:1014A000A2692A44A261A268521BA260002DD7D172
:1014B0000F4BDA68B9F1000F0AD061680420C2E965
:1014C00000410A6049466260FFF7E2FE0028A6D0AC
:1014D000019BA3EB0B00002383F3118803B0BDE84D
:1014E000F08F2A463046FEF7AFFFE268A261B3E70D
:1014F000F83B002400000000000000000000000095
:101500004FF0FF330C30FFF77BBF00BF000000003F
:101510000C30FFF775BF00BF0000000000000000A6
:1015200070B5302304460D4683F31188164E08E04B
:101530006268C3E9004213606360FFF7A9FE0028F8
:1015400008DBA3682946042043B9F368002DEFD1D6
:101550004FF0FF30002383F3118870BDA368A169A9
:10156000013B4A1CA3602369A2619A420D7801D312
:10157000E368A361E3690BB120469847002383F336
:101580001188284670BD00BFF83B00240000000011
:101590004FF0FF310C30FFF7C3BF00BF0000000069
:1015A0000C30FFF7BDBF00BF0000000000000000CE
:1015B0002DE9F041302304460F46164683F3118887
:1015C000DFF8608008E06568C3E900452B60636070
:1015D000FFF75EFE002809DBA3683146042053B9FB
:1015E000D8F80C30002EEED14FF0FF30002383F3FB
:1015F0001188BDE8F0816269A368511C013B6161FB
:10160000A3601770D4E904329A4201D3E36863619E
:10161000E3690BB120469847002080F31188BDE8AC
:10162000F08100BFF83B0024000000000000000033
:101630004FF0FF323030FFF7BBBF00BF00000000AB
:101640003030FFF7B5BF00BF000000000000000011
:101650002DE9F04F83B09946C7694FF0300A0192E7
:101660008AF3118892B304460E46DDF804B0A268EE
:10167000934532D9A568D4E90420A2EB0008A84517
:1016800032D856D2A5EB0803424631460093FEF706
:10169000DBFE06EB0801DDF80080E0684246FEF75D
:1016A000D3FEE26842446261A268521BA2603DB36D
:1016B0000FB12046B847002383F31188ABEB050B2D
:1016C0002E448AF31188BBF1000FD0D1019800237A
:1016D00083F3118803B0BDE8F08FD4E904205D46A0
:1016E000A2EB0008A845CCD92A463146FEF7ACFE4D
:1016F00062692A446261A268521BA260002DD7D1A0
:101700000F4BDA68B9F1000F0AD061680420C2E912
:1017100000410A6049466260FFF7BAFD0028A6D082
:10172000019BA3EB0B00002383F3118803B0BDE8FA
:10173000F08F2A463146FEF787FEE2686261B3E722
:10174000F83B002400000000000000000000000042
:101750004FF0FF333030FFF77BBF00BF00000000C9
:101760003030FFF775BF00BF000000000000000030
:1017700008B50146302383F311880820FFF788FD60
:10178000002383F3118808BD000000000000000062
:1017900008B50F4B30260F4ADB68DA6186F31188F3
:1017A0004FF0804500226B6A82F3118803F10A042E
:1017B00086F31188696A0820CB1A611A092B01D8AF
:1017C000FFF766FD002383F311882346EEE700BF91
:1017D000F83B002428420008000000000000000040
:1017E0000F4B104ADB6870B53026DA6186F311883A
:1017F0004FF0804500226B6A82F3118803F1640484
:1018000086F31188696A0820CB1A611A632B01D804
:10181000FFF73EFD002383F311882346EEE700BF68
:10182000F83B00242C4200080000000000000000EB
:1018300008B50A4B30250A4ADB680A4CDA6163694D
:1018400083F00103636185F311884FF4FA61082086
:10185000FFF71EFD002383F31188F0E7F83B002417
:1018600030420008000402580000000000000000A0
:101870002DE9F041302484F311880324C6690470F3
:10188000346814F40074FBD1056A476AD5F800C0C7
:10189000D0F82CE0856A3F6845F4806805464EF430
:1018A00080604FF0FF3EC6F818E0CCF80C30CCF862
:1018B0000410CCF80080FA60796038600320DCF80E
:1018C00000300B4A43F00103D268CCF800303B688B
:1018D00043F001033B60336843F40073336045F821
:1018E000082F9562FFF7A4FC84F31188BDE8F0810E
:1018F000F83B002400000000000000000000000091
:1019000070B52F4B04468068DD6830B3AA688368E1
:10191000934207D290F824308260062B36D0072BF2
:1019200020D09BB1234603E09968AA68914202D374
:101930001B689C42F8D15A6806202B606A601560CB
:101940005D60AC62BDE87040FFF772BCD0E9003268
:1019500013605A60FFF7F4FAE4E7EB6BC4E9025353
:10196000EC6370BD866AD0E9003213605A6033467A
:1019700003E099688268914202D31B689E42F8D1C5
:101980005A68C0E9003210605860CBE7866AD0E937
:10199000003213605A60334603E0996882689142CE
:1019A00002D31B689E42F8D15A68036042601060FF
:1019B0005860B068AA6883689342ABD3B2E700BFAF
:1019C000F83B0024000000000000000000000000C0
:1019D00008B5302383F31188FFF792FF002383F3C8
:1019E000118808BD00000000000000000000000099
:1019F000F8B5302383F311880323C2690370146898
:101A000014F40074FBD14FF0FF3393614368D3F8B3
:101A10001CC0036A1E68436A1D68C36A43F480677A
:101A2000134BBCF1000F18BF6346D0F828C0F36019
:101A3000034602207060C6F800C0E96068602F604D
:101A400031680C4841F001013160296841F0010121
:101A500029601168C568032041F40071116043F8E2
:101A6000085FAB62FFF7E4FB84F31188F8BD00BFA9
:101A700084470024F83B0024000000000000000020
:101A8000F8B5302484F3118848392A4F01264418C8
:101A90002949A4F16405A26022640222E560274D71
:101AA000A28404F1300284F82660206244F8243CC9
:101AB0000023E86A44F8041C04F11001E76105F111
:101AC0002807606144F8203C2761E363A561A363B4
:101AD0000160E962E868A36204F12C03C4E90C2206
:101AE000E362A26883689A421FD9FFF701FA84F87B
:101AF0002460B5F888300646EC609B0707D5314670
:101B00002046FEF787FC002383F31188F8BD90F888
:101B10002430816ADB00D5F88C2043F00203C2E94F
:101B200002411370FFF79CF9E9E72046FFF708FA36
:101B3000E9E700BF384200082D040008F83B002404
:101B400010B4F1EE103AEFF309834FF080710A4AB6
:101B5000683BD961D26B1A6683F309880749084A42
:101B60000C68C968A468896806488C4288BF024628
:101B70005DF8044B9A61704700EF00E0F83B0024E9
:101B8000420400083F0400080000000000000000BC
:101B900010B5BFF34F8FBFF36F8F1C480022C0F802
:101BA0005022BFF34F8FBFF36F8F436943F400336D
:101BB0004361BFF34F8FBFF36F8FC0F88420BFF333
:101BC0004F8FD0F8803043F6E074C3F34E3CC3F33C
:101BD000C90E4FEA4C1C0CEA0401734641EA8372B9
:101BE000013BC0F860225A1CF8D1ACF1200C1CF16A
:101BF000200FF0D1BFF34F8F436943F4803343612B
:101C0000BFF34F8FBFF36F8F10BD00BF00ED00E03B
:101C1000704700BF0000000000000000000000004E
:101C2000704700BF0000000000000000000000003E
:101C3000FEE700BF00000000000000000000000000
:101C4000F8B52B4D2B4F2C4905F170042B482C4A2D
:101C500088420DD2043A034652F8046F43F8046BED
:101C60008B42F9D34B1E1B1A23F003030433184491
:101C7000B84207D2013F00213F1A27F00302043285
:101C800002F07AFAA54205D0D5E90420D5E9061775
:101C90001035DDE71B480023C0F88430BFF34F8FB9
:101CA000D0F8805043F6E076C5F34E34C5F3C9054D
:101CB000640104EA06012B4641EA8372013BC0F845
:101CC0006C225A1CF8D1203C14F1200FF1D1BFF343
:101CD0004F8FBFF36F8FBFF34F8FBFF36F8F002313
:101CE000C0F85032BFF34F8FBFF36F8FF8BD00BF06
:101CF00060450008A8470024A8470024A8470024FE
:101D00004046000800ED00E0000000000000000078
:101D100070B5414DB5F8883013F004041CD03F4E27
:101D2000F36A1C6DE1071C655ED4E20649D414F029
:101D3000880F3BD1A3052BD4B5F8883013F00404E9
:101D400018D0302383F31188354B5B6813F400639C
:101D50005ED183F3118870BD302383F31188032192
:101D6000D5F88C302F4A19709A60FFF779F884F310
:101D70001188D4E7302383F311880421D5F88C30FF
:101D8000284A19709A60FFF76BF884F31188D8E736
:101D9000302383F311882448FFF7E2F90121234817
:101DA000FFF75EF9002383F31188C5E7302383F33F
:101DB000118810211E48FFF753F9002383F311887F
:101DC000B8E7F26A3021536D23F01003536581F3B5
:101DD00011881848FFF7C4F902211748FFF740F9A6
:101DE000002383F31188A2E75A6D22F001025A659D
:101DF000302383F3118806F11000FFF7B1F90121B8
:101E000006F11800FFF72CF9002383F311888CE703
:101E1000BDE87040FFF794BEF83B0024400000246A
:101E200000ED00E0B4430008480000245C000024FA
:101E3000600000245000002458000024000000002E
:101E40002DE9F84FDFF83C92B9F8883013F004041C
:101E500000F0E280864CD4F854B0DBF800A0DBF848
:101E60001C502B07CBF8205040F0BA80E90500F158
:101E7000AB80AA0645D5DFF80082002608F10807E6
:101E80001EE0D4E9083293422DD06269591C013218
:101E9000216262611D70D4E907329A4201D3A369BD
:101EA0002362E068B84205D00368E3605F60866241
:101EB000FFF746F886F31188DBF81C50AB0620D5F7
:101EC000302383F31188DBF8242094F85C50636995
:101ED0001540002BD5D104214046FFF7C1F8D4E9C5
:101EE00008329342D1D16269002ACED04FF400610A
:101EF0004046FFF7B5F886F31188DBF81C50AB06B7
:101F0000DED41AF0800F37D0280635D54FF03008D0
:101F1000584E00271CE0A16B581C226C0131A064B4
:101F20009042A1631D7801D3E36BA364236BB3429A
:101F3000184605D01A68226356609F62FFF700F8C2
:101F4000CBF8285087F31188DBF81C502B0613D5EB
:101F500088F31188D4E911239A42DCD1A26B002ABC
:101F6000D9D008214448FFF77BF82AF08003CBF84A
:101F70000030002383F311881AF0400F01D0690666
:101F800017D4EA0604D5226E13690BB1506998473D
:101F9000B9F8883013F004044CD0302383F311884F
:101FA000364B5B6813F4006352D183F31188BDE8AC
:101FB000F88F302383F31188D4E911239A424BD050
:101FC000002383F31188DCE7302383F311884FF477
:101FD00080612948FFF744F8002383F3118848E71C
:101FE00015F008014FF0300318BF4FF48071EF0770
:101FF00048BF41F02001AE0748BF41F040016807EB
:1020000048BF41F0800183F311881B48FFF728F88F
:10201000002383F3118829E7302383F311880321F8
:10202000D9F88C30164A19709A60FEF719FF84F3BC
:1020300011880FE7302383F311880421D9F88C30FD
:102040000F4A19709A60FEF70BFF84F31188A4E71A
:10205000BDE8F84FFFF774BDA36B002BB0D0102183
:102060000548FEF7FDFF2AF04003CBF80030A7E754
:1020700074000024A40000247800002400ED00E097
:1020800048430008F83B0024000000000000000066
:102090002DE9F0475F4DB5F8883013F004041BD0EC
:1020A0004FF080463369F2681340DAB29B076FEA5B
:1020B000020232612CD4B5F8883013F0040419D030
:1020C000302383F31188544B5B6813F4006379D198
:1020D00083F31188BDE8F087302383F3118803214F
:1020E000D5F88C304D4A19709A60FEF7B9FE84F32A
:1020F0001188D5E7302383F311880421D5F88C307B
:10210000464A19709A60FEF7ABFE84F31188D7E750
:10211000302383F31188424F4FF000094FF030080D
:1021200009E089F31188D4E903312046984788F300
:1021300011886369B3B9EB69716A2C69C81AA2681E
:10214000904203EB020A2AD3D4E90032C5F81CA05E
:1021500013605A60C4F800902B69BB42E1D1C6F805
:102160000C90DEE7716AA1EB0A0083422ED32A6944
:10217000BA4245D091688B4204D912685B1A9168C3
:102180009942FAD3A36091682260CB1A51686160CA
:102190000C60C2E901434FF0FF33AB61BEE7BC42C4
:1021A0000CD01344E9615B1A022BA36038BF0223F1
:1021B000CA187263726A511A8B4210D9002383F3D2
:1021C000118878E7BDE8F047FFF7BABC6B6B2A6966
:1021D00043F00203BA426B6318D00346CAE70223F6
:1021E0004FF080410133D0184863486A821A9A42FE
:1021F0000ED2022BE2D96B6B43F001036B63DDE778
:1022000053445A1A2046FEF7E3FFD7E70022F9E7C6
:102210000246E7E7F83B002400ED00E02443000815
:10222000083C002400000000000000000000000046
:1022300038B5204DB5F8883013F0040419D01E4B82
:102240001E481968426801F03D0199600AB1806832
:102250009047B5F8883013F0040418D0302383F386
:102260001188174B5B6813F400631ED183F3118848
:1022700038BD302383F311880321D5F88C30114AFF
:1022800019709A60FEF7ECFD84F31188D7E73023CC
:1022900083F311880421D5F88C300A4A19709A60AA
:1022A000FEF7DEFD84F31188D8E7BDE83840FFF77C
:1022B00047BC00BFF83B0024000002400047002458
:1022C00000ED00E0A843000800000000000000004E
:1022D00038B5214DB5F8883013F004041BD01F4BDE
:1022E0001F4A1968890901F03D0188019860D36887
:1022F0000BB110699847B5F8883013F0040418D072
:10230000302383F31188174B5B6813F400631ED1ED
:1023100083F3118838BD302383F311880321D5F866
:102320008C30114A19709A60FEF79AFD84F3118877
:10233000D5E7302383F311880421D5F88C300A4A7D
:1023400019709A60FEF78CFD84F31188D8E7BDE818
:102350003840FFF7F5BB00BFF83B00240000024007
:102360000047002400ED00E09C430008000000004E
:1023700038B5214DB5F8883013F004041BD01F4B3D
:102380001F4A1968090C01F03D010804986053695F
:102390000BB190699847B5F8883013F0040418D051
:1023A000302383F31188174B5B6813F400631ED14D
:1023B00083F3118838BD302383F311880321D5F8C6
:1023C0008C30114A19709A60FEF74AFD84F3118827
:1023D000D5E7302383F311880421D5F88C300A4ADD
:1023E00019709A60FEF73CFD84F31188D8E7BDE8C8
:1023F0003840FFF7A5BB00BFF83B002400000240B7
:102400000047002400ED00E09043000800000000B9
:1024100038B5214DB5F8883013F004041BD01F4B9C
:102420001F4A1968890D01F03D0188059860D3693C
:102430000BB1106A9847B5F8883013F0040418D02F
:10244000302383F31188174B5B6813F400631ED1AC
:1024500083F3118838BD302383F311880321D5F825
:102460008C30114A19709A60FEF7FAFC84F31188D7
:10247000D5E7302383F311880421D5F88C300A4A3C
:1024800019709A60FEF7ECFC84F31188D8E7BDE878
:102490003840FFF755BB00BFF83B00240000024066
:1024A0000047002400ED00E0844300080000000025
:1024B00038B5204DB5F8883013F0040419D01E4B00
:1024C0001E485968426A01F03D01D9600AB1806A2C
:1024D0009047B5F8883013F0040418D0302383F304
:1024E0001188174B5B6813F400631ED183F31188C6
:1024F00038BD302383F311880321D5F88C30114A7D
:1025000019709A60FEF7ACFC84F31188D7E730238A
:1025100083F311880421D5F88C300A4A19709A6027
:10252000FEF79EFC84F31188D8E7BDE83840FFF73A
:1025300007BB00BFF83B0024000002400047002416
:1025400000ED00E0784300080000000000000000FB
:1025500038B5214DB5F8883013F004041BD01F4B5B
:102560001F4A5968890901F03D018801D860D36A82
:102570000BB1106B9847B5F8883013F0040418D0ED
:10258000302383F31188174B5B6813F400631ED16B
:1025900083F3118838BD302383F311880321D5F8E4
:1025A0008C30114A19709A60FEF75AFC84F3118836
:1025B000D5E7302383F311880421D5F88C300A4AFB
:1025C00019709A60FEF74CFC84F31188D8E7BDE8D7
:1025D0003840FFF7B5BA00BFF83B002400000240C6
:1025E0000047002400ED00E06C43000800000000FC
:1025F00038B5214DB5F8883013F004041BD01F4BBB
:102600001F4A5968090C01F03D010804D860536B5A
:102610000BB1906B9847B5F8883013F0040418D0CC
:10262000302383F31188174B5B6813F400631ED1CA
:1026300083F3118838BD302383F311880321D5F843
:102640008C30114A19709A60FEF70AFC84F31188E5
:10265000D5E7302383F311880421D5F88C300A4A5A
:1026600019709A60FEF7FCFB84F31188D8E7BDE887
:102670003840FFF765BA00BFF83B00240000024075
:102680000047002400ED00E01444000800000000B2
:1026900038B5214DB5F8883013F004041BD01F4B1A
:1026A0001F4A5968890D01F03D018805D860D36B38
:1026B0000BB1106C9847B5F8883013F0040418D0AB
:1026C000302383F31188174B5B6813F400631ED12A
:1026D00083F3118838BD302383F311880321D5F8A3
:1026E0008C30114A19709A60FEF7BAFB84F3118896
:1026F000D5E7302383F311880421D5F88C300A4ABA
:1027000019709A60FEF7ACFB84F31188D8E7BDE836
:102710003840FFF715BA00BFF83B00240000024024
:102720000047002400ED00E008440008000000001D
:1027300038B5204DB5F8883013F0040419D01E4B7D
:102740001E481968426C01F03D0199600AB1806C25
:102750009047B5F8883013F0040418D0302383F381
:102760001188174B5B6813F400631ED183F3118843
:1027700038BD302383F311880321D5F88C30114AFA
:1027800019709A60FEF76CFB84F31188D7E7302349
:1027900083F311880421D5F88C300A4A19709A60A5
:1027A000FEF75EFB84F31188D8E7BDE83840FFF7F9
:1027B000C7B900BFF83B00240004024000470024D2
:1027C00000ED00E0FC4300080000000000000000F5
:1027D00038B5214DB5F8883013F004041BD01F4BD9
:1027E0001F4A1968890901F03D0188019860D36C7E
:1027F0000BB1106D9847B5F8883013F0040418D069
:10280000302383F31188174B5B6813F400631ED1E8
:1028100083F3118838BD302383F311880321D5F861
:102820008C30114A19709A60FEF71AFB84F31188F4
:10283000D5E7302383F311880421D5F88C300A4A78
:1028400019709A60FEF70CFB84F31188D8E7BDE895
:102850003840FFF775B900BFF83B00240004024080
:102860000047002400ED00E0F043000800000000F5
:1028700038B5214DB5F8883013F004041BD01F4B38
:102880001F4A1968090C01F03D0108049860536D56
:102890000BB1906D9847B5F8883013F0040418D048
:1028A000302383F31188174B5B6813F400631ED148
:1028B00083F3118838BD302383F311880321D5F8C1
:1028C0008C30114A19709A60FEF7CAFA84F31188A5
:1028D000D5E7302383F311880421D5F88C300A4AD8
:1028E00019709A60FEF7BCFA84F31188D8E7BDE846
:1028F0003840FFF725B900BFF83B00240004024030
:102900000047002400ED00E0E44300080000000060
:1029100038B5214DB5F8883013F004041BD01F4B97
:102920001F4A1968890D01F03D0188059860D36D33
:102930000BB1106E9847B5F8883013F0040418D026
:10294000302383F31188174B5B6813F400631ED1A7
:1029500083F3118838BD302383F311880321D5F820
:102960008C30114A19709A60FEF77AFA84F3118854
:10297000D5E7302383F311880421D5F88C300A4A37
:1029800019709A60FEF76CFA84F31188D8E7BDE8F5
:102990003840FFF7D5B800BFF83B002400040240E0
:1029A0000047002400ED00E0D843000800000000CC
:1029B00038B5204DB5F8883013F0040419D01E4BFB
:1029C0001E485968426E01F03D01D9600AB1806E1F
:1029D0009047B5F8883013F0040418D0302383F3FF
:1029E0001188174B5B6813F400631ED183F31188C1
:1029F00038BD302383F311880321D5F88C30114A78
:102A000019709A60FEF72CFA84F31188D7E7302307
:102A100083F311880421D5F88C300A4A19709A6022
:102A2000FEF71EFA84F31188D8E7BDE83840FFF7B7
:102A300087B800BFF83B0024000402400047002490
:102A400000ED00E0CC4300080000000000000000A2
:102A500038B5214DB5F8883013F004041BD01F4B56
:102A60001F4A5968890901F03D018801D860D36E79
:102A70000BB1106F9847B5F8883013F0040418D0E4
:102A8000302383F31188174B5B6813F400631ED166
:102A900083F3118838BD302383F311880321D5F8DF
:102AA0008C30114A19709A60FEF7DAF984F31188B4
:102AB000D5E7302383F311880421D5F88C300A4AF6
:102AC00019709A60FEF7CCF984F31188D8E7BDE855
:102AD0003840FFF735B800BFF83B0024000402403F
:102AE0000047002400ED00E0C043000800000000A3
:102AF00038B5214DB5F8883013F004041BD01F4BB6
:102B00001F4A5968090C01F03D010804D860536F51
:102B10000BB1906F9847B5F8883013F0040418D0C3
:102B2000302383F31188174B5B6813F400631ED1C5
:102B300083F3118838BD302383F311880321D5F83E
:102B40008C30114A19709A60FEF78AF984F3118863
:102B5000D5E7302383F311880421D5F88C300A4A55
:102B600019709A60FEF77CF984F31188D8E7BDE804
:102B70003840FEF7E5BF00BFF83B002400040240E8
:102B80000047002400ED00E054430008000000006E
:102B900038B5214DB5F8883013F004041CD01F4B14
:102BA0001F4A5968890D01F03D018805D860D36F2F
:102BB00013B1D2F880009847B5F8883013F00404B8
:102BC00018D0302383F31188164B5B6813F400632D
:102BD0001ED183F3118838BD302383F3118803217C
:102BE000D5F88C30104A19709A60FEF739F984F3E1
:102BF0001188D4E7302383F311880421D5F88C3071
:102C0000094A19709A60FEF72BF984F31188D8E706
:102C1000BDE83840FEF794BFF83B002400040240B2
:102C20000047002400ED00E03043000800000000F1
:102C3000F8B5204DB5F8883013F0040410D01E4BC1
:102C4000DB695A6919690A409A61302383F3118854
:102C50001A4B5B6813F4006327D183F31188F8BD26
:102C6000302787F311880322D5F88C30144E1A7060
:102C70009E60FEF7F5F884F311880F4AB5F88830A6
:102C8000D26913F004045169106901EA00019161ED
:102C9000DBD187F311880422D5F88C301A709E603E
:102CA000FEF7DEF884F31188CFE7BDE8F840FEF7C1
:102CB00047BF00BFF83B0024D800002400ED00E02F
:102CC0006043000800000000000000000000000059
:102CD000F8B5204DB5F8883013F0040410D01E4B21
:102CE000DB695A6919690A409A61302383F31188B4
:102CF0001A4B5B6813F4006327D183F31188F8BD86
:102D0000302787F311880322D5F88C30144E1A70BF
:102D10009E60FEF7A5F884F311880F4AB5F8883055
:102D2000D26913F004045169106901EA000191614C
:102D3000DBD187F311880422D5F88C301A709E609D
:102D4000FEF78EF884F31188CFE7BDE8F840FEF770
:102D5000F7BE00BFF83B00240801002400ED00E0AE
:102D60003C430008000000000000000000000000DC
:102D700070B5154C01222568E0682B685C6085F809
:102D800024202360E560FEF7B3F8B4F888300646E7
:102D90009B0705D531462846BDE87040FDF73ABB94
:102DA00090F82430816ADB00D4F88C2043F00203D1
:102DB000C2E902511370FEF753F831462846BDE8C8
:102DC0007040FDF727BB00BFF83B00240000000067
:102DD00038B51A4D8368EC68A34200D038BD02466E
:102DE000302383F311880168C3688842E36322D0EB
:102DF000206C4BB119688B4203D08968884238BF78
:102E00000846DB68002BF5D1A06010680368C16B31
:102E100013605A60C2E90201C263FEF791F82A68A2
:102E2000EB6892689B689A4201D9FFF7A1FF0023E3
:102E300083F3118838BD00238360F8E7F83B002452
:102E400070B5044600F1200680F8201080F821209B
:102E5000BFF34F8F144BC3F87062BFF34F8FBFF3B4
:102E60006F8F00680C30FEF7B3FD3022D4E90053B9
:102E700082F311886B602846FDF71AFF02220023B7
:102E80002A7083F311882068FDF702FD314620681F
:102E9000FEF7AEFD2068FDF70BFD2068BDE8704031
:102EA0000C30FFF795BF00BF00ED00E00000000010
:102EB000344A30233449D2682DE98048D16183B047
:102EC00083F311884FF080430025D3F8248085F3E5
:102ED00011882E4E2E4CDFF8C0B0DFF8C0A09FED59
:102EE0002D8ADFF8BC90302787F311885846FEF70B
:102EF00007FD85F311885846FFF76AFF87F31188AD
:102F00005046FEF7FDFC85F31188337E504696ED62
:102F1000039A0193D6ED048A7769FFF759FF019B65
:102F20002BB9F0EE488A18EE107AB0EE489A3023AA
:102F300083F311884846FEF7E3FC85F31188484681
:102F4000676184ED008A08F1140784ED018A84ED3D
:102F5000028A84ED039AC4ED048AFFF739FF302317
:102F600083F311884FF080430820596AA1EB0808C9
:102F7000791AB8F1130F01D8FEF78AF985F3118891
:102F8000B846B0E7F83B002440420008200C00247B
:102F9000CC250024000000000000002410000024C4
:102FA00020000024000000000000000000000000DD
:102FB000374A3849D2682DE988483023D16183F3F4
:102FC00011884FF080434FF000085D6A88F3118844
:102FD000314CDFF8DC90314EDFF8D8B0302787F382
:102FE00011883046FEF78CFC88F31188D4ED008AF6
:102FF0003046D9ED01BA94ED018A99ED02BAD4EDCB
:1030000003AA94ED04AA94ED059AD9ED039AFFF76B
:10301000DFFE3BEEE80A5846FDF73AFD2048F0EEA9
:10302000408A3BEE480AFDF733FDB0EE408A1D486A
:1030300038EEEA0AFDF72CFD1B4838EE4A0AFDF788
:1030400027FDF7EE087AB0EE490A184899EEA70A6C
:10305000FDF71EFD87F311883046FEF751FC88F31B
:103060001188304605F1140AFFF7B2FE87F3118884
:103070004FF080430820596A4D1BAAEB0101132D24
:1030800001D8FEF705F988F311885546A6E700BF79
:10309000F83B002444420008CC25002420000024F2
:1030A00098310024C0310024E8310024103200247B
:1030B000BC25002470310024000000000000000046
:1030C0002E4A2F49D2682DE988483023D16183F3F5
:1030D00011884FF0804300265F6A86F31188DFF87D
:1030E000AC800025274CDFF8A8A04FF0300B8BF305
:1030F00011885046FEF704FC86F31188224B504697
:10310000C8F8005007F1C809C8F80450C8F80850BA
:10311000C8F80C501E706561A561E56184F82060F7
:10312000E5632564656484F848606566A566E566C0
:1031300084F87060C4F88C50C4F89050C4F894506F
:1031400084F89860C4F8B450C4F8B850C4F8BC50BF
:1031500084F8C060FFF73CFE8BF311884FF080438A
:103160000820596ACF1BA9EB0101C72F01D8FEF730
:103170008FF886F311884F46B7E700BFF83B00246D
:103180004C42000870310024B8250024BC250024DE
:1031900020000024000000000000000000000000EB
:1031A0002DE9F843037B8B424AD07F220B01044672
:1031B0000D4600F1200980F8202080F82130BFF36F
:1031C0004F8F204BC3F87092BFF34F8FBFF36F8FB9
:1031D00000684FF030080C3088F31188FEF790FB40
:1031E000002787F31188D4E9006388F3118873609E
:1031F0003046FDF75DFD0223337087F311882368A5
:1032000088F311885A680126D2E9022306FA03F3EB
:103210009BB2538387F3118849462068FEF7E8FB89
:10322000236888F311885B68DA689B689640B6B2B9
:103230001E8387F3118820680C30FFF7C9FD2573C2
:10324000BDE8F88300ED00E0000000000000000091
:103250002DE9F04F0E4683B0002104461546FFF7D6
:103260009FFF4FF0FF33AD22A24684F8202004F1E7
:103270002002C4F82130C4F82530C4F82930BFF347
:103280004F8FDFF83C91C9F870220192BFF34F8F46
:10329000BFF36F8F5AF8400B4FF0300B0C308BF3AD
:1032A0001188FEF72DFB002787F31188D4F80080E2
:1032B000A3688BF31188C8F804304046FDF7F8FC8A
:1032C000022388F8003087F3118823688BF3118874
:1032D00059684FF00108D1E9021308FA03F39BB2D1
:1032E0004B8387F311880D215346019A2068FEF71E
:1032F000BFFA23688BF311885B68D3E9023208FABE
:1033000002F292B21A8387F3118820680C30FFF71B
:103310005FFDBFF34F8FC9F85CA2BFF34F8FBFF3C0
:103320006F8FB4F843304046B4F84120DBBA9FEDCC
:10333000224ADFED224A05EE103AB4F84530DBBAF6
:10334000B8EEC55A05EE903AB4F8473025EE045A67
:10335000DBBAF8EEE55A06EE903AB4F8493065EE7D
:10336000845ADBBAF8EEE66A07EE103AB4F84B304E
:1033700066EEA46A86ED015ADBBAB8EEC77AC6EDEE
:10338000025A07EE903AD3BA27EE247A06EE103AA4
:10339000F8EEE77AB8EEC66A67EEA47A26EE046A1B
:1033A00086ED006AC5ED006A85ED017AC5ED027A09
:1033B00003B0BDE8F08F00BF0AE89C3B797D8B3AF3
:1033C00000ED00E000000000000000000000000030
:1033D00070B5194C84F8200084F82110BFF34F8F8A
:1033E000164B04F12006C3F87062BFF34F8FBFF392
:1033F0006F8F20680C30FEF7EBFA3022D4E90053CF
:1034000082F311886B602846FDF752FC02220023EC
:103410002A7083F311882068FDF73AFA3146206854
:10342000FEF7E6FA2068FDF743FA2068BDE8704031
:103430000C30FFF7CDBC00BFC00B002400ED00E056
:103440002DE9F843FF2504460160002185812646C9
:103450002546C0E90123FFF7A3FE4FF6807326F847
:10346000203FBFF34F8FDFF8E890C9F87062BFF3D9
:103470004F8FBFF36F8F55F8400B0C30FEF7A8FA53
:103480003022D4E9007382F311884FF002083846E5
:103490007B60FDF70DFC87F80080002787F311881B
:1034A0002068FDF7F5F92B46324641462068FEF7C5
:1034B000DFF92068FDF7FCF920680C30FFF788FC85
:1034C000BFF34F8FC9F85C52BFF34F8FBFF36F8FBD
:1034D00094F84130EA2B01D0BDE8F883C1220621DF
:1034E0002046FFF7ADFC4FF47A70FEF741F9012258
:1034F00006212046FFF7A4FC3220FEF739F91022FE
:1035000003212046FFF79CFC41462046FFF748FE7A
:103510003A4639462046FFF793FC01212046072210
:10352000FFF78EFC3A4610212046FFF789FC3A4609
:1035300011212046FFF784FC192214212046FFF7B1
:103540007FFC39462046FFF72BFE01236373C3E758
:1035500000ED00E00000000000000000000000009E
:10356000C34A0026C348D168C34DC44BC44AC54CA6
:103570002DE98048C86189B0C349C448FFF760FF9E
:10358000C34BC44A2946C448FFF75AFFC34BC44A39
:103590002673A2602246C4E900534FF6F57322F861
:1035A000203FBFF34F8FBF4F0092C7F87022BFF389
:1035B0004F8FBFF36F8F20680C30FEF709FA30226F
:1035C000D4E9005382F311884FF0020828466B605B
:1035D000FDF76EFB85F8008086F31188254620688C
:1035E000FDF756F9414655F8400B009A2B460195D8
:1035F000FEF73EF92068FDF75BF920680C30FFF715
:10360000E7FBBFF34F8FC7F85C52BFF34F8FBFF399
:103610006F8F94F84130122B00F05481302383F3E4
:1036200011884FF080420023556A83F31188DFED43
:103630009E8A02AF9FED9D8A05AEDFF884B2AA464E
:10364000924B5B7BFBB13A4631469048FFF700FE58
:10365000C8B1302383F311889548FEF751F9002350
:1036600083F31188934A01231546137696E80700E1
:103670002B4685E807000C3397E8070083E807002E
:103680008B48FFF7A5FB844B5B7BFBB13A46314689
:103690008148FFF7DDFDC8B1302383F311888448EA
:1036A000FEF72EF9002383F311880123814A82F863
:1036B0003430814B96E8070083E8070097E807005D
:1036C0000C3383E807007A48FFF782FB237B002B4B
:1036D00000F0B8804FF0FF33CBF80030CBF8043067
:1036E000CBF80830ABF80C30BB2384F82030BFF3A4
:1036F0004F8F6C4B009AC3F87022BFF34F8FBFF30C
:103700006F8F20684FF030080C3088F31188FEF777
:10371000F7F8002585F31188D4F80090A36888F3A2
:103720001188C9F804304846FDF7C2FA022389F827
:10373000003085F31188236888F311885A684FF0A8
:103740000109D2E9022309FA03F39BB2538385F3FB
:1037500011885A4B0F21009A2068FEF789F82368D8
:1037600088F311885A68D2E9022309FA03F39BB25D
:10377000138385F3118820680C30FFF729FBBFF312
:103780004F8F484B019AC3F85C22BFF34F8FBFF3B2
:103790006F8FB4F84330DBBA07EE903AB4F8453097
:1037A000F8EEE77ADBBA67EEA87ACDED067A07EE97
:1037B000903AB4F84930F8EEE77ADBBA67EEA87AC7
:1037C000CDED077A07EE903AB4F84B30F8EEE77A91
:1037D000DBBA67EE887ACDED027A07EE903AB4F85C
:1037E0004D30F8EEE77ADBBA67EE887ACDED037AF2
:1037F00007EE903AB4F84130F8EEE77ADBBA67EEBC
:10380000887ACDED047A07EE903AF8EEE77A67EE23
:10381000A87ACDED057A88F311882548FEF770F86F
:1038200085F31188234B96E8070083F850903833CE
:1038300083E8070097E807000C3383E807001C487B
:10384000FFF7C6FA0AF10A05302383F311884FF017
:103850008043596AA1EB0A03092B03D8691A08208F
:10386000FDF716FD002383F31188AA46E8E600BFA2
:10387000F83B002454420008080100246442000878
:1038800084420008C00B0024D8000024000B002450
:10389000A4420008C4420008600B0024044300084E
:1038A000E442000800ED00E00AE89C3B797D8B3A99
:1038B00010000024200C00243C0C0024000C0024E8
:1038C000E10B002480216B20FFF782FD4FF47A701A
:1038D000FDF74EFF01216B20FFF77AFD3220FDF747
:1038E00047FF31461920FFF773FD01211A20FFF72A
:1038F0006FFD18211B20FFF76BFD18211C20FFF71F
:1039000067FD01211D20FFF763FD0123237385E679
:1039100038B5302383F31188124BDC6804F12C0591
:10392000E36AA0629D4207D194F8263083B10F204C
:10393000BDE83840FDF77CBC1A681846E262FDF726
:10394000FFFAE36AAB42F7D194F82630002BEED1B0
:1039500094F825309B07EAD1D4E9043213605A6009
:10396000E5E700BFF83B0024000000000000000075
:10397000EFF30983054968334A6B22F001024A6379
:1039800083F30988002383F31188704700EF00E078
:10399000374B00204FF0FF32364CD3F88010364DB5
:1039A00061F000412DE98048C3F8801089B0D3F858
:1039B000801001F00041C3F88010D3F88010D3F8D4
:1039C0008410C3F88420D3F88410C3F88400D3F89B
:1039D0008410D96F2143294CD967D96F2140D96709
:1039E000D96FD3F8881001900D432549C3F888504A
:1039F000D3F88850C5F30A05C3F88850D3F8885027
:103A0000D3F89050C3F89020D3F89050C3F89000AA
:103A1000D3F89050D3F89450C3F89420D3F894502E
:103A2000C3F89400D3F89450D3F89850C3F8982072
:103A3000D3F89850C3F89800D3F89850D3F88C5026
:103A4000C3F88C20D3F88C50C3F88C00D3F88C507A
:103A5000D3F89C50C3F89C20D3F89C50019DC3F828
:103A60009C00084A2C46D3F89C30086006480FE0BA
:103A700000440258FFEFFF7F00F8FFFF00100080B6
:103A800000470024100002402044000850F8342071
:103A900001EB840302341560202C5D60F6D1D14B1C
:103AA0004FF0FF32019490209A604FF0800BDA6063
:103AB0004FF0080AC3F808240126C3F80C246FF05D
:103AC0005F03C9494FF08062C84F81F813334FF448
:103AD0000023DFF87CE3C1F880310B604FF08053A6
:103AE00081F87A03C1F88C21CA607022C04C81F839
:103AF0001C23C1F880310B60C023BE4A81F82733F4
:103B0000C1F884B102EB0A09C1F804B0D7F89430C7
:103B1000DFF840C343F48073DFF83C83C7F8943088
:103B2000D7F89400556020F48070B34BC7F8940028
:103B3000D7F894001670B148C2E9029902F1100951
:103B4000C2E9049902F11809C2F8189002F11C099F
:103B5000C2F81C9002F12009C2F8209002F1240959
:103B6000C2F8249002F12809C2F828904FF4801975
:103B7000D4620EF110045D61DC61A14CC3F818E061
:103B80001C6403F10C041E721B658CF80060CCF8F9
:103B90001450CCF82050C3E9034403F13004C3E9C6
:103BA0000C4410249C63974CC3E908EEDC63DFF8F7
:103BB000ACE2C3E911440CF10C04C2F830E0924AC3
:103BC000CCE903441C4644F8042B904A5C60DA6458
:103BD0008F4C904AC3E90A53C3E915428E4B192210
:103BE000CCE90155CCF81C306FF05F03CCF82450C1
:103BF00081F82333C1F884A1C1F804A0067081F8CC
:103C0000543300F10C03C1F88891C1F80890514673
:103C1000DFF84C924561C0E90333804BCCF8283083
:103C200083623033CCF82C30C3627D4BC0E9015540
:103C3000C361C0E908554046FCF74AFE4846A8F86B
:103C400018A032463146DFF81CA2FCF741FEA9F568
:103C5000806040F29A220199A9F81A604FF0040995
:103C6000FCF736FE40F2A22240214C46FCF730FE23
:103C700040F29A225946FCF72BFE1922494650463B
:103C8000AAF81890FCF724FE404640F29A224946D2
:103C9000FCF71EFE019940F2A2224FF40058FCF7F7
:103CA00017FE40F29A224021FCF712FE4FF010035B
:103CB000102119220383FCF70BFE504619224146BE
:103CC000AAF81880FCF704FE0AF58060594619220C
:103CD000A0F818B0FCF7FCFD40F29A324FF4807166
:103CE000FCF7F6FD40F2A2324FF40071FCF7F0FD54
:103CF000414640F29A4200F58050FCF7E9FD40F25F
:103D0000A2424FF48041FCF7E3FDD7F8E830454983
:103D10003343C7F8E830D7F810313343C7F81031D0
:103D2000D7F810314FF080433F4FC7E90155CA6BB8
:103D30003243CA6344F61F629A624FF0FF32DA627E
:103D40009D615D63DD605D605E611E6000230292C7
:103D500000223E700595CDE90355CDE9062302A862
:103D6000FCF736FEFCF73CFE013CF8D12F4A30262A
:103D70002F4B02F10C052F48546102999C60B960E9
:103D80005C612D49DC6279600C63C2E9035504254E
:103D9000DD615D63294D1D629D63294D0560294DDF
:103DA00045602948C2E90144106003F110021A611C
:103DB00014229A6103F124025A6203F128029A62E2
:103DC0001C221A6303F13C02DA6303F140021A6415
:103DD00003F14402C3E900335A641C4B8B6386F33E
:103DE000118841E00000024000E100E00044025878
:103DF00000A00040400000247400002408010024BA
:103E0000A847002498470024E0450008B1090008AD
:103E10000048004000E1F5050030014016000100B7
:103E2000003401400010005CD8460024E446002421
:103E300088460024D0460024F83B0024710A00087C
:103E4000A847002400000824310A00082045000883
:103E500088470024D80000240010025800AC00401D
:103E6000000402580008025862B6674B4FF6FF0C78
:103E70004C63CC616548664AC1E90114DD6805EA16
:103E80000C052843D860D3F8FC0040F08070C3F8DC
:103E9000FC006048C2F8B00F106840F001001060EC
:103EA0002022DA774FF0FF3283F8226001F110030D
:103EB0008A610960C1E904334FF08043586A2346A0
:103EC0000246C1E90823544A01F19003C1F8844035
:103ED000C1E9222301EB0413013493F89020802CD4
:103EE0006FF3020283F89020F4D14C4B00254C482C
:103EF0008B654C4B4C6403F12402C0F8C8310B6550
:103F0000C0F8CC218A620122C0F8D011C0F8C021CB
:103F1000C0F8F82180F8DE21A1F8602081F8622045
:103F200003F144024D67CD654965C0F89851C0F86A
:103F3000D801C1E91E5403F140041433CB6000F5ED
:103F4000AA738C660224C0F8C431374BA0F8DC4158
:103F5000C0F89431354BC1E91B2200F5E472C0F87A
:103F6000B43100F5F273CA64CA6200F5F4723049E4
:103F7000C0E97C55C0F8D411C0E97932C0F8EC2111
:103F800000F5DC70FCF7DCFF3C7085F31188294BF1
:103F90009E224FF41C612848FDF772FD274B9C229E
:103FA0004FF41C6126483024FDF76AFD254B992209
:103FB0004FF41C612448FDF763FD244B96224FF417
:103FC000B8612348FDF75CFD224B94224FF41C613D
:103FD0002148FDF755FD214B8A224FF4B861204856
:103FE000FDF74EFD1F4B7B224FF4B8611E48FDF7D5
:103FF00047FD84F3118842F210710820FDF748F95B
:10400000002383F31188F4E700ED00E00003FA05D4
:10401000001000E055CEACC5FFFF8000344500081D
:1040200088440024203C0024C10900082D04000815
:104030005842000861350008F81B00249117000859
:10404000780C0024B12E000838010024E117000884
:1040500038160024B12F000838320024C13000087F
:10406000B02B002431180008F025002400000000C7
:10407000364B0021364A4FF07C5C3648DFED367A0D
:1040800070B5DFF8ECE01A609A62344A344D354C72
:10409000354E1A659A670022C3F854E0C3F87CE0F5
:1040A000DFF8D0E083F820205A6283F84820DA64F1
:1040B00083F870205A67C3F80CC018615960996082
:1040C00059619961D961D9621963C3F834C09863A1
:1040D000D96319645964C3F85CC018665966996657
:1040E000D966C3F858E083F89820C3F89C2083F879
:1040F000C020C3F8C420AA60A260B2603273C3F8C3
:1041000080E0C3ED287AC3F884C0C3F8ACC0C3F81C
:104110008800C3F8B000C3F88C10C3F89010C3F83F
:104120009410C3F8A810C3F8B410C3F8B810C3F8BB
:10413000BC10C5E90022C4E90022C6E90022FF2222
:10414000AA81A281094AC3F8A42070BD703100245D
:10415000000090400000F041CDCCCC3DAE47E13DA9
:10416000000B0024600B0024C00B00240AD7A33CE2
:10417000EC51B83DA69B443B830730B548D0541E54
:10418000002A3FD0CAB2034601E0013C3AD303F80B
:10419000012B9D07F9D1032C2DD9CDB245EA052578
:1041A0000F2C45EA054536D9A4F1100222F00F0C78
:1041B00003F1200EE6444FEA121C03F1100242E91B
:1041C000045542E9025510327245F8D10CF1010252
:1041D00014F00C0F03EB021204F00F0C13D0ACF12F
:1041E000040323F003030433134442F8045B9342B3
:1041F000FBD10CF003042CB1CAB21C4403F8012B10
:104200009C42FBD130BD64461346002CF4D1F9E743
:0C42100003461446BFE71A46A446E0E748
:10421C00444D41206661696C7572650063616E0086
:10422C0069326300686F7573650000006E6F6E61B4
:10423C006D650000657374006374726C000000009F
:10424C00726164696F0000007370690069646C6569
:10425C0000000000633000000000000000000000BF
:10426C0000080258020000000700002000000003B4
:10427C000000000000000000000000000000000032
:10428C000008025802000000070000500000000364
:10429C000000000000000000000000000000000012
:1042AC00001002580400000007000030000000035A
:1042BC0000000000000000000000000000000000F2
:1042CC00001002580400000007000060000000030A
:1042DC0000000000000000000000000000000000D2
:1042EC00000802580D000000070000300000000319
:1042FC0000000000000000000000000000000000B2
:10430C00000802580D0000000700006000000003C8
:10431C000000000000000000566563746F724230AC
:10432C0000000000566563746F7231353800000070
:10433C00566563746F7231393000000056656374D2
:10434C006F72444300000000566563746F72313520
:10435C0034000000566563746F7243430000000024
:10436C00566563746F7238300000000056656374D4
:10437C006F72374300000000566563746F723738F4
:10438C0000000000566563746F7237340000000043
:10439C00566563746F7237300000000056656374A5
:1043AC006F72364300000000566563746F723843B9
:1043BC0000000000566563746F72313530000000E8
:1043CC00566563746F723133300000005665637448
:1043DC006F72313243000000566563746F72313274
:1043EC0038000000566563746F723132340000007F
:1043FC00566563746F723132300000005665637419
:10440C006F72464300000000566563746F72383457
:10441C0000000000100002400800024000080240AA
:10442C0000000B0028000240080002400408024073
:10443C0006010C004000024008000240080802403F
:10444C0010020D0058000240080002400C08024007
:10445C0016030E00700002400C00024010080240CF
:10446C0000040F00880002400C00024014080240B7
:10447C0006051000A00002400C0002401808024083
:10448C0010061100B80002400C0002401C0802404B
:10449C0016072F00100402400804024020080240B6
:1044AC000008380028040240080402402408024096
:1044BC000609390040040240080402402808024062
:1044CC00100A3A0058040240080402402C0802402A
:1044DC00160B3B00700402400C04024030080240F2
:1044EC00000C3C00880402400C04024034080240DA
:1044FC00060D4400A00402400C040240380802409F
:10450C00100E4500B80402400C0402403C08024066
:10451C00160F46006042000800000000000000007A
:10452C0088440024884600246D61696E002C043890
:10453C00040448080C10141C20242526000000003C
:10454C00000064040100040000000000000C0010D6
:10455C002830340040460008A8470024A84700240F
:10456C00A84700244046000800000030000000303E
:10457C000000003040460008000000300000003011
:10458C0000000030404600080000043000000430F9
:10459C0000000430404600080000003800000038DD
:1045AC0000000038404600080010002000100020D9
:1045BC000010002040460008000000000000000031
:1045CC0000000000404600080000803800008038E1
:1045DC000000803800000000511700080115000889
:1045EC00311600089115000841160008A1150008A5
:0C45FC0061170008111500088108000874
:08460800A4BFFF7F01000000C8
:104610000000002400000024000000000000000052
:104620001000002410000024000000000000000022
:1046300020000024200000240000000000000000F2
:040000050800040DDE
:00000001FF
