:020000040800F2
:10000000000800200D0400080F0400080F04000879
:100010000F0400080F0400080F0400080F04000874
:100020000F0400080F0400080F040008812B0008CB
:100030000F0400080F0400080F0400080F04000854
:100040000F0400080F0400080F0400080F04000844
:100050000F0400080F0400080F0400080F04000834
:100060000F0400080F0400080F040008511C0008CA
:10007000F11C0008911D0008311E0008D11E000867
:10008000711F0008112000080F0400083117000834
:100090000F0400080F0400080F0400080F040008F4
:1000A0000F0400080F0400080F0400080F040008E4
:1000B000B11A00080F0400080F0400080F0400081C
:1000C0000F0400080F0400080F0400085126000860
:1000D0000F0400080F0400080F040008611800084E
:1000E0000F0400080F0400080F0400080F040008A4
:1000F0000F0400080F0400080F040008B1200008D6
:100100000F0400080F0400080F0400080F04000883
:100110000F0400080F0400080F0400080F04000873
:1001200051210008F1210008912200083123000824
:10013000D12300080F0400080F0400080F04000872
:100140000F0400080F0400080F0400080F04000843
:100150007124000811250008B12500080F040008CB
:100160000F0400080F0400080F0400080F04000823
:100170000F0400080F0400080F0400080F04000813
:100180000F0400080F0400080F0400080F04000803
:10019000F12600080F0400080F0400080F040008EF
:1001A0000F0400080F0400080F0400080F040008E3
:1001B0000F0400080F0400080F0400080F040008D3
:1001C0000F0400080F0400080F0400080F040008C3
:1001D0000F0400080F0400080F0400080F040008B3
:1001E0000F0400080F0400080F0400080F040008A3
:1001F0000F0400080F0400080F0400080F04000893
:100200000F0400080F0400080F0400080F04000882
:100210000F0400080F0400080F0400080F04000872
:100220000F0400080F0400080F0400080F04000862
:100230000F0400080F0400080F0400080F04000852
:100240000F0400080F0400080F0400080F04000842
:100250000F0400080F0400080F0400080F04000832
:100260000F0400080F0400080F0400080F04000822
:100270000F0400080F0400080F0400080F04000812
:100280000F0400080F0400080F0400080F04000802
:100290000F0400080F0400080F0400080F040008F2
:1002A0000F0400080F0400080F0400080F040008E2
:1002B0000F0400080F0400080F0400080F040008D2
:1002C0000F0400080F0400080F0400080F040008C2
:1002D0000F0400080F0400080F0400080F040008B2
:0402E000A131000840
:1002F00072B6374880F30888364880F30988364854
:100300003649086040F20000CCF200004EF634712D
:10031000CEF200010860BFF34F8FBFF36F8F40F242
:100320000000C0F2F0004EF68851CEF200010860E5
:10033000BFF34F8FBFF36F8F4FF00000E1EE100A55
:100340004EF63C71CEF200010860062080F314885E
:10035000BFF36F8F01F02CF901F06AF94FF05530BF
:100360001F491B4A91423CBF41F8040BFAE71D4963
:10037000184A91423CBF41F8040BFAE71A491B4A5C
:100380001B4B9A423EBF51F8040B42F8040BF8E7AE
:1003900000201849184A91423CBF41F8040BFAE783
:1003A00001F05EF901F04CF9144C154DAC4203DA42
:1003B00054F8041B8847F9E702F0F2FB114C124D88
:1003C000AC4203DA54F8041B8847F9E701F040B95E
:1003D00000080020001000200000000808ED00E0E8
:1003E00000000020000800204C3600080000002417
:1003F000300000243000002414460024E0020008ED
:10040000E4020008E4020008E402000870E700F0DB
:1004100000F8FEE72DE9F04F2DED108AC1F80CD061
:10042000D0F80CD0BDEC108ABDE8F08F002383F328
:1004300011882846A047002002F072FBFEE702F078
:10044000A7F900DFFEE70000844641EA000313F04D
:1004500003036DD1403A41D351F8043B40F8043BCB
:1004600051F8043B40F8043B51F8043B40F8043B8E
:1004700051F8043B40F8043B51F8043B40F8043B7E
:1004800051F8043B40F8043B51F8043B40F8043B6E
:1004900051F8043B40F8043B51F8043B40F8043B5E
:1004A00051F8043B40F8043B51F8043B40F8043B4E
:1004B00051F8043B40F8043B51F8043B40F8043B3E
:1004C00051F8043B40F8043B51F8043B40F8043B2E
:1004D00051F8043B40F8043B403ABDD2303211D3CE
:1004E00051F8043B40F8043B51F8043B40F8043B0E
:1004F00051F8043B40F8043B51F8043B40F8043BFE
:10050000103AEDD20C3205D351F8043B40F8043BCD
:10051000043AF9D2043208D0D2071CBF11F8013BCB
:1005200000F8013B01D30B8803806046704700BF91
:10053000082A13D38B078DD010F003038AD0C3F1A0
:100540000403D21ADB071CBF11F8013B00F8013B82
:1005500080D331F8023B20F8023B7BE7043AD9D341
:10056000013A11F8013B00F8013BF9D20B78037016
:100570004B7843708B7883706046704753B94AB9A3
:10058000002908BF00281CBF4FF0FF314FF0FF309B
:1005900000F074B9ADF1080C6DE904CE00F006F876
:1005A000DDF804E0DDE9022304B070472DE9F047EF
:1005B000089D04468E46002B4DD18A42944669D947
:1005C000B2FA82F252B101FA02F3C2F1200120FA2A
:1005D00001F10CFA02FC41EA030E94404FEA1C4878
:1005E000210CBEFBF8F61FFA8CF708FB16E341EA74
:1005F000034306FB07F199420AD91CEB030306F1FA
:10060000FF3080F01F81994240F21C81023E63441A
:100610005B1AA4B2B3FBF8F008FB103344EA0344BE
:1006200000FB07F7A7420AD91CEB040400F1FF33D3
:1006300080F00A81A74240F207816444023840EA10
:100640000640E41B00261DB1D4400023C5E9004349
:100650003146BDE8F0878B4209D9002D00F0EF80CC
:100660000026C5E9000130463146BDE8F087B3FAFF
:1006700083F6002E4AD18B4202D3824200F2F980E7
:10068000841A61EB030301209E46002DE0D0C5E9EA
:10069000004EDDE702B9FFDEB2FA82F2002A40F036
:1006A0009280A1EB0C014FEA1C471FFA8CFE012639
:1006B000200CB1FBF7F307FB131140EA01410EFBDD
:1006C00003F0884208D91CEB010103F1FF3802D284
:1006D000884200F2CB804346091AA4B2B1FBF7F07E
:1006E00007FB101144EA01440EFB00FEA64508D9A1
:1006F0001CEB040400F1FF3102D2A64500F2BB80DE
:100700000846A4EB0E0440EA03409CE7C6F120072C
:10071000B34022FA07FC4CEA030C20FA07F401FA72
:1007200006F31C43F9404FEA1C4900FA06F3B1FBFB
:10073000F9F8200C1FFA8CFE09FB181140EA014160
:1007400008FB0EF0884202FA06F20BD91CEB0101FD
:1007500008F1FF3A80F08880884240F28580A8F155
:1007600002086144091AA4B2B1FBF9F009FB1011A7
:1007700044EA014100FB0EFE8E4508D91CEB010145
:1007800000F1FF346CD28E456AD90238614440EAE8
:100790000840A0FB0294A1EB0E01A142C846A64668
:1007A00056D353D05DB1B3EB080261EB0E0101FAF1
:1007B00007F722FA06F3F1401F43C5E9007100264E
:1007C0003146BDE8F087C2F12003D8400CFA02FCA4
:1007D00021FA03F3914001434FEA1C471FFA8CFEB4
:1007E000B3FBF7F007FB10360B0C43EA064300FBA4
:1007F0000EF69E4204FA02F408D91CEB030300F142
:10080000FF382FD29E422DD9023863449B1B89B2F8
:10081000B3FBF7F607FB163341EA034106FB0EF381
:100820008B4208D91CEB010106F1FF3816D28B422E
:1008300014D9023E6144C91A46EA004638E72E46FA
:10084000284605E70646E3E61846F8E64B45A9D2F2
:10085000B9EB020864EB0C0E0138A3E74646EAE761
:10086000204694E74046D1E7D0467BE7023B61440F
:1008700032E7304609E76444023842E7704700BF78
:10088000012914BF6FF01300002070470000000022
:10089000024A136843F0C0031360704700480040E9
:1008A000FEE700BF000000000000000000000000A4
:1008B000014B5B6883607047001000E0000000009F
:1008C0000E4A0F4B81685B6810B4946802691B1B69
:1008D000C4685B1A41690134D218026141F1000118
:1008E000426841619342026888BF43609342C0E915
:1008F000023438BF03605DF8044B7047484500245C
:10090000001000E0000000000000000000000000F7
:10091000302310B483F311880C4B49425C68201AD1
:1009200008401968821A8A4208D3944206D35A6052
:10093000002383F311885DF8044B704700200023E7
:1009400083F311885DF8044B704700BF40450024D5
:10095000064B49425A68101A08401968884203D366
:10096000824201D358607047002070474045002400
:100970004FF080424A4B0021526A10B5044642F2C1
:100980000F702DED028BE2FB0301002342F2107287
:10099000B0EE408AFFF7F2FD94F82030002B6ED0C5
:1009A000636ADFED406AC31A9FED3F7A07EE903A23
:1009B000F8EE677A67EEA67AF4EEC77AF1EE10FAEF
:1009C0004DDCD4ED016A94ED057A68EE266A94ED6B
:1009D000036A6062B1EE460AA6EEA77AB4EEC07A68
:1009E000F1EE10FA05D4B4EEC67AF1EE10FA36FE46
:1009F000070AF5EEC07A94ED007A84ED050AA7EEB9
:100A0000080AF1EE10FA25DD94ED045AB7EE003B2A
:100A1000D4ED066AB7EEC55A94ED077A78EE666AA9
:100A200094ED024A9FED1C2BC6EEA74A25EE025B11
:100A300083EE056B74EEC75AB7EEC66B36EE276AC7
:100A4000C7EE866AF0EE477AE5EEA67AA7EE840A4C
:100A5000C4ED077A84ED068ABDEC028B10BD94EDDF
:100A6000000A0023012284ED068A28EE000A606253
:100A70006361E36184F82020BDEC028B10BD94ED2E
:100A8000000A012384ED068A28EE000A606284F8D9
:100A90002030BDEC028B10BD182D4454FB211940B1
:100AA00040420F00BD378635CDCC4C3E00000000E3
:100AB0000C4A4FF08041D2F88C3002F50960496A47
:100AC00010B4094C59601968646864F31F2143F835
:100AD000101B83425DF8044B28BF02F19003C2F85B
:100AE0008C307047683A0024001000E000000000DD
:100AF000124BB3F88820D20710B504460FD5002258
:100B0000A369A16884F824201B689A688A42FBD8EC
:100B10005A6820462360626014605C6010BD90F8E3
:100B20002420D3F88C10D300806A43F00103C1E97C
:100B300002400B70FFF7BCFFE1E700BF683A0024FA
:100B4000114BB3F88820D20710B504460ED5002209
:100B5000A369A16884F824201B689A688A42FBD2A2
:100B60005A68C4E9003214605C6010BD90F824201B
:100B7000D3F88C10D300806A43F00103C1E902402E
:100B80000B70FFF795FFE2E7683A002400000000D1
:100B9000F8B50468A04221D007460D46002604E0BF
:100BA0000B291CD02468A74218D0E3682B43E360CC
:100BB00015B123691D42F5D0D4E90102836B90F889
:100BC00024101A430A298263EAD1816A0A42E9D0D1
:100BD0008662FFF7B5FF2468A742E6D1F8BD816AB7
:100BE00031EA0203DED1F3E700000000000000005C
:100BF00010B530230C4683F3118891F824300C2B68
:100C000010D8DFE803F02D0F0F290B070F0B0F0F84
:100C10000F0F0B00896A8A6801328A60D4E90021CB
:100C20000A60516016494FF0FF32B1F88800A262A5
:100C3000C00719D50022A369A16884F824201B6885
:100C40009A688A42FBD25A6800212360626014606D
:100C50005C6081F3118810BD8A6A00211160E1E7B0
:100C6000002383F3118810BDDB00D1F88C1043F012
:100C70000103C1E902420B70FFF71AFFDAE700BF78
:100C8000683A00240000000000000000000000009E
:100C9000F8B50468A04229D00546154F00260FE09C
:100CA000A369A16884F824601B689A688A42FBD211
:100CB0005A68C4E9003214605C602C68AC4215D0FC
:100CC000B7F88830226813F001032A605560A662E5
:100CD000E6D194F82420D7F88C10D200C1E9024361
:100CE00042F001030B70FFF7E3FED9E7F8BD00BF48
:100CF000683A00240000000000000000000000002E
:100D0000164B022A30B403F11004D961826038BF57
:100D1000022244601C69046060608C1818614FF006
:100D200080404463002404610224C460456AA5EB4A
:100D3000010C624503D930BC704729461546013481
:100D400021444163426A511BA142F6D2022CF2D9DE
:100D50005A6B42F0010230BC5A637047683A002473
:100D600038B5144B01211C68DD6885F82400226821
:100D7000536084F82410B3F888101A608A07DC6086
:100D800005D529462046BDE83840FFF743BB95F816
:100D90002420D3F88C10D300A86A43F00203C1E9E1
:100DA00002400B70FFF784FE29462046BDE838401C
:100DB000FFF730BB683A002400000000000000008C
:100DC0002DE9F0414B1C554D86B0D5F80C8063D011
:100DD0002F46534B06464FF0804E57F8100FCDE983
:100DE0000338B8424FF000030593DEF824C000F04A
:100DF0008580EB698468ACEB0303CB1828BF0B46F6
:100E00009C4223D902290A4638BF02220CEB020178
:100E1000CEF83410DEF82410A1EB0C0C624515D886
:100E20000222013202EB010CCEF834C0DEF824C0FD
:100E3000ACEB010191426CD2022A07D96A6B42F0F5
:100E400001026A6302E000681B1B84689C42FAD3BB
:100E500002936C4682680090D31A42680192146033
:100E6000C0E901434FF0FF33AB613046FFF778FF35
:100E7000009B63B12A69A24215D09A68DDE901108E
:100E800002440B60C3E901124FF0FF33AB61D8F8A5
:100E9000280006B0BDE8F081FFF762FFD8F828000F
:100EA00006B0BDE8F0810022BB422B6100925F607A
:100EB0002BD09A684FF0804002990A449A60EB69FF
:100EC000416ACC1AA242E2D95B1A1344022B38BF02
:100ED0000223CA184263426A511A9942D7D30223A5
:100EE0000133D1184163416A8A1A9A4213D2022B04
:100EF000CDD96B6B43F001036B63C8E76C460A46C0
:100F000061462046FFF7FCFEAFE74FF08043DA6012
:100F1000BDE7614685E70A46E2E700BF683A00247C
:100F2000F10B0008000000000000000000000000BD
:100F30002DE9F04F83B09946C7694FF0300A01920E
:100F40008AF3118892B304460E46DDF804B0A26815
:100F5000934532D9A568D4E90420A2EB0008A8453E
:100F600032D856D2A5EB0803424631460093FFF72C
:100F70006BFA06EB0801DDF80080E0684246FFF7F7
:100F800063FAE26842446261A268521BA2603DB308
:100F90000FB12046B847002383F31188ABEB050B54
:100FA0002E448AF31188BBF1000FD0D101980023A1
:100FB00083F3118803B0BDE8F08FD4E904205D46C7
:100FC000A2EB0008A845CCD92A463146FFF73CFAE7
:100FD00062692A446261A268521BA260002DD7D1C7
:100FE0000F4BDA68B9F1000F0AD061680420C2E93A
:100FF00000410A6049466260FFF7E2FE0028A6D081
:10100000019BA3EB0B00002383F3118803B0BDE821
:10101000F08F2A463146FFF717FAE2686261B3E7BC
:10102000683A0024000000000000000000000000FA
:101030004FF0FF333030FFF77BBF00BF00000000F0
:101040003030FFF775BF00BF000000000000000057
:1010500070B5302304460D4683F31188164E08E020
:101060006268C3E9004213606360FFF7A9FE0028CD
:1010700008DBA3682946042043B9F368002DEFD1AB
:101080004FF0FF30002383F3118870BDA368A1697E
:10109000013B4A1CA3602369A2619A420D7801D3E7
:1010A000E368A361E3690BB120469847002383F30B
:1010B0001188284670BD00BF683A00240000000077
:1010C0004FF0FF310C30FFF7C3BF00BF000000003E
:1010D0000C30FFF7BDBF00BF0000000000000000A3
:1010E0002DE9F04F83B09946C7694FF0300A01925D
:1010F0008AF3118892B304460E46DDF804B0A26864
:10110000934532D9A1692269A568A2EB0108A845D7
:1011100032D856D2A5EB0803424630460093FFF77B
:1011200093F906EB0800DDF80080E1684246FFF71E
:101130008BF9E2684244A261A268521BA2603DB3EF
:101140000FB12046B847002383F31188ABEB050BA2
:101150002E448AF31188BBF1000FD0D101980023EF
:1011600083F3118803B0BDE8F08FA1695D46226961
:10117000A2EB0108A845CCD92A463046FFF764F90E
:10118000A2692A44A261A268521BA260002DD7D195
:101190000F4BDA68B9F1000F0AD061680420C2E988
:1011A00000410A6049466260FFF70AFE0028A6D0A7
:1011B000019BA3EB0B00002383F3118803B0BDE870
:1011C000F08F2A463046FFF73FF9E268A261B3E7A5
:1011D000683A002400000000000000000000000049
:1011E0004FF0FF330C30FFF77BBF00BF0000000063
:1011F0000C30FFF775BF00BF0000000000000000CA
:101200002DE9F041302304460F46164683F311883A
:10121000DFF8608008E06568C3E900452B60636023
:10122000FFF7CEFD002809DBA3683146042053B93F
:10123000D8F80C30002EEED14FF0FF30002383F3AE
:101240001188BDE8F0816269A368511C013B6161AE
:10125000A3601770D4E904329A4201D3E368636152
:10126000E3690BB120469847002080F31188BDE860
:10127000F08100BF683A0024000000000000000078
:101280004FF0FF323030FFF7BBBF00BF000000005F
:101290003030FFF7B5BF00BF0000000000000000C5
:1012A00008B50F4B30260F4ADB68DA6186F31188E8
:1012B0004FF0804500226B6A82F3118803F10A0423
:1012C00086F31188696A0820CB1A611A092B01D8A4
:1012D000FFF776FD002383F311882346EEE700BF76
:1012E000683A0024243300080000000000000000D9
:1012F00008B50F4B30260F4ADB68DA6186F3118898
:101300004FF0804500226B6A82F3118803F10A04D2
:1013100086F31188696A0820CB1A611A092B01D853
:10132000FFF74EFD002383F311882346EEE700BF4D
:10133000683A002428330008000000000000000084
:101340000F4B104ADB6870B53026DA6186F31188DE
:101350004FF0804500226B6A82F3118803F1640428
:1013600086F31188696A0820CB1A611A632B01D8A9
:10137000FFF726FD002383F311882346EEE700BF25
:10138000683A00242C330008000000000000000030
:1013900008B50A4B30250A4ADB680A4CDA616369F2
:1013A00083F00103636185F311884FF4FA6108202B
:1013B000FFF706FD002383F31188F0E7683A002465
:1013C0003033000800040258000000000000000054
:1013D00070B52F4B04468068DD6830B3AA68836817
:1013E000934207D290F824308260062B36D0072B28
:1013F00020D09BB1234603E09968AA68914202D3AA
:101400001B689C42F8D15A6806202B606A60156000
:101410005D60AC62BDE87040FFF7A2BCD0E900326D
:1014200013605A60FFF78CFBE4E7EB6BC4E90253EF
:10143000EC6370BD866AD0E9003213605A603346AF
:1014400003E099688268914202D31B689E42F8D1FA
:101450005A68C0E9003210605860CBE7866AD0E96C
:10146000003213605A60334603E099688268914203
:1014700002D31B689E42F8D15A6803604260106034
:101480005860B068AA6883689342ABD3B2E700BFE4
:10149000683A002400000000000000000000000086
:1014A000F8B5302484F3118848392A4F01264418AE
:1014B0002949A4F16405A26022640222E560274D57
:1014C000A28404F1300284F82660206244F8243CAF
:1014D0000023E86A44F8041C04F11001E76105F1F7
:1014E0002807606144F8203C2761E363A561A3639A
:1014F0000160E962E868A36204F12C03C4E90C22EC
:10150000E362A26883689A421FD9FFF7F1FA84F870
:101510002460B5F888300646EC609B0707D5314655
:101520002046FEF777FF002383F31188F8BD90F87B
:101530002430816ADB00D5F88C2043F00203C2E935
:1015400002411370FFF7B4FAE9E72046FFF7F8FA13
:10155000E9E700BF383300082D040008683A00248A
:1015600010B4F1EE103AEFF309834FF080710A4A9C
:10157000683BD961D26B1A6683F309880749084A28
:101580000C68C968A468896806488C4288BF02460E
:101590005DF8044B9A61704700EF00E0683A002460
:1015A000420400083F0400080000000000000000A2
:1015B00010B5BFF34F8FBFF36F8F1C480022C0F8E8
:1015C0005022BFF34F8FBFF36F8F436943F4003353
:1015D0004361BFF34F8FBFF36F8FC0F88420BFF319
:1015E0004F8FD0F8803043F6E074C3F34E3CC3F322
:1015F000C90E4FEA4C1C0CEA0401734641EA83729F
:10160000013BC0F860225A1CF8D1ACF1200C1CF14F
:10161000200FF0D1BFF34F8F436943F48033436110
:10162000BFF34F8FBFF36F8F10BD00BF00ED00E021
:10163000704700BF00000000000000000000000034
:10164000704700BF00000000000000000000000024
:10165000FEE700BF000000000000000000000000E6
:10166000F8B52B4D2B4F2C4905F170042B482C4A13
:1016700088420DD2043A034652F8046F43F8046BD3
:101680008B42F9D34B1E1B1A23F003030433184477
:10169000B84207D2013F00213F1A27F0030204326B
:1016A00001F0EEFDA54205D0D5E90420D5E90617E5
:1016B0001035DDE71B480023C0F88430BFF34F8F9F
:1016C000D0F8805043F6E076C5F34E34C5F3C90533
:1016D000640104EA06012B4641EA8372013BC0F82B
:1016E0006C225A1CF8D1203C14F1200FF1D1BFF329
:1016F0004F8FBFF36F8FBFF34F8FBFF36F8F0023F9
:10170000C0F85032BFF34F8FBFF36F8FF8BD00BFEB
:101710009C35000814460024144600241446002476
:101720007C36000800ED00E0000000000000000032
:1017300070B5414DB5F8883013F004041CD03F4E0D
:10174000F36A1C6DE1071C655ED4E20649D414F00F
:10175000880F3BD1A3052BD4B5F8883013F00404CF
:1017600018D0302383F31188354B5B6813F4006382
:101770005ED183F3118870BD302383F31188032178
:10178000D5F88C302F4A19709A60FFF791F984F3DD
:101790001188D4E7302383F311880421D5F88C30E5
:1017A000284A19709A60FFF783F984F31188D8E703
:1017B000302383F311882448FFF76AFA0121234874
:1017C000FFF7E6F9002383F31188C5E7302383F39D
:1017D000118810211E48FFF7DBF9002383F31188DD
:1017E000B8E7F26A3021536D23F01003536581F39B
:1017F00011881848FFF74CFA02211748FFF7C8F97B
:10180000002383F31188A2E75A6D22F001025A6582
:10181000302383F3118806F11000FFF739FA012114
:1018200006F11800FFF7B4F9002383F311888CE761
:10183000BDE87040FFF794BE683A002430000024F1
:1018400000ED00E0F0330008380000244C000024D4
:101850005000002440000024480000240000000044
:101860002DE9F84FDFF83C92B9F8883013F0040402
:1018700000F0E280864CD4F854B0DBF800A0DBF82E
:101880001C502B07CBF8205040F0BA80E90500F13E
:10189000AB80AA0645D5DFF80082002608F10807CC
:1018A0001EE0D4E9083293422DD06269591C0132FE
:1018B000216262611D70D4E907329A4201D3A369A3
:1018C0002362E068B84205D00368E3605F60866227
:1018D000FFF736F986F31188DBF81C50AB0620D5EC
:1018E000302383F31188DBF8242094F85C5063697B
:1018F0001540002BD5D104214046FFF749F9D4E922
:1019000008329342D1D16269002ACED04FF40061EF
:101910004046FFF73DF986F31188DBF81C50AB0613
:10192000DED41AF0800F37D0280635D54FF03008B6
:10193000584E00271CE0A16B581C226C0131A0649A
:101940009042A1631D7801D3E36BA364236BB34280
:10195000184605D01A68226356609F62FFF7F0F8B8
:10196000CBF8285087F31188DBF81C502B0613D5D1
:1019700088F31188D4E911239A42DCD1A26B002AA2
:10198000D9D008214448FFF703F92AF08003CBF8A7
:101990000030002383F311881AF0400F01D069064C
:1019A00017D4EA0604D5226E13690BB15069984723
:1019B000B9F8883013F004044CD0302383F3118835
:1019C000364B5B6813F4006352D183F31188BDE892
:1019D000F88F302383F31188D4E911239A424BD036
:1019E000002383F31188DCE7302383F311884FF45D
:1019F00080612948FFF7CCF8002383F3118848E77A
:101A000015F008014FF0300318BF4FF48071EF0755
:101A100048BF41F02001AE0748BF41F040016807D0
:101A200048BF41F0800183F311881B48FFF7B0F8ED
:101A3000002383F3118829E7302383F311880321DE
:101A4000D9F88C30164A19709A60FFF731F884F390
:101A500011880FE7302383F311880421D9F88C30E3
:101A60000F4A19709A60FFF723F884F31188A4E7EE
:101A7000BDE8F84FFFF774BDA36B002BB0D0102169
:101A80000548FFF785F82AF04003CBF80030A7E7B8
:101A900064000024940000246800002400ED00E0AD
:101AA00084330008683A00240000000000000000B1
:101AB0002DE9F0475F4DB5F8883013F004041BD0D2
:101AC0004FF080463369F2681340DAB29B076FEA41
:101AD000020232612CD4B5F8883013F0040419D016
:101AE000302383F31188544B5B6813F4006379D17E
:101AF00083F31188BDE8F087302383F31188032135
:101B0000D5F88C304D4A19709A60FEF7D1FF84F3F6
:101B10001188D5E7302383F311880421D5F88C3060
:101B2000464A19709A60FEF7C3FF84F31188D7E71D
:101B3000302383F31188424F4FF000094FF03008F3
:101B400009E089F31188D4E903312046984788F3E6
:101B500011886369B3B9EB69716A2C69C81AA26804
:101B6000904203EB020A2AD3D4E90032C5F81CA044
:101B700013605A60C4F800902B69BB42E1D1C6F8EB
:101B80000C90DEE7716AA1EB0A0083422ED32A692A
:101B9000BA4245D091688B4204D912685B1A9168A9
:101BA0009942FAD3A36091682260CB1A51686160B0
:101BB0000C60C2E901434FF0FF33AB61BEE7BC42AA
:101BC0000CD01344E9615B1A022BA36038BF0223D7
:101BD000CA187263726A511A8B4210D9002383F3B8
:101BE000118878E7BDE8F047FFF7BABC6B6B2A694C
:101BF00043F00203BA426B6318D00346CAE70223DC
:101C00004FF080410133D0184863486A821A9A42E3
:101C10000ED2022BE2D96B6B43F001036B63DDE75D
:101C200053445A1A2046FFF76BF8D7E70022F9E72A
:101C30000246E7E7683A002400ED00E06033000860
:101C4000783A0024000000000000000000000000BE
:101C500038B5204DB5F8883013F0040419D01E4B68
:101C60001E481968426801F03D0199600AB1806818
:101C70009047B5F8883013F0040418D0302383F36C
:101C80001188174B5B6813F400631ED183F311882E
:101C900038BD302383F311880321D5F88C30114AE5
:101CA00019709A60FEF704FF84F31188D7E7302398
:101CB00083F311880421D5F88C300A4A19709A6090
:101CC000FEF7F6FE84F31188D8E7BDE83840FFF749
:101CD00047BC00BF683A0024000002407045002461
:101CE00000ED00E0E4330008000000000000000008
:101CF00038B5214DB5F8883013F004041BD01F4BC4
:101D00001F4A1968890901F03D0188019860D3686C
:101D10000BB110699847B5F8883013F0040418D057
:101D2000302383F31188174B5B6813F400631ED1D3
:101D300083F3118838BD302383F311880321D5F84C
:101D40008C30114A19709A60FEF7B2FE84F3118844
:101D5000D5E7302383F311880421D5F88C300A4A63
:101D600019709A60FEF7A4FE84F31188D8E7BDE8E5
:101D70003840FFF7F5BB00BF683A0024000002407E
:101D80007045002400ED00E0D8330008000000009A
:101D900038B5214DB5F8883013F004041BD01F4B23
:101DA0001F4A1968090C01F03D0108049860536945
:101DB0000BB190699847B5F8883013F0040418D037
:101DC000302383F31188174B5B6813F400631ED133
:101DD00083F3118838BD302383F311880321D5F8AC
:101DE0008C30114A19709A60FEF762FE84F31188F4
:101DF000D5E7302383F311880421D5F88C300A4AC3
:101E000019709A60FEF754FE84F31188D8E7BDE894
:101E10003840FFF7A5BB00BF683A0024000002402D
:101E20007045002400ED00E0CC3300080000000005
:101E300038B5214DB5F8883013F004041BD01F4B82
:101E40001F4A1968890D01F03D0188059860D36922
:101E50000BB1106A9847B5F8883013F0040418D015
:101E6000302383F31188174B5B6813F400631ED192
:101E700083F3118838BD302383F311880321D5F80B
:101E80008C30114A19709A60FEF712FE84F31188A3
:101E9000D5E7302383F311880421D5F88C300A4A22
:101EA00019709A60FEF704FE84F31188D8E7BDE844
:101EB0003840FFF755BB00BF683A002400000240DD
:101EC0007045002400ED00E0C03300080000000071
:101ED00038B5204DB5F8883013F0040419D01E4BE6
:101EE0001E485968426A01F03D01D9600AB1806A12
:101EF0009047B5F8883013F0040418D0302383F3EA
:101F00001188174B5B6813F400631ED183F31188AB
:101F100038BD302383F311880321D5F88C30114A62
:101F200019709A60FEF7C4FD84F31188D7E7302357
:101F300083F311880421D5F88C300A4A19709A600D
:101F4000FEF7B6FD84F31188D8E7BDE83840FFF707
:101F500007BB00BF683A002400000240704500241F
:101F600000ED00E0B43300080000000000000000B5
:101F700038B5214DB5F8883013F004041BD01F4B41
:101F80001F4A5968890901F03D018801D860D36A68
:101F90000BB1106B9847B5F8883013F0040418D0D3
:101FA000302383F31188174B5B6813F400631ED151
:101FB00083F3118838BD302383F311880321D5F8CA
:101FC0008C30114A19709A60FEF772FD84F3118803
:101FD000D5E7302383F311880421D5F88C300A4AE1
:101FE00019709A60FEF764FD84F31188D8E7BDE8A4
:101FF0003840FFF7B5BA00BF683A0024000002403D
:102000007045002400ED00E0A83300080000000047
:1020100038B5214DB5F8883013F004041BD01F4BA0
:102020001F4A5968090C01F03D010804D860536B40
:102030000BB1906B9847B5F8883013F0040418D0B2
:10204000302383F31188174B5B6813F400631ED1B0
:1020500083F3118838BD302383F311880321D5F829
:102060008C30114A19709A60FEF722FD84F31188B2
:10207000D5E7302383F311880421D5F88C300A4A40
:1020800019709A60FEF714FD84F31188D8E7BDE853
:102090003840FFF765BA00BF683A002400000240EC
:1020A0007045002400ED00E05034000800000000FE
:1020B00038B5214DB5F8883013F004041BD01F4B00
:1020C0001F4A5968890D01F03D018805D860D36B1E
:1020D0000BB1106C9847B5F8883013F0040418D091
:1020E000302383F31188174B5B6813F400631ED110
:1020F00083F3118838BD302383F311880321D5F889
:102100008C30114A19709A60FEF7D2FC84F3118862
:10211000D5E7302383F311880421D5F88C300A4A9F
:1021200019709A60FEF7C4FC84F31188D8E7BDE803
:102130003840FFF715BA00BF683A0024000002409B
:102140007045002400ED00E0443400080000000069
:1021500038B5204DB5F8883013F0040419D01E4B63
:102160001E481968426C01F03D0199600AB1806C0B
:102170009047B5F8883013F0040418D0302383F367
:102180001188174B5B6813F400631ED183F3118829
:1021900038BD302383F311880321D5F88C30114AE0
:1021A00019709A60FEF784FC84F31188D7E7302316
:1021B00083F311880421D5F88C300A4A19709A608B
:1021C000FEF776FC84F31188D8E7BDE83840FFF7C6
:1021D000C7B900BF683A00240004024070450024DB
:1021E00000ED00E0383400080000000000000000AE
:1021F00038B5214DB5F8883013F004041BD01F4BBF
:102200001F4A1968890901F03D0188019860D36C63
:102210000BB1106D9847B5F8883013F0040418D04E
:10222000302383F31188174B5B6813F400631ED1CE
:1022300083F3118838BD302383F311880321D5F847
:102240008C30114A19709A60FEF732FC84F31188C1
:10225000D5E7302383F311880421D5F88C300A4A5E
:1022600019709A60FEF724FC84F31188D8E7BDE862
:102270003840FFF775B900BF683A002400040240F7
:102280007045002400ED00E02C3400080000000040
:1022900038B5214DB5F8883013F004041BD01F4B1E
:1022A0001F4A1968090C01F03D0108049860536D3C
:1022B0000BB1906D9847B5F8883013F0040418D02E
:1022C000302383F31188174B5B6813F400631ED12E
:1022D00083F3118838BD302383F311880321D5F8A7
:1022E0008C30114A19709A60FEF7E2FB84F3118872
:1022F000D5E7302383F311880421D5F88C300A4ABE
:1023000019709A60FEF7D4FB84F31188D8E7BDE812
:102310003840FFF725B900BF683A002400040240A6
:102320007045002400ED00E02034000800000000AB
:1023300038B5214DB5F8883013F004041BD01F4B7D
:102340001F4A1968890D01F03D0188059860D36D19
:102350000BB1106E9847B5F8883013F0040418D00C
:10236000302383F31188174B5B6813F400631ED18D
:1023700083F3118838BD302383F311880321D5F806
:102380008C30114A19709A60FEF792FB84F3118821
:10239000D5E7302383F311880421D5F88C300A4A1D
:1023A00019709A60FEF784FB84F31188D8E7BDE8C2
:1023B0003840FFF7D5B800BF683A00240004024057
:1023C0007045002400ED00E0143400080000000017
:1023D00038B5204DB5F8883013F0040419D01E4BE1
:1023E0001E485968426E01F03D01D9600AB1806E05
:1023F0009047B5F8883013F0040418D0302383F3E5
:102400001188174B5B6813F400631ED183F31188A6
:1024100038BD302383F311880321D5F88C30114A5D
:1024200019709A60FEF744FB84F31188D7E73023D4
:1024300083F311880421D5F88C300A4A19709A6008
:10244000FEF736FB84F31188D8E7BDE83840FFF784
:1024500087B800BF683A0024000402407045002499
:1024600000ED00E00834000800000000000000005B
:1024700038B5214DB5F8883013F004041BD01F4B3C
:102480001F4A5968890901F03D018801D860D36E5F
:102490000BB1106F9847B5F8883013F0040418D0CA
:1024A000302383F31188174B5B6813F400631ED14C
:1024B00083F3118838BD302383F311880321D5F8C5
:1024C0008C30114A19709A60FEF7F2FA84F3118881
:1024D000D5E7302383F311880421D5F88C300A4ADC
:1024E00019709A60FEF7E4FA84F31188D8E7BDE822
:1024F0003840FFF735B800BF683A002400040240B6
:102500007045002400ED00E0FC33000800000000EE
:1025100038B5214DB5F8883013F004041BD01F4B9B
:102520001F4A5968090C01F03D010804D860536F37
:102530000BB1906F9847B5F8883013F0040418D0A9
:10254000302383F31188174B5B6813F400631ED1AB
:1025500083F3118838BD302383F311880321D5F824
:102560008C30114A19709A60FEF7A2FA84F3118830
:10257000D5E7302383F311880421D5F88C300A4A3B
:1025800019709A60FEF794FA84F31188D8E7BDE8D1
:102590003840FEF7E5BF00BF683A0024000402405F
:1025A0007045002400ED00E09033000800000000BA
:1025B00038B5214DB5F8883013F004041CD01F4BFA
:1025C0001F4A5968890D01F03D018805D860D36F15
:1025D00013B1D2F880009847B5F8883013F004049E
:1025E00018D0302383F31188164B5B6813F4006313
:1025F0001ED183F3118838BD302383F31188032162
:10260000D5F88C30104A19709A60FEF751FA84F3AD
:102610001188D4E7302383F311880421D5F88C3056
:10262000094A19709A60FEF743FA84F31188D8E7D3
:10263000BDE83840FEF794BF683A00240004024029
:102640007045002400ED00E06C330008000000003D
:10265000F8B5204DB5F8883013F0040410D01E4BA7
:10266000DB695A6919690A409A61302383F311883A
:102670001A4B5B6813F4006327D183F31188F8BD0C
:10268000302787F311880322D5F88C30144E1A7046
:102690009E60FEF70DFA84F311880F4AB5F8883072
:1026A000D26913F004045169106901EA00019161D3
:1026B000DBD187F311880422D5F88C301A709E6024
:1026C000FEF7F6F984F31188CFE7BDE8F840FEF78E
:1026D00047BF00BF683A0024C800002400ED00E0B6
:1026E0009C33000800000000000000000000000013
:1026F000F8B5204DB5F8883013F0040410D01E4B07
:10270000DB695A6919690A409A61302383F3118899
:102710001A4B5B6813F4006327D183F31188F8BD6B
:10272000302787F311880322D5F88C30144E1A70A5
:102730009E60FEF7BDF984F311880F4AB5F8883022
:10274000D26913F004045169106901EA0001916132
:10275000DBD187F311880422D5F88C301A709E6083
:10276000FEF7A6F984F31188CFE7BDE8F840FEF73D
:10277000F7BE00BF683A0024F800002400ED00E036
:102780007833000800000000000000000000000096
:1027900070B5154C01222568E0682B685C6085F8EF
:1027A00024202360E560FEF7A3F9B4F888300646DC
:1027B0009B0705D531462846BDE87040FDF72ABE87
:1027C00090F82430816ADB00D4F88C2043F00203B7
:1027D000C2E902511370FEF76BF931462846BDE895
:1027E0007040FDF717BE00BF683A002400000000EB
:1027F00038B51A4D8368EC68A34200D038BD024654
:10280000302383F311880168C3688842E36322D0D0
:10281000206C4BB119688B4203D08968884238BF5D
:102820000846DB68002BF5D1A06010680368C16B17
:1028300013605A60C2E90201C263FEF781F92A6897
:10284000EB6892689B689A4201D9FFF7A1FF0023C9
:1028500083F3118838BD00238360F8E7683A0024C9
:102860002B4B2C4ADB682DE98048302783B0DA6196
:1028700087F311884FF0804300265D6A86F3118844
:10288000DFF894800024DFF894B0DFF894A0DFF83C
:10289000949087F311885846FEF79AFD86F31188C5
:1028A0005846FFF7A5FF87F311885046FEF790FDC5
:1028B00086F311885046FFF79BFF87F3118848463F
:1028C000FEF786FD86F3118805F114034846C8F823
:1028D0000040C8F80440C8F80840C8F80C40C8F8E0
:1028E0001040C8F814400193FFF782FF87F3118866
:1028F0004FF08042019B0820516A4D1B591A132D3D
:1029000001D8FEF75DFA86F31188019DC1E700BF8B
:10291000683A0024403300083C24002400000024CE
:10292000100000242000002400000000000000002F
:10293000374A3849D2682DE988483023D16183F37A
:1029400011884FF080434FF000085D6A88F31188CA
:10295000314CDFF8DC90314EDFF8D8B0302787F308
:1029600011883046FEF734FD88F31188D4ED008AD3
:102970003046D9ED01BA94ED018A99ED02BAD4ED51
:1029800003AA94ED04AA94ED059AD9ED039AFFF7F2
:102990002FFF3BEEE80A5846FDF7EAFF2048F0EE2D
:1029A000408A3BEE480AFDF7E3FFB0EE408A1D483F
:1029B00038EEEA0AFDF7DCFF1B4838EE4A0AFDF75D
:1029C000D7FFF7EE087AB0EE490A184899EEA70A41
:1029D000FDF7CEFF87F311883046FEF7F9FC88F348
:1029E0001188304605F1140AFFF702FF87F31188BA
:1029F0004FF080430820596A4D1BAAEB0101132DAB
:102A000001D8FEF7DDF988F311885546A6E700BF27
:102A1000683A0024443300083C24002420000024A9
:102A20000830002430300024583000248030002446
:102A30002C240024E02F00240000000000000000EF
:102A40002E4A2F49D2682DE988483023D16183F37B
:102A500011884FF0804300265F6A86F31188DFF803
:102A6000AC800025274CDFF8A8A04FF0300B8BF38B
:102A700011885046FEF7ACFC86F31188224B504675
:102A8000C8F8005007F1C809C8F80450C8F8085041
:102A9000C8F80C501E706561A561E56184F820607E
:102AA000E5632564656484F848606566A566E56647
:102AB00084F87060C4F88C50C4F89050C4F89450F6
:102AC00084F89860C4F8B450C4F8B850C4F8BC5046
:102AD00084F8C060FFF78CFE8BF311884FF08043C1
:102AE0000820596ACF1BA9EB0101C72F01D8FEF7B7
:102AF00067F986F311884F46B7E700BF683A0024AC
:102B00004C330008E02F0024282400242C24002427
:102B10002000002400000000000000000000000071
:102B200038B5302383F31188124BDC6804F12C058F
:102B3000E36AA0629D4207D194F8263083B10F204A
:102B4000BDE83840FEF70CB91A681846E262FDF796
:102B5000F7FFE36AAB42F7D194F82630002BEED1B1
:102B600094F825309B07EAD1D4E9043213605A6007
:102B7000E5E700BF683A0024000000000000000004
:102B8000EFF30983054968334A6B22F001024A6377
:102B900083F30988002383F31188704700EF00E076
:102BA000374B00214FF0FF30364CD3F88020364DA4
:102BB00062F000422DE98048C3F8802087B0D3F846
:102BC000802002F00042C3F88020D3F88020D3F8A0
:102BD0008420C3F88400D3F88420C3F88410D3F889
:102BE0008420DA6F2243294CDA67DA6F2240284CBE
:102BF000DA67DA6FD3F8882015430A46C3F888509D
:102C0000D3F88850C5F30A05C3F88850D3F8885024
:102C1000D3F89050C3F89000D3F89050C3F89010B8
:102C2000D3F89050D3F89450C3F89400D3F894504C
:102C3000C3F89410D3F89450D3F89850C3F8980080
:102C4000D3F89850C3F89810D3F89850D3F88C5014
:102C5000C3F88C00D3F88C50C3F88C10D3F88C5088
:102C6000D3F89C50C3F89C000A48D3F89C50C3F892
:102C70009C10094DD3F89C300B46216010E000BF3A
:102C800000440258FFEFFF7F00F8FFFF00100080B4
:102C900070450024100002405C34000855F83200F2
:102CA00004EB820102320360202A4B60F6D14FF020
:102CB000FF36C84AC8484FF0A00A9660D660C2F8EE
:102CC0000864C2F80C644FF4002280F813A3C0F823
:102CD000802102609022C14C80F87A234FF08062FC
:102CE000BF49C0F88C21C260702201F1180B01F1BC
:102CF000080980F81C234FF08052DFF864E3C0F825
:102D000080210260C022DFF85C8380F827238022C4
:102D1000DFF854C3C0F884214260D4F894504B606B
:102D200045F48075AF4AC4F8945002F10C07D4F80A
:102D3000945025F48075C4F89450D4F8945001252B
:102D4000C1F818B001F11C0B0D70C1F81CB001F1F5
:102D5000200BC1F820B001F1240BC1F824B001F11F
:102D6000280BC1E90299C1F828B001F11009DFF878
:102D7000FCB2C1E90499C1F82CB091465361C2F884
:102D80001880157212658EF80050CEF81430CEF807
:102D90002030C2E9037702F13007C2E90C77924F85
:102DA000D763C2E91177103717640EF10C07CEE92B
:102DB00003778E4F0F638E498E4F49F8041B102105
:102DC000C2F8049091638C49C2E90888D16408F183
:102DD00010088A49C2F81C80C2E91571C2E90A329A
:102DE000874A4FF00801874FCEF81C200822CEE911
:102DF0000133CEF8243080F823A3C0F88421426048
:102E00004FF480128CF8005080F854A3C0F8882149
:102E100082607D4ACCF814307C48CCE90133CCE99F
:102E200008331183D4F8E82079492A43C4F8E8200C
:102E3000D4F810212A43C4F81021D4F810214FF0FF
:102E40008042CEF828100424CCF82810C16B294306
:102E5000C16300206F49CEF82C10CCF82C100CF177
:102E60000C01CCE903116C49CCF81C1044F61F612D
:102E700091620021D66293615363D36053605561C0
:102E80007B601560BB603D7000960393CDE9013314
:102E9000CDE904016846FDF70BFDFDF711FD013C8E
:102EA000F8D15E4A30265E4B02F10C055D48546154
:102EB00000999C60B9605C615B49DC6279600C637D
:102EC000C2E903550425DD615D63584D1D629D63B4
:102ED000574D0560574D45605748C2E901441060A1
:102EE00003F110021A6114229A6103F124025A625A
:102EF00003F128029A621C221A6303F13C02DA638E
:102F000003F140021A6403F14402C3E900335A6436
:102F10004A4B8B6386F3118862B6494B4FF6FF0C20
:102F20004C63CC614748484AC1E90114DD6805EAB1
:102F30000C052843D860D3F8FC0040F08070C3F83B
:102F4000FC004248C2F8B00F106840F00100106069
:102F50002022DA774FF0FF3283F8226001F110036C
:102F60008A610960C1E904334FF08043586A2346FF
:102F70000246C1E90823364A01F19003C1F88440B2
:102F8000C1E9222301EB0413013493F89020802C33
:102F90006FF3020283F89020F4D12E4B00252E48C7
:102FA0008B652E4B4C6403F12402C0F8C8310B65CD
:102FB000C0F8CC218A620122C0F8D011C0F8C0212B
:102FC000C0F8F82180F8DE21A1F8602081F86220A5
:102FD0004EE000BF0000024000E100E00044025863
:102FE00030000024640000240446002400AC0040AB
:102FF0001C360008004800409108000800E1F50573
:103000000030014048450024001002580010005CC8
:103010001600010046000100003401405445002420
:10302000F844002440450024683A0024510900086F
:103030001846002400000824110900085C35000827
:1030400000ED00E00003FA05001000E055CEACC52D
:10305000FFFF800070350008F8420024903A0024F9
:10306000C8000024F4450024F800002400A000401B
:1030700003F144024D67CD654965C0F89851C0F829
:10308000D801C1E91E5403F140041433CB6000F5AC
:10309000AA738C660224C0F8C4312F4BA0F8DC411F
:1030A000C0F894312D4BC1E91B2200F5E472C0F841
:1030B000B43100F5F273CA64CA6200F5F4722849AB
:1030C000C0E97C55C0F8D411C0E97932C0F8EC21D0
:1030D00000F5DC70FDF734FD3C7085F31188214B61
:1030E0009E224FF41C612048FEF7DAF91F4B9C2208
:1030F0004FF41C611E483024FEF7D2F91D4B992273
:103100004FF41C611C48FEF7CBF91C4B96224FF480
:10311000B8611B48FEF7C4F91A4B94224FF41C61A6
:103120001948FEF7BDF9194B8A224FF4B8611848C7
:10313000FEF7B6F9174B7B224FF4B8611648FEF73D
:10314000AFF984F3118842F210710820FDF738FEC0
:10315000002383F31188F4E7A10800082D04000878
:1031600054330008A1120008681A0024F112000864
:10317000E80A0024612800082801002441130008FF
:10318000A814002431290008A8300024412A00088E
:10319000202A00249113000860240024000000006D
:1031A0002F4B00222F494FF07C5C2F48DFED2F7A08
:1031B00000B5DFF8C4E0196099622D49C3F854E006
:1031C000196599670021C3F87CE0DFF8B0E05A6028
:1031D0009A605A619A61DA61DA621A63DA631A6490
:1031E0005A645A669A66DA66C3F80CC01861C3F866
:1031F00034C09863C3F85CC0186683F82010596225
:1032000083F84810D96483F870105967C3F858E000
:10321000C3F88C20C3F89020C3F89420C3F8A820EA
:10322000C3F8B420C3F8B820C3F8BC20114AC3F8CF
:1032300080E0C3ED287AC3F884C0C3F8ACC0C3F8FB
:10324000880083F89810C3F89C10C3F8B00083F886
:10325000C010C3F8C410C3F8A4205DF804FB00BF7D
:10326000E02F0024000090400000F041CDCCCC3D88
:10327000AE47E13D0AD7A33CEC51B83DA69B443B89
:10328000830730B548D0541E002A3FD0CAB2034647
:1032900001E0013C3AD303F8012B9D07F9D1032C3F
:1032A0002DD9CDB245EA05250F2C45EA054536D97D
:1032B000A4F1100222F00F0C03F1200EE6444FEAB5
:1032C000121C03F1100242E9045542E90255103282
:1032D0007245F8D10CF1010214F00C0F03EB02124D
:1032E00004F00F0C13D0ACF1040323F003030433F8
:1032F000134442F8045B9342FBD10CF003042CB15D
:10330000CAB21C4403F8012B9C42FBD130BD644679
:103310001346002CF4D1F9E703461446BFE71A46DA
:04332000A446E0E7F8
:103324007370690063616E0069326300686F75735E
:10333400650000006E6F6E616D650000657374005A
:103344006374726C00000000726164696F000000B5
:1033540069646C65000000006330000056656374A6
:103364006F72423000000000566563746F7231352D
:1033740038000000566563746F7231393000000004
:10338400566563746F7244430000000056656374AD
:103394006F72313534000000566563746F724343B5
:1033A40000000000566563746F723830000000003E
:1033B400566563746F72374300000000566563748A
:1033C4006F72373800000000566563746F723734CB
:1033D40000000000566563746F723730000000000F
:1033E400566563746F72364300000000566563745B
:1033F4006F72384300000000566563746F72313594
:1034040030000000566563746F7231333000000081
:10341400566563746F7231324300000056656374FD
:103424006F72313238000000566563746F72313246
:1034340034000000566563746F723132300000004E
:10344400566563746F7246430000000056656374EA
:103454006F7238340000000010000240080002407F
:103464000008024000000B0028000240080002404F
:103474000408024006010C0040000240080002401B
:103484000808024010020D005800024008000240E3
:103494000C08024016030E00700002400C000240AB
:1034A4001008024000040F00880002400C00024093
:1034B4001408024006051000A00002400C0002405F
:1034C4001808024010061100B80002400C00024027
:1034D4001C08024016072F00100402400804024092
:1034E4002008024000083800280402400804024072
:1034F400240802400609390040040240080402403E
:1035040028080240100A3A00580402400804024005
:103514002C080240160B3B00700402400C040240CD
:1035240030080240000C3C00880402400C040240B5
:1035340034080240060D4400A00402400C0402407A
:1035440038080240100E4500B80402400C04024042
:103554003C080240160F46005C33000800000000DF
:1035640000000000F8420024F84400246D61696EF4
:10357400002C0438040448080C10141C20242526AC
:1035840000000000000064040100040000000000CA
:10359400000C0010283034007C3600081446002447
:1035A40014460024144600247C3600080000003031
:1035B40000000030000000307C36000800000030BD
:1035C40000000030000000307C36000800000430A9
:1035D40000000430000004307C360008000000388D
:1035E40000000038000000387C360008001000207D
:1035F40000100020001000207C36000800000000AD
:1036040000000000000000007C3600080000803844
:1036140000008038000080380000000031100008ED
:10362400E111000881120008C1100008911200087D
:10363400D110000841100008F111000881080008A9
:0836440068CFFF7F01000000C8
:10364C000000002400000024000000000000000026
:10365C0010000024100000240000000000000000F6
:10366C0020000024200000240000000000000000C6
:040000050800040DDE
:00000001FF
