:020000040800F2
:10000000000800201D0400081F0400081F04000849
:100010001F0400081F0400081F0400081F04000834
:100020001F0400081F0400081F04000811390008FD
:100030001F0400081F0400081F0400081F04000814
:100040001F0400081F0400081F0400081F04000804
:100050001F0400081F0400081F0400081F040008F4
:100060001F0400081F0400081F040008514700086F
:10007000F14700089148000831490008D1490008BB
:10008000714A0008114B00081F04000821AB00084A
:100090001F0400081F0400081F0400081F040008B4
:1000A0001F0400081F0400081F040008E1A0000846
:1000B000B14500081F0400081F0400081F040008C1
:1000C0001F0400081F0400081F040008B1560008A0
:1000D0001F0400081F0400081F04000891440008C2
:1000E0001F0400081F0400081F0400081F04000864
:1000F0001F0400081F0400081F040008B14B00087B
:100100001F040008F14300081F0400081F04000832
:100110001F0400081F0400081F0400081F04000833
:10012000514C0008F14C0008914D0008314E000878
:10013000D14E00081F0400081F0400081F04000817
:100140001F0400081F0400081F0400081F04000803
:10015000714F000811500008B150000821450008F7
:100160001F0400081F0400081F0400081F040008E3
:100170001F0400081F0400081F0400081F040008D3
:100180001F0400081F0400081F0400081F040008C3
:10019000515700081F0400081F0400081F0400082E
:1001A0001F0400081F0400081F0400081F040008A3
:1001B0001F0400081F0400081F0400081F04000893
:1001C0001F0400081F0400081F0400081F04000883
:1001D0001F040008515100081F0400081F040008F4
:1001E0001F0400081F0400081F0400081F04000863
:1001F0001F0400081F0400081F0400081F04000853
:100200001F0400081F0400081F0400081F04000842
:100210001F0400081F0400081F0400081F04000832
:100220001F0400081F0400081F0400081F04000822
:100230001F0400081F0400081F0400081F04000812
:100240001F0400081F0400081F0400081F04000802
:100250001F0400081F0400081F0400081F040008F2
:100260001F0400081F0400081F0400081F040008E2
:100270001F0400081F0400081F0400081F040008D2
:100280001F0400081F0400081F0400081F040008C2
:100290001F0400081F0400081F0400081F040008B2
:1002A0001F0400081F0400081F0400081F040008A2
:1002B0001F0400081F0400081F0400081F04000892
:1002C0001F0400081F0400081F0400081F04000882
:1002D0001F0400081F0400081F0400081F04000872
:0402E000C1B10008A0
:1003000072B6374880F30888364880F30988364843
:100310003649086040F20000CCF200004EF634711D
:10032000CEF200010860BFF34F8FBFF36F8F40F232
:100330000000C0F2F0004EF68851CEF200010860D5
:10034000BFF34F8FBFF36F8F4FF00000E1EE100A45
:100350004EF63C71CEF200010860062080F314884E
:10036000BFF36F8F03F014F903F052F94FF05530DB
:100370001F491B4A91423CBF41F8040BFAE71D4953
:10038000184A91423CBF41F8040BFAE71A491B4A4C
:100390001B4B9A423EBF51F8040B42F8040BF8E79E
:1003A00000201849184A91423CBF41F8040BFAE773
:1003B00003F046F903F034F9144C154DAC4203DA5E
:1003C00054F8041B8847F9E705F0A2FE114C124DC2
:1003D000AC4203DA54F8041B8847F9E703F028B964
:1003E00000080020001000200000000808ED00E0D8
:1003F000000000200008002048240108000000241C
:10040000EC090024000A002434460124E00200081C
:10041000E4020008E4020008E402000870E700F0CB
:1004200000F8FEE72DE9F04F2DED108AC1F80CD051
:10043000D0F80CD0BDEC108ABDE8F08F002383F318
:1004400011882846A047002007F0CAFAFEE705F009
:100450009FFA00DFFEE7000081F0004102E000BFEC
:1004600083F0004330B54FEA41044FEA430594EA74
:10047000050F08BF90EA020F1FBF54EA000C55EAAF
:10048000020C7FEA645C7FEA655C00F0E2804FEA80
:100490005454D4EB5555B8BF6D420CDD2C4480EA62
:1004A000020281EA030382EA000083EA010180EA92
:1004B000020281EA0303362D88BF30BD11F0004FE0
:1004C0004FEA01314FF4801C4CEA113102D0404216
:1004D00061EB410113F0004F4FEA03334CEA133351
:1004E00002D0524263EB430394EA050F00F0A78069
:1004F000A4F10104D5F1200E0DDB02FA0EFC22FA64
:1005000005F2801841F1000103FA0EF2801843FA57
:1005100005F359410EE0A5F120050EF1200E012A48
:1005200003FA0EFC28BF4CF0020C43FA05F3C01886
:1005300051EBE37101F0004507D54FF0000EDCF1FF
:10054000000C7EEB00006EEB0101B1F5801F1BD3A8
:10055000B1F5001F0CD349085FEA30004FEA3C0CAC
:1005600004F101044FEA445212F5800F80F09A80A2
:10057000BCF1004F08BF5FEA500C50F1000041EBA6
:10058000045141EA050130BD5FEA4C0C404141EBAA
:100590000101013C28BFB1F5801FE9D291F0000FA5
:1005A00004BF01460020B1FA81F308BF2033A3F154
:1005B0000B03B3F120020CDA0C3208DD02F1140C4B
:1005C000C2F10C0201FA0CF021FA02F10CE002F186
:1005D0001402D8BFC2F1200C01FA02F120FA0CFC7F
:1005E000DCBF41EA0C019040E41AA2BF01EB0451C8
:1005F000294330BD6FEA04041F3C1CDA0C340EDCC6
:1006000004F11404C4F1200220FA04F001FA02F308
:1006100040EA030021FA04F345EA030130BDC4F1C6
:100620000C04C4F1200220FA02F001FA04F340EABB
:100630000300294630BD21FA04F0294630BD94F06C
:10064000000F83F4801306BF81F480110134013D53
:100650004EE77FEA645C18BF7FEA655C29D094EAC4
:10066000050F08BF90EA020F05D054EA000C04BF42
:100670001946104630BD91EA030F1EBF002100202D
:1006800030BD5FEA545C05D14000494128BF41F0CC
:10069000004130BD14F580043CBF01F5801130BD30
:1006A00001F0004545F0FE4141F470014FF00000BB
:1006B00030BD7FEA645C1ABF194610467FEA655C6C
:1006C0001CBF0B46024650EA013406BF52EA03350E
:1006D00091EA030F41F4002130BD00BF90F0000FFC
:1006E00004BF0021704730B54FF4806404F1320438
:1006F0004FF000054FF0000150E700BF90F0000FF1
:1007000004BF0021704730B54FF4806404F1320417
:1007100010F0004548BF40424FF000013EE700BFE7
:1007200042004FEAE2014FEA31014FEA02701FBF77
:1007300012F07F4393F07F4F81F06051704732F0A9
:100740007F4208BF704793F07F4F04BF41F4002100
:10075000704730B54FF4607401F0004521F000415E
:100760001CE700BF50EA010208BF704730B54FF0E8
:1007700000050AE050EA010208BF704730B511F0E9
:10078000004502D5404261EB41014FF4806404F121
:1007900032045FEA915C3FF4D8AE4FF003025FEAA7
:1007A000DC0C18BF03325FEADC0C18BF033202EB2B
:1007B000DC02C2F1200300FA03FC20FA02F001FA85
:1007C00003FE40EA0E0021FA02F11444BDE600BF28
:1007D00053B94AB9002908BF00281CBF4FF0FF31A8
:1007E0004FF0FF3001F0DEB8ADF1080C6DE904CE3A
:1007F00000F006F8DDF804E0DDE9022304B07047FC
:100800002DE9F047089D04468E46002B4DD18A42C3
:10081000944669D9B2FA82F252B101FA02F3C2F1F6
:10082000200120FA01F10CFA02FC41EA030E944087
:100830004FEA1C48210CBEFBF8F61FFA8CF708FBA8
:1008400016E341EA034306FB07F199420AD91CEB80
:10085000030306F1FF3080F01F81994240F21C81B2
:10086000023E63445B1AA4B2B3FBF8F008FB1033FA
:1008700044EA034400FB07F7A7420AD91CEB04042F
:1008800000F1FF3380F00A81A74240F207816444FF
:10089000023840EA0640E41B00261DB1D440002384
:1008A000C5E900433146BDE8F0878B4209D9002DE8
:1008B00000F0EF800026C5E9000130463146BDE872
:1008C000F087B3FA83F6002E4AD18B4202D38242DC
:1008D00000F2F980841A61EB030301209E46002D8B
:1008E000E0D0C5E9004EDDE702B9FFDEB2FA82F2E0
:1008F000002A40F09280A1EB0C014FEA1C471FFA3E
:100900008CFE0126200CB1FBF7F307FB131140EA24
:1009100001410EFB03F0884208D91CEB010103F1F1
:10092000FF3802D2884200F2CB804346091AA4B2B3
:10093000B1FBF7F007FB101144EA01440EFB00FE87
:10094000A64508D91CEB040400F1FF3102D2A645EC
:1009500000F2BB800846A4EB0E0440EA03409CE78B
:10096000C6F12007B34022FA07FC4CEA030C20FA38
:1009700007F401FA06F31C43F9404FEA1C4900FA58
:1009800006F3B1FBF9F8200C1FFA8CFE09FB1811D5
:1009900040EA014108FB0EF0884202FA06F20BD948
:1009A0001CEB010108F1FF3A80F08880884240F298
:1009B0008580A8F102086144091AA4B2B1FBF9F0DC
:1009C00009FB101144EA014100FB0EFE8E4508D9D7
:1009D0001CEB010100F1FF346CD28E456AD902385C
:1009E000614440EA0840A0FB0294A1EB0E01A14241
:1009F000C846A64656D353D05DB1B3EB080261EBAF
:100A00000E0101FA07F722FA06F3F1401F43C5E988
:100A1000007100263146BDE8F087C2F12003D840BE
:100A20000CFA02FC21FA03F3914001434FEA1C4700
:100A30001FFA8CFEB3FBF7F007FB10360B0C43EAF2
:100A4000064300FB0EF69E4204FA02F408D91CEBA2
:100A5000030300F1FF382FD29E422DD902386344A0
:100A60009B1B89B2B3FBF7F607FB163341EA034140
:100A700006FB0EF38B4208D91CEB010106F1FF388F
:100A800016D28B4214D9023E6144C91A46EA004686
:100A900038E72E46284605E70646E3E61846F8E618
:100AA0004B45A9D2B9EB020864EB0C0E0138A3E761
:100AB0004646EAE7204694E74046D1E7D0467BE742
:100AC000023B614432E7304609E76444023842E7BA
:100AD00003685A004CBF43F0004323F0004318441E
:100AE000704700BF2DE9F84329B34F1E0446154651
:100AF0003E464FF0000808EB060101EBD1714910AA
:100B000004EBC1094846FFF7E3FF0346C80008307D
:100B10008F42204409D0AB4209D8FFF7D9FF0138F2
:100B2000A8420AD201F10108E5E7AB4205D98845A0
:100B300001D04E1EDFE74FF000094846BDE8F883BC
:100B4000012807D0022807D0044B00280CBF184604
:100B50000020704702487047024870471912000889
:100B60001D1200082112000830B5234B83B0044643
:100B70008D1E3BB301A92846AFF30080E8B101996F
:100B80002A46FFF7AFFF0146B8B1FFF7A1FF4B6858
:100B9000A064012B2CD0002B01F1040024DBFFF713
:100BA00097FF0023C4E913030368002B11DBFFF751
:100BB0008FFF2061002003B030BD00230920236196
:100BC00003B030BD0D4B0E49C91AC910184601912A
:100BD000D6E7C3F30360FFF7B3FF0028206114BF1B
:100BE0000020092003B030BD0123C4E91303DBE773
:100BF000002323610520DEE70000000070230108C8
:100C0000482401080368DA0710B5044606D49B0798
:100C100000F1480009D500F05BFC2368590709D5AD
:100C20001A070ED5DB0613D510BD00F049FC23686A
:100C30005907F5D404F1D00000F052FC23681A07DC
:100C4000F0D404F5A87000F053FC2368DB06EBD465
:100C500004F5E870BDE8104000F08EBC0920704734
:100C60000346006800B11844704700BF704700BFDA
:100C700070B504460E46316C2046FFF775FF0546F9
:100C800088B9326C62612369324621460120984757
:100C90000828F0D0072806D12846316CFFF7E6FF78
:100CA000301D00F001FC0AF06FFF00BF2DE9F04796
:100CB0000D1DD0F80C80D0F81890074614460FCDC3
:100CC000ADF5727D0DF10C0CACE80F000FCDACE86A
:100CD0000F000FCDACE80F0095E80F0002AE4FF00B
:100CE000000E8CE80F00C6F800E020E0336C7B615A
:100CF0004FF4F07231467AA800F056FE3B697AAAAA
:100D0000394650469847889B73642146CDE900696F
:100D100005463B463A460120C0470446E0B94FF439
:100D2000F0727AA9304600F03FFE082D1AD1316CDE
:100D30003846FFF719FF09345FFA84FA05460028A0
:100D4000D4D0B36B73643A46CDE900693B464AF0B0
:100D500010010120C04700B1092528460DF5727D1C
:100D6000BDE8F087072DF7D12046316CFFF77EFFF5
:100D700003A800F099FB00BF406C7047F0B5CB6B47
:100D80000B6401F1040C0E460546BCE80F00F9B0F7
:100D900001AC0FC4BCE80F000FC4BCE80F000FC4C7
:100DA0009CE80F004FF0FF3784E80F00009706E043
:100DB0002B696A46294698470828044608D11099A5
:100DC0002846FFF7D1FE0028F2D0092079B0F0BD07
:100DD0006846FFF717FF062CF7D131462846FFF784
:100DE00047FF00BFC160D96B8261196400221946B8
:100DF0005CE700BF70B5C66843690B64AEB90369B0
:100E00000A4604460D46014602209847072805D0A9
:100E100008280FD129462046FFF72AFF3046296CC3
:100E2000FFF724FF281D00F03FFB0122FFF73EFFE4
:100E30000AF0AAFE0AF0A8FEC2681AB1CA6B0A64D8
:100E4000002233E79AE700BF704700BF836801467E
:100E50000BB1012018477047012912D009D873B986
:100E60000F2A0CD800EB820218465368009A1360D0
:100E700070470339012994BF0120022070470220E6
:100E800070470846704700BF00B585B00A4600238A
:100E900003A900911946FFF7DFFF039805B05DF83D
:100EA00004FB00BF012912D009D873B90F2A0CD84E
:100EB00000EB8200009A12684260184670470339BE
:100EC000012994BF01200220704702207047084684
:100ED000704700BF10B584B0002303AC03920094A8
:100EE0000A461946FFF7DEFF04B010BD70B5D36B9C
:100EF000136402F1040C05460C46BCE80F00ADF586
:100F00000E7D0DF15C0EAEE80F00BCE80F00AEE800
:100F10000F00BCE80F00AEE80F009CE80F004FF098
:100F2000FF368EE80F00169610E0FFF7D3FF21463C
:100F300016A8A847034616AA6946082083B9049B49
:100F40009847052806460CD0092809D026996846F6
:100F5000FFF70AFE03466A460C2116A8002BE4D0D0
:100F6000092616A8FFF74EFE30460DF50E7D70BD22
:100F70002DE9F04FCC6C89B01E4654F8043B069422
:100F80000D46174600F00308002E79D01A0C1B04FA
:100F900005938DF81D200223D2B204EB82048DF854
:100FA0001C302B6DB8F1020F08BFAC6B13F00103BE
:100FB0000CD005A9384600F079FB18B9082009B013
:100FC000BDE8F08F092009B0BDE8F08FD4F800A08B
:100FD000BAF1000FEDD0019300F008030293022E46
:100FE0004AD0B4F800A0B4F802900434AB6C29F0F5
:100FF000010B0F2138469B44FFF746FF834539D844
:101000002AF001039B44834594BF002001204FEA4E
:10101000490303F002030AF0010A43EA0A03012B21
:1010200049D0022B32D0002BCCD1B8F1000F02D026
:10103000002840F0CD800434D4F800A0BAF1000FAD
:10104000CDD105A9384600F031FB0028BAD1019B6B
:10105000002BB3D00F213846FFF716FF0E210246B2
:101060003846FFF737FF38466A4A0F21FFF732FF4D
:101070000720A8E70020CAE7D4F804900834B5E7B1
:101080001B0205930323ADF81C308AE7236823F085
:10109000004BB8F1000F45D128B1029A002A5CD06C
:1010A000BBF1000F74D0002B00DA04340BF1010BFC
:1010B00004EB8B04C0E7B8F1000F19D1B0B163683D
:1010C0002268991C4FEAD2723FF47CAF05F15801B7
:1010D0000133049100F09080201DFFF7C1FD04ABA7
:1010E00001462846AFF3008000285BD10834A3E70F
:1010F0000D213846D5F82090FFF7C6FE8145F5D181
:10110000AB6A9C42F2D12046FFF7E2FC0F21024677
:101110003846FFF7DFFE38462A460021FFF7DAFEA1
:10112000072050E70D213846D5F82090FFF7ACFE98
:10113000814501D02368B6E7AB6A9C42FAD104230B
:101140000022C5E90B23E318C5F828B06B632368B8
:10115000002B59DB01230193A8E705F15803CDF8D3
:101160000C8004F1040AB04691461E460EE050463B
:101170000496FFF775FD0022014604AB284609F1ED
:1011800001090AF1040AAFF30080E0B9D945EED1B4
:101190000D213846FFF778FE049BAC62C5E90803D1
:1011A000062010E781460D213846FFF76DFEB9F1A4
:1011B000020F286225D12B46049A43F82C2F6B622C
:1011C000AC620620FFE646462368DDF80C806AE73D
:1011D0002046FFF77DFC04340246AC6328461446E3
:1011E000AFF3008000283FF4EDAE384622460F21D1
:1011F000FFF770FE0720E6E60D213846FFF744FEB4
:101200002862049B6B62DBE70BF1010004EB8000BA
:101210007AE700BF000000000023A9E60123A7E64B
:101220000223A5E62DE9F0430646C3B015461C4649
:10123000042900F2BF80DFE801F09E57BD2D0300B6
:10124000002C40F0B780102A00F2B4800368D80662
:1012500000F1F98020AF384600F098F9B46B3946B8
:1012600000234FF0010C0CFA03F22A42204603F14E
:10127000010303D050F8042B0A600446042B01F14B
:101280000401F0D13846B46300F076F9002043B091
:10129000BDE8F083032C40F08D8094B204EB124340
:1012A000102B4FEA124500F2858003681F0700F1FA
:1012B000D28020AF384600F03DF9B26B07EBC50194
:1012C00054B10B46D01A01EBC401E4001D5843F899
:1012D000045B8B42FAD122443846B26300F008F92D
:1012E000002043B0BDE8F083012C4FEA124895B2CC
:1012F0005CD0052C5ED108EB0509B9F1200F59D857
:10130000B8F10F0F79D9A946002D40F08A80B36B50
:101310006DB320AF4FF0000907EBC807043F03EBA4
:10132000C50553F8041B47F8041FAB42F9D1B9F1C6
:10133000000F0FD06F464146102938BF102107EB30
:10134000C101843903EBC90553F8040B41F8040FBC
:10135000AB42F9D1012C00F08680B8F10F0FB563D4
:1013600047D9B9F1000F02D0684600F0B9F8002063
:1013700043B0BDE8F083ECB9806B23461FFA82FCD2
:101380000124371D04FA03F212EA0C0F014604D0BF
:1013900051F8042B47F8232008460133102BF1D1D4
:1013A00015F40055E3D1B063284604E008EB0503CB
:1013B000102B03D9022043B0BDE8F083B8F10F0F22
:1013C000F8D83368DA0706D5304623F0030340F82F
:1013D000483B00F079F820AF384600F075F8B36B61
:1013E000002D97D11D460435B563384600F068F8E6
:1013F000BDE720A800F06CF8B3E7B9F1100F40D9B1
:10140000A9F110093368D90708D523F00103304644
:1014100043F0020340F8483B00F05EF8B9F1000FDA
:1014200032D033685A0720D4B8F10F0F25D96F4650
:101430003846C8F1100500F057F8002DB36B7FF760
:101440007AAF20AF68E723F01003336006F5E87049
:1014500000F09CF8FEE623F00803036000F5A87096
:1014600000F068F825E720AFBDE7304623F004031D
:1014700040F8D03B00F038F8D6E720A800F02CF870
:10148000D5E74FF00009BDE7B8F10F0F3FF63FAFCA
:1014900020AF384600F020F8B36B002D7FF43AAF50
:1014A000384600F015F862E700F1340191E83800A1
:1014B0009C46A6464CF8045D90E8FF0FE54600BD4B
:1014C00090EC210B704700BF80EC210B704700BFF0
:1014D00090EC200B704700BF80EC200B704700BFE2
:1014E000D0EC200B704700BFC0EC200B704700BF52
:1014F000F0EC0201F0EC0211F0EC0221F0EC023110
:10150000F0EC0241F0EC0251F0EC0261F0EC0271FF
:10151000F0EC0281F0EC0291F0EC02A1F0EC02B1EF
:10152000F0EC02C1F0EC02D1F0EC02E1F0EC02F1DF
:10153000704700BFE0EC0201E0EC0211E0EC022198
:10154000E0EC0231E0EC0241E0EC0251E0EC02613F
:10155000E0EC0271E0EC0281E0EC0291E0EC02A12F
:10156000E0EC02B1E0EC02C1E0EC02D1E0EC02E11F
:10157000E0EC02F1704700BFB0FC0181B0FC0191CA
:10158000B0FC01A1B0FC01B1704700BFA0FC01811B
:10159000A0FC0191A0FC01A1A0FC01B1704700BF1B
:1015A000EC4600B52DE900502DE9FF1F4FF0000378
:1015B0002DE90C0001A9FFF7E1FBDDF840E012B0D6
:1015C000704700BFEC4600B52DE900502DE9FF1F24
:1015D0004FF000032DE90C0001A9FFF70BFCDDF82B
:1015E00040E012B0704700BFEC4600B52DE9005056
:1015F0002DE9FF1F4FF000032DE90C0001A9FFF7B3
:101600001BFCDDF840E012B0704700BFEC4600B5AF
:101610002DE900502DE9FF1F4FF000032DE90C00CC
:1016200001ABFFF7DFFBDDF840E012B0704700BF11
:10163000EC4600B52DE900502DE9FF1F4FF00003E7
:101640002DE90C0001AAFFF751FCDDF840E012B0D3
:10165000704700BF027A03467AB9427AA2B1416864
:10166000013A10B44272086803220C1D1A72020279
:101670005C60000E10BC1A6070470068013A1A7274
:1016800002021A60000E7047B020704700B585B0A6
:10169000002303AA009219460C22FFF7DDFB0398F2
:1016A00005B05DF804FB00BFF0E700BF2DE9F04393
:1016B000054685B00E464FF000083046FFF7CAFFDA
:1016C000B028044600F0BA80070620D500F0F003E9
:1016D000802B4DD0902B36D0A02B60D0B02B74D067
:1016E000C02B00F08B8000F0F803D02B0BD100F062
:1016F00007020132052342F4002201212846FFF7A8
:1017000091FD0028D9D0092005B0BDE8F083830001
:10171000DBB21F1D0DF10C0900231946CDF8009016
:101720000D222846FFF798FB039BCDF8009060063A
:101730004CBFDF1BFF1800230D22194628460397D4
:10174000FFF7B0FBB9E700F00D030D2BDBD003AFC3
:10175000002300F00F02194600972846FFF77CFB94
:10176000002300970D2219462846FFF79BFBA4E7AC
:101770003046FFF76FFF24022043B0F5004FC2D080
:1017800004010023A2B219462846FFF74BFD0028AA
:10179000B9D114F4004F18BF4FF001088DE7C243D0
:1017A00002F007034FF47F621A41010702F47F62DF
:1017B0004FF0000348BF42F4804219462846FFF725
:1017C00031FD00283FF479AF9DE7B1283BD0B22826
:1017D00000F09380B32841D000F0FC03B42B92D0EA
:1017E00000F007020132012342F400221946284684
:1017F000FFF718FD00283FF460AF84E7C6284AD001
:10180000C72854D000F0F803C02B63D0C82868D094
:10181000C9287FF478AF3046FFF71CFF020300F0C1
:101820000F0002F4702201300243012105232846F3
:10183000FFF7F8FC00283FF440AF64E7B8F1000F71
:1018400018D0002060E73046FFF704FF024600286A
:101850003FF459AF10F0F003C8D054E73046FFF71B
:10186000F9FE020300F00F03013302F470221A4361
:101870000123BBE703AC43460E22414600942846B1
:10188000FFF7EAFA009443460F2241462846FFF745
:1018900009FB404638E73046FFF7DCFE020300F064
:1018A0000F03013302F470221A4303239EE73046EC
:1018B000FFF7D0FE024600283FF425AF10F0F003FA
:1018C0007FF421AF04212846FFF7ACFC00283FF449
:1018D000F4AE18E700F00F020132032342F4202295
:1018E00084E73046FFF7B6FE00F0F00200F00F0389
:1018F0001032013343EA023297E700230DF10C095D
:101900000D221946CDF800902846FFF7A5FA30467B
:10191000FFF7A0FE02064FF002040CD5039B00F077
:101920007F00A040184403903046FFF793FE030663
:1019300004F10704F2D4039BCDF8009000F07F027D
:10194000A24003F501731A440023039219460D22A5
:101950002846FFF7A7FAB0E610B5C26C536884B00A
:101960004FF0030C08321C0208461B0E01A901941B
:1019700002928DF80CC08DF80D30FFF797FE04B081
:1019800010BD00BF08B5FFF78FFE806C08BD00BF1B
:1019900008B5FFF789FEC06CC379023300EB830002
:1019A00008BD00BF704700BF844641EA000313F042
:1019B00003036DD1403A41D351F8043B40F8043B56
:1019C00051F8043B40F8043B51F8043B40F8043B19
:1019D00051F8043B40F8043B51F8043B40F8043B09
:1019E00051F8043B40F8043B51F8043B40F8043BF9
:1019F00051F8043B40F8043B51F8043B40F8043BE9
:101A000051F8043B40F8043B51F8043B40F8043BD8
:101A100051F8043B40F8043B51F8043B40F8043BC8
:101A200051F8043B40F8043B51F8043B40F8043BB8
:101A300051F8043B40F8043B403ABDD2303211D358
:101A400051F8043B40F8043B51F8043B40F8043B98
:101A500051F8043B40F8043B51F8043B40F8043B88
:101A6000103AEDD20C3205D351F8043B40F8043B58
:101A7000043AF9D2043208D0D2071CBF11F8013B56
:101A800000F8013B01D30B8803806046704700BF1C
:101A9000082A13D38B078DD010F003038AD0C3F12B
:101AA0000403D21ADB071CBF11F8013B00F8013B0D
:101AB00080D331F8023B20F8023B7BE7043AD9D3CC
:101AC000013A11F8013B00F8013BF9D20B780370A1
:101AD0004B7843708B78837060467047000000003D
:101AE00001F0FF01102A2BDB10F0070F08D010F8CF
:101AF000013B013A8B422DD010F0070F42B3F6D1D3
:101B0000F0B441EA012141EA014122F007047FF0EB
:101B100000070023F0E80256083C85EA010586EA42
:101B2000010685FA47F5A3FA87F586FA47F6A5FA7E
:101B300087F68EB9EED1F0BC01F0FF0102F007028A
:101B400032B110F8013B013A83EA010313B1F8D135
:101B50000020704701387047002D06BF3546033816
:101B6000073815F0010F07D1013015F4807F02BF4F
:101B7000013015F4C03F0130F0BC0138704700BFA0
:101B800090F800F06DE9024520F007016FF0000CBD
:101B900010F0070491F820F040F049804FF0000465
:101BA0006FF00700D1E9002391F840F000F1080040
:101BB00082FA4CF2A4FA8CF283FA4CF3A2FA8CF378
:101BC0004BBBD1E9022382FA4CF200F10800A4FADF
:101BD0008CF283FA4CF3A2FA8CF3E3B9D1E9042333
:101BE00082FA4CF200F10800A4FA8CF283FA4CF36A
:101BF000A2FA8CF37BB9D1E9062301F1200182FA24
:101C00004CF200F10800A4FA8CF283FA4CF3A2FA29
:101C10008CF3002BC6D0002A04BF04301A4612BA37
:101C2000B2FA82F2FDE8024500EBD2007047D1E93A
:101C3000002304F00305C4F100004FEAC50514F0C9
:101C4000040F91F840F00CFA05F562EA05021CBF9A
:101C500063EA050362464FF00004A9E700000000B4
:101C6000C3689B0F0CD0012B08D18368C28818046D
:101C700000F47C1010430130800270470020704750
:101C8000826840F6FC73416803EA8200C2F30342B3
:101C9000C1F3C23340EA9170093A023301309840EF
:101CA00090407047000000000000000000000000AD
:101CB0000079053818BF0120704700BF0000000000
:101CC0000379052B06D1826A4FF400730020C1E925
:101CD0000032704701207047000000000000000043
:101CE000012914BF6FF013000020704700000000AE
:101CF0001028F0B50AD04FF0010C424E0CFA00FC4F
:101D0000346814EA0C0F15D0864607E03D4E34685F
:101D100014F001005CD04FF00F0E0020012502E00E
:101D20001CEA040F06D00130704505FA00FCF7D913
:101D30000020F0BD4CEA0404334D4FEA001E34602D
:101D400006EBC00605EB0010C6E901235FFA8CF331
:101D5000002B47D11CF47F4F0ED02C4BD3F8D8204A
:101D600042F00202C3F8D820D3F8002142F0020268
:101D7000C3F80021D3F8003155F80E20136823F082
:101D80001F031360136813F00103FBD105EB0E0C66
:101D90003D261F4D09019CF80CE09CF80E40C9B28D
:101DA000DCF8047006FA0EF64FEA541C3E6004F0AC
:101DB0001F06136001232C44B3402126566105EB16
:101DC0008C0284F80013C2F8803145F82C30F0BD45
:101DD0000D4D44F0010486464FF0010C2846726018
:101DE000B3603460094BD3F8D82042F00102C3F845
:101DF000D820D3F8002142F00102C3F80021D3F823
:101E00000031A7E758C20024741B0108004402589F
:101E100000E100E000000000000000000000000001
:101E20002DE9F04F02F00308C2F3C105C2F34114DB
:101E3000D609C64600224FF00F0B4FF0010A14E0FE
:101E40000368072A09EA030343EA0E03036048D83C
:101E5000036A23EA070747EA0C07076249083ED0EE
:101E6000AD000132A4004FEA8E0ECB07F6D54368D1
:101E70000AFA02FC02F00707B8F1020F23EA0C038A
:101E80004FF0030C4FEA870743604FEA42030CFA16
:101E900003F3D0F808C02CEA030C6FEA03094CEAFC
:101EA000050CC0F808C0D0F80CC02CEA030C4CEAB2
:101EB000040306FA07FC0BFA07F7C360C0D1072A30
:101EC00016D8036A23EA070747EA0C070762036884
:101ED000490809EA030343EA0E030360C0D1BDE8E1
:101EE000F08F436A23EA070747EA0C074762B5E722
:101EF000436A23EA070747EA0C074762E7E700BFA0
:101F000000EB810310B4DC6862691368D36003BB23
:101F1000D0F890204FF4002002EB4113C3F81009D1
:101F2000236803F00303012B2CD008B202EB40100E
:101F30000123D0F8004903FA01F144F00444C0F849
:101F40000049D2F834385DF8044B1943C2F834180C
:101F5000704709B9402B26D8B4F810C0D0F89020AB
:101F60000CF1FF301844B0FBFCF043EAC04302EB35
:101F7000411043F00053C0F81039236803F0030305
:101F8000012BD2D1D2F8083808B213F4807F02EBCB
:101F90004113D3F8004914BF44F0805444F0005476
:101FA000C3F80049C2E740231360D5E700000000F2
:101FB00038B590F870300546152B22D8DFE803F0CD
:101FC0000B21212121210B21210B0B0B212121216F
:101FD000212121213822D0F890304168D3F80029FE
:101FE0000C6842F40012C3F80029D3F8002B42F425
:101FF0000012C3F8002B0CB10621A047062385F878
:10200000703038BD0B22302380F8702083F31188A4
:1020100002890024C36842F0010221465B69028103
:102020009C60C3E90044FFF76BFF84F3118838BD5F
:10203000C3689B695B68002BE3D1C36F03B198470A
:10204000002385F8703038BD00000000000000005B
:1020500001F001038A0748BF43F002034A0748BF63
:1020600043F008030A0748BF43F00403CA0648BF09
:1020700043F010038A06426B48BF43F0200313432A
:1020800043637047000000000000000000000000F3
:10209000024A136843F0C0031360704700480040D1
:1020A000024A136843F0C0031360704700140140F4
:1020B000FEE700BF0000000000000000000000007C
:1020C000014B5B6883607047001000E00000000077
:1020D0000E4A0F4B81685B6810B4946802691B1B41
:1020E000C4685B1A41690134D218026141F10001F0
:1020F000426841619342026888BF43609342C0E9ED
:10210000023438BF03605DF8044B704730C20024CE
:10211000001000E0000000000000000000000000CF
:10212000F8B50468A04221D007460D46002604E019
:102130000B291CD02468A74218D0E3682B43E36026
:1021400015B123691D42F5D0D4E90102836B90F8E3
:1021500024101A430A298263EAD1816A0A42E9D02B
:10216000866208F075FF2468A742E6D1F8BD816A4F
:1021700031EA0203DED1F3E70000000000000000B6
:102180002DE9F04FD0F854B081B00446DBF800A040
:10219000DBF81C502B07CBF8205040F0B180E9054C
:1021A00000F1A280AA0646D504F10C074FF03008D2
:1021B00004F1040900261EE0D4E9083293422CD031
:1021C0006269591C0132216262611D70D4E90732D3
:1021D0009A4201D3A3692362E068B84205D003683C
:1021E000E3605F60866208F033FF86F31188DBF8F6
:1021F0001C50AB061FD588F31188DBF8242094F817
:102200005C5063691540002BD6D104214846FFF786
:1022100087FFD4E908329342D2D16269002ACFD035
:102220004FF400614846FFF77BFF86F31188DBF827
:102230001C50AB06DFD41AF0800F38D0280636D5F4
:1022400004F130064FF0300800271CE0A16B581C49
:10225000226C0131A0649042A1631D7801D3E36B2D
:10226000A364236BB342184605D01A6822635660F4
:102270009F6208F0EDFECBF8285087F31188DBF859
:102280001C502B0613D588F31188D4E911239A42E8
:10229000DCD1A26B002AD9D00821201DFFF740FF16
:1022A0002AF08003CBF80030002383F311881AF062
:1022B000400F01D069060CD4EA0607D5226E1369D7
:1022C00023B1506901B0BDE8F04F184701B0BDE837
:1022D000F08F302383F31188D4E911239A422BD055
:1022E000002383F31188E7E7302383F311884FF449
:1022F0008061201DFFF714FF002383F3118851E74D
:1023000015F008014FF0300318BF4FF48071EF074C
:1023100048BF41F02001AE0748BF41F040016807C7
:1023200048BF41F0800183F31188201DFFF7F8FEBC
:10233000002383F3118832E7A36B002BD0D0102148
:10234000201DFFF7EDFE2AF04003CBF80030C7E771
:10235000302310B483F311880C4B49425C68201A77
:1023600008401968821A8A4208D3944206D35A60F8
:10237000002383F311885DF8044B7047002000238D
:1023800083F311885DF8044B704700BF28C2002416
:10239000064B49425A68101A08401968884203D30C
:1023A000824201D3586070470020704728C2002441
:1023B0000146006860B1024612F8013B202B0AD9A1
:1023C0003A2BF9D1831C9A4202D10378302B06D0E4
:1023D0004FF0FF3070473A2BF4D0002070470020B8
:1023E0000A607047000000000000000000000000CC
:1023F000D0ED035AF7EE004A90ED015AB0EE002AF4
:1024000065EEA52A90ED027A65EE051AD0ED007A08
:10241000F0EE620A27EEA56A67EE876AB0EE611AEF
:1024200067EE857AE7EE070AA7EE071AB0EE463A9E
:10243000F0EE663AB0EE674A95EE073AE7EE257A97
:1024400097EE254AE5EE253AA5EE076AD5EE256A10
:10245000B0EE647AF0EE645A72EEA12AA1EE427AEE
:10246000E0EEC25AE2EEC24A33EE033A73EEA33A0A
:1024700036EE066A34EE044A81ED013A76EEA66A3B
:10248000C1ED023A77EEA77A81ED036AC1ED005AF9
:1024900081ED054AC1ED044AC1ED066AC1ED077A36
:1024A00081ED087A704700BF0000000000000000C6
:1024B0004FF08042484B0021526A10B5044642F268
:1024C0000F702DED028BE2FB0301002342F210722C
:1024D000B0EE408AFEF77CF994F82030002B42D011
:1024E000636ADFED3E6AC31A9FED3D7A07EE903ACC
:1024F000F8EE677A67EEA67AF4EEC77AF1EE10FA94
:102500000FDD94ED000A0023012284ED068A28EEF7
:10251000000A60626361E36184F82020BDEC028BF5
:1025200010BDD4ED016A94ED057A68EE266A94ED4B
:10253000036A6062B1EE460AA6EEA77AB4EEC07AEC
:10254000F1EE10FA1CD5F5EEC07A94ED007A84ED28
:10255000050AA7EE080AF1EE10FA18DC84ED068AE7
:10256000BDEC028B10BD94ED000A012384ED068AB8
:1025700028EE000A606284F82030BDEC028B10BDAA
:10258000B4EEC67AF1EE10FA36FE070ADBE7DFEDAD
:10259000156AB7EE007AD4ED045A94ED066A65EE3A
:1025A000A65AD4ED074A38EE466A94ED025A84EDF5
:1025B000068AC7EE256AC6EE275A76EEA76A87EE28
:1025C000A66A77EE467A67EEA47AE6EE257AA5EE5D
:1025D000270AC4ED077AC3E740420F00BD378635AE
:1025E000CDCC4C3EDB0FC9400000000000000000D5
:1025F000114B124A1968124821F47F0141F42A0153
:1026000010B4196041F21114996841F47F01996086
:10261000D96821F47F01D960596A0A4046F66801F9
:1026200022435A6240F24D138161C16104625DF838
:10263000044BC362704700BF000002580000FFFF58
:102640000000014000000000000000000000000049
:1026500001207047000000000000000000000000A2
:102660000020704700000000000000000000000093
:102670000A4A1368072B10DC4FF00C0C084910B401
:102680005C1C0CFB03F31460CA18064CC8500023F2
:10269000C2E901435DF8044B70477047E82B002402
:1026A000F06E0024819F0008000000000000000080
:1026B0002DE9F047DFF8048104464FEA401AD8F8C4
:1026C000906006EB4013D3F80859E907C3F808599E
:1026D00003D5D6F81038DA0709D42B0605D501271B
:1026E000D6F83438A7403B4219D1BDE8F08708EB53
:1026F0008003D9684B691868DA6890424CD301238B
:102700008F6803FA04F2B8F8083023EA0203A8F845
:102710000830002FE1D021464046B847DDE708EBFE
:102720008403DA685669D6E90035AB4242D90134F0
:10273000D8F89090B2F81080E4B209EB0A0E09EBD9
:102740000430A3EB050CDEF81839C4459BB228BF52
:10275000C446BCEB830FC8D8B468BCF1040F23682F
:1027600003600BD9ACF10501234621F003010431CC
:10277000214453F8042F99420260FAD1654433682A
:102780006444AB427560B460DBD8D9F8343823EACE
:102790000707C9F83478A8E7121A00271A605F60A3
:1027A000302383F3118821464046FFF7A9FB87F3C6
:1027B000118892E7D8F89090E7E700BFB80B0024A3
:1027C000C268936930B41C68402CDC6002D9402197
:1027D0000C461960538A15685A1ED0F8901005F0FF
:1027E000030022440128B2FBF3F202FB03F303F1DE
:1027F000030323F0030343EAC24343F0C043C1F899
:10280000103B0CD1D1F8083813F4807FD1F8003B8D
:1028100014BF43F0805343F00053C1F8003BD1F89C
:10282000003B43F0044330BCC1F8003B704700BF9D
:1028300038B590F870300446152B26D8DFE803F041
:102840002625252525252625250B103D252525254D
:10285000252525252626816FB0F88630994233D369
:102860001422302384F8702083F3118862890025B4
:10287000E368204642F001029B6962819D60C3E9E2
:102880000055FFF79DFF85F3118838BDD0F89030D3
:102890004168D3F800290D6842F40012C3F80029FA
:1028A000D3F8002B42F40012C3F8002B0DB106211F
:1028B000A847062384F8703038BDC36F03B198472A
:1028C000002384F8703038BDC3681D8AB1FBF5F36E
:1028D00005FB1315002DC3D1302383F31188028922
:1028E0002946C36842F001025B6902819D60C3E929
:1028F0000055FFF705FB85F311880A2384F8703033
:1029000038BD00BF00000000000000000000000013
:102910002DE9F041244F0446D7F8906006EB4013B0
:10292000D3F8085B2807C3F8085B03D5D6F814383A
:10293000190730D4EA072CD5D6F81438DB0728D588
:1029400007EB8403D9685CB98A69488A5368B3FB8A
:10295000F0F500FB15331BB91068D36898420DD30E
:1029600001227B89CD68A24023EA02037B8185B1E5
:1029700021462B460C48BDE8F04118471B1A54600D
:102980003021136081F311880748FFF719FF84F3A2
:102990001188BDE8F08107EB840321463846DB68E7
:1029A0005B689847C6E700BFB80B00240000000032
:1029B000302310B483F31188124B1A79012A18D0EE
:1029C0005A6C002010494FF0FF341065D06210603F
:1029D000506050629463D1F8D42022F48032C1F860
:1029E000D420D1F8FC2022F48032C1F8FC20D1F8A8
:1029F000FC2000220121DA62197182F311885DF84E
:102A0000044B7047040B00240044025800000000EF
:102A1000164B022A30B403F11004D961826038BF2A
:102A2000022244601C69046060608C1818614FF0D9
:102A300080404463002404610224C460456AA5EB1D
:102A4000010C624503D930BC704729461546013454
:102A500021444163426A511BA142F6D2022CF2D9B1
:102A60005A6B42F0010230BC5A63704750B70024E1
:102A70002DE9F8431E4E07460D46D6E900439C4219
:102A800020D347F6FF721A44131BAB421ED36319BF
:102A9000B3F5004F1DD9C4F50049DFF85880394619
:102AA0004A4608EB0400FEF77FFFA4F5004207EB5F
:102AB0000901404615442A46FEF776FF012035609D
:102AC000BDE8F883013B1B1BAB42E0D20020BDE810
:102AD000F883084839462A462044FEF765FF3468E3
:102AE00001202C44C4F30E043460BDE8F88300BF19
:102AF000A0450124A0C50024000000000000000043
:102B000070B590F87030044613B1002380F870302F
:102B100004EB81016268CB681B6A19685B68C4F8C2
:102B20008010C4F8843093684BB32046984730B384
:102B3000A36F94F88010B4F886209A4201D213460D
:102B4000A2670A0600F1DF80002B00F092801522B8
:102B5000302384F8702083F3118862892046E3686B
:102B600042F001029B696281D4E91D5100249D60FD
:102B7000C3E90014FFF724FE84F3118870BD94F8B4
:102B8000801011F060061CD194F8812001F07F03C1
:102B900043EA022340F20232934200F0688147D8B0
:102BA000B3F5807F00F0128123D9B3F5817F00F067
:102BB0001C81B3F5407F04D194F88230012B00F0E2
:102BC000D980D4F89000D0F80039626843F400133B
:102BD0001268C0F80039D0F8003B43F40013C0F885
:102BE000003B12B1062120469047062384F870303E
:102BF00070BD012B62D0022B52D194F9840094F85D
:102C000084200028D4F8900002F00F02C0F2AB80BC
:102C10005832520182581504D5D590024FF0020265
:102C20004CBFA648A648C4E91D020022E26782E71D
:102C3000B3F5006F00F0138147D9B3F5106F39D1A8
:102C40002378042B00F0A08094F882304BB104214B
:102C5000626884F88B302170136813B1022120461A
:102C60009847002394F88010C4E91D33E3670B06EE
:102C700063D40B22302384F8702083F311882289D7
:102C80000025E368204642F0010229465B69228163
:102C90009D60C3E90055FFF733F985F3118870BDD6
:102CA000002B8ED1022204F18800E367606713468F
:102CB000A26740E740F60242934282D10223814854
:102CC0000022C4E91D03E26735E7B3F5A06F00F009
:102CD000A880A3F5C063012B3FF673AF616820465F
:102CE000B4F884304D6894F8822094F88310A84793
:102CF00000283FF466AF94F88010D0E90032E66710
:102D0000C4E91D2317E7C3B10922302384F87020DA
:102D100083F3118822892046E36842F001025B694F
:102D20002281D4E91D51002419609D6021465C6018
:102D3000FFF7E6F884F3118870BD1422302384F87D
:102D4000702083F3118862890025E368204642F0F1
:102D500001029B6962819D60C3E90055FFF730FD68
:102D600085F3118870BD48325201825816047FF5F0
:102D70002AAF52E7B4F88830E66743F00203C4E9AB
:102D80001D66A4F8883072E7302383F31188A368A6
:102D90002022314604F1100003F00113A36008F073
:102DA0002DFFD4E924010B68C4F8983008F0D8F955
:102DB00086F311880321636884F88B6021701B6897
:102DC000002B3FF441AF204698473DE794F882300E
:102DD000012B7FF4F6AEB4F88830E66723F00203E7
:102DE000C4E91D66A4F8883041E794F88230002BCE
:102DF0007FF4E7AE94F8843013F00F020CD013F098
:102E0000800FD4F8903003EB421348D1D3F8002B55
:102E100022F40012C3F8002B0023C4E91D33E3673A
:102E200025E7B4F88030B3F5A06FF5D194F88200AF
:102E3000D4F8902084F88A00D2F8003823F4FE6396
:102E400043EA001360680568C2F8003825B1012123
:102E50002046A84794F8801003232370DCE7012262
:102E600004F18B00E6671346C4E91D0263E694F89B
:102E70008230002B7FF4A5AE94F8843013F00F025B
:102E8000CAD013F0800FD4F8903003EB42130DD169
:102E9000D3F8002B42F40012C3F8002BBCE7D3F8A0
:102EA000002922F40012C3F80029B5E7D3F800295D
:102EB00042F40012C3F80029AEE700BFF81C010875
:102EC000741C0108C81D010800000000000000007B
:102ED00010B4F1EE103AEFF309834FF080710A4A13
:102EE000683BD961D26B1A6683F309880749084A9F
:102EF0000C68C968A468896806488C4288BF024685
:102F00005DF8044B9A61704700EF00E050B7002471
:102F1000520400084F0400080000000000000000F8
:102F20002DE9F04FADF6EC4D0D46064614460790E0
:102F30004FF4C0720591DAA80021994608F05EFEB0
:102F40009022002156A808F059FEDBAFAA01DFED60
:102F5000BF7A04EB851325460A9232469C4606F258
:102F60008C468C320B9396460C9207F114007146F6
:102F7000A1F140032A46F3EC016AB2EC017A8B42DC
:102F8000E6EE877AF7D1403140ED067A1830B1424B
:102F900002D050ED067AEBE74035654502D0F7ECFC
:102FA000017AE2E704F14003DFEDA87A0DF5AE7E89
:102FB00000271946DDF8148009930DF55A7B09EBBB
:102FC000870A754600245846A1F1400C6346024624
:102FD0000090F3EC016A1046183290ED007A8B42B3
:102FE000E6EE877AF5D1A742009845ED017A07D041
:102FF000631C043098450DD0F5EC017A1C46E5E7DA
:103000009AED007A631C043077EE277A984545EDF7
:10301000017AF1D1A74201F140010EF1180E07F13A
:10302000010303D05EED017A1F46C6E7902200211E
:1030300032A856AD08F0E2FD059B0EAA4FF07E5A6D
:1030400003EB43080DF1C8099B00174602EBC808C3
:103050000892049333462646444698463846183725
:103060002946049AFEF7A0FCA74205F1180549F885
:103070001CABF3D1049B0EA90022F7EE004ACF1837
:10308000059B34469FED705AC3EB83730DF1C80A5C
:103090009146CDF834B09B00DDF820B00092069741
:1030A000019302910392CDF8208003998E4601315D
:1030B0007445039140F3C480029876464FEA4E026D
:1030C00093190DF1380C90ED067A4D1C0EEB43036D
:1030D0001830B0EEC77A0CEB8303D3ED007AF0EE34
:1030E000E77AB4EEE77AF1EE10FA01DD0E464A0017
:1030F000A1422946E4D193190EAA5546594602EB3E
:10310000C30032AA02EBC3030A68066841F8046BE5
:10311000B9421E6840F8042B2A6845F8046B43F84E
:10312000042BF1D1029BD3ED007AB0EEE77AB4EE36
:10313000C57AF1EE10FA00F1C480C4EEA76A5246D7
:103140005B4693ED007AD2ED007A27EE267A67EEA1
:10315000A67AA3EC017ABB42E2EC017AF1D1069D9A
:103160000DF1C80C00264E451BD0019B5046009A1D
:103170005946EB1803EB02086246D8ED006A93ED5E
:10318000007AF1EC015AD2ED007AB0EC016AA5EEBA
:10319000E67AE6EE667AA3EC017AAB42E2EC017ADB
:1031A000EDD1B4420CF1180C05F1180506F101033C
:1031B00001D01E46D7E7009B744509F101090BF1C8
:1031C000180B03F104030AF1180A07F1180700931A
:1031D000029B03F11C0302937FF467AF4FF4C072AC
:1031E00000217AA8DDF834B0089E08F007FDDAAABD
:1031F000049BDFED167A7BAF991802F5C07C32AAEA
:10320000D5183C4632A802465B46F3EC016A964666
:1032100018329EED007A8B42E6EE877AF5D10430C3
:1032200044ED017AA84202D0F4EC017AEBE70BF10D
:10323000180B18311837E34547D057ED017AE0E70E
:1032400076464FEA4E0256E7CCBC8C2B00000000BD
:10325000079C4FF480620DF59D604C342146FEF7CB
:10326000A3FB00214FF48062204608F0C7FCDDF884
:1032700030800DF628110DF59D6E4546A5F14004F0
:103280007046A1F1400CA8EB050763463A185FEDC4
:10329000117AF3EC016A9146403299ED007A994235
:1032A000E6EE877AF5D1B0EC017A77EE677AE4EC56
:1032B000017AA542E9D1403540310EF1400EB542C8
:1032C000DCD10DF6EC4DBDE8F08FDDF8102D7AACB9
:1032D000049B2546174613441946079B03F10C002F
:1032E000F0EC017A3B462A46B3EC017AF2EC016A33
:1032F0009942E6EE877A40ED017AF5D11835DAABDE
:10330000AB42EDD14FF4806200210DF6E80008F0E9
:1033100075FC5FED327A0DF6EC0CDDF82CE0DDE9A2
:10332000093213441F46059BC3EB8365AD0160461C
:1033300071466B18224698464033F2EC016A98EDCC
:10334000007A9942E6EE877AF5D1043140ED017AB0
:103350008F4202D0F0EC017AEBE71834DAAB0CF1D3
:10336000400C9C423FF474AF5CED017ADFE700BF94
:10337000134B0021134A186810B420F00100124CBE
:103380001860216040F20114106820F47F00106082
:10339000D06820F47F00D0604BF6BB329C6144F6CD
:1033A0002060DC611A621F22D86259621961DA60FA
:1033B0001A685DF8044B42F001021A60704700BFC2
:1033C0000000014000000258540C002400000000DE
:1033D00038B58168002304460568036181B92B78FC
:1033E000022B09D82B89F3B16B6AA3616161D3B158
:1033F00030350020E56138BD6B6A002BF2D01946EC
:103400006A892AB111E001280DD96B6998420AD264
:10341000206807F0ADFC431C0146F4D1012038BD03
:103420000023C4E90513022038BD6869A1F1020C2C
:1034300002388445F4D2AB6A0CFB0233A361D5E7B2
:1034400000B52DED048B90ED0A9A83B0D0ED099A6A
:1034500029EE090AD0ED0B8A90ED0C8AA9EEA90A93
:10346000A8EEA80AA8EE080AB5EE400AF1EE10FA96
:103470002AD4F1EEC07A9FED187AF4EEC77AF1EE15
:1034800010FA18D4F7EE006A86EEA77A69EE879AEA
:1034900029EE079A68EE878A28EE078AC0ED099A16
:1034A00080ED0A9AC0ED0B8A80ED0C8A03B0BDEC6A
:1034B000048B5DF804FB9FED098AF7EE009AF0EEAD
:1034C000488AB0EE489AE9E7019008F099F8019827
:1034D000F0EE407ACFE700BFFFE6DB2E00000000F1
:1034E00070B52DED068B90ED029AF7EE00AAD0EDA7
:1034F000038AF0EE007A69EE099A90ED018A29EECE
:10350000280A90ED00AAF0EE6A0A0E46B0EE697A3B
:103510001546AAEE080A1C46A8EE087A30EE000A04
:10352000E7EE670A08F06AF868EEC87ABFEE007A3C
:1035300086ED000AEAEE097A37EEA70AB4EEC70A6A
:10354000F1EE10FA1ED4B4EE6A0AF1EE10FA3AFE69
:10355000800A08F01FF828EE098AE8EEA89A85ED9F
:10356000000AF0EE007AAAEE288AF7EE000AE9EEE9
:10357000E70A38EE080A08F041F884ED000ABDECCD
:10358000068B70BDB0EE470AE3E700BF0000000005
:1035900010B5BFF34F8FBFF36F8F1C480022C0F8E8
:1035A0005022BFF34F8FBFF36F8F436943F4003353
:1035B0004361BFF34F8FBFF36F8FC0F88420BFF319
:1035C0004F8FD0F8803043F6E074C3F34E3CC3F322
:1035D000C90E4FEA4C1C0CEA0401734641EA83729F
:1035E000013BC0F860225A1CF8D1ACF1200C1CF150
:1035F000200FF0D1BFF34F8F436943F48033436111
:10360000BFF34F8FBFF36F8F10BD00BF00ED00E021
:10361000704700BF00000000000000000000000034
:10362000704700BF00000000000000000000000024
:10363000FEE700BF000000000000000000000000E6
:10364000F8B52B4D2B4F2C4905F170042B482C4A13
:1036500088420DD2043A034652F8046F43F8046BD3
:103660008B42F9D34B1E1B1A23F003030433184477
:10367000B84207D2013F00213F1A27F0030204326B
:1036800008F0BCFAA54205D0D5E90420D5E9061713
:103690001035DDE71B480023C0F88430BFF34F8F9F
:1036A000D0F8805043F6E076C5F34E34C5F3C90533
:1036B000640104EA06012B4641EA8372013BC0F82B
:1036C0006C225A1CF8D1203C14F1200FF1D1BFF329
:1036D0004F8FBFF36F8FBFF34F8FBFF36F8F0023F9
:1036E000C0F85032BFF34F8FBFF36F8FF8BD00BFEC
:1036F000FC1C0108344601243446012434460124CC
:10370000342E010800ED00E0000000000000000081
:10371000302383F31188426801230021D2E902207B
:1037200083409BB2538381F31188704700000000EF
:10373000302383F31188426801230021D2E902205B
:1037400083409BB2138381F311887047000000000F
:1037500070B503780446012B52D0C3696068A16A32
:10376000056921F4F04105F01F020132082A2AD828
:10377000E26A22F4F042E2620678002E30D041F490
:10378000847142F48472A162E26244691868584903
:1037900020F00100574A29401860224000204FF4D1
:1037A000807442F0015241F440411C604024586052
:1037B0004FF0FF309960DA601C6198611A6842F03E
:1037C00001021A6070BD102A11D8E26A41F420513A
:1037D000067822F4F04242F42052E262002ECED16A
:1037E00021F4847122F48472A162E262CDE7E26A7C
:1037F00041F4A04122F4F04242F4A042E262BBE76D
:103800003D4B98420ED03D4B98423ED0626AD4E97F
:1038100007311268096803F13000886003F1200164
:1038200091609BE70346364A0A211020FEF760FAB2
:103830002346344A0A2120621020FEF759FA324BFF
:10384000216A2526D3F89820606242F480528D6860
:103850008168C3F89820D3F8982022F48052C3F8E6
:103860009820D3F89820D3F8F02042F48052C3F87F
:10387000F020D3F8182142F48052C3F81821D3F86D
:10388000183126232E600B60C0E703461C4A0A212C
:103890001020FEF72DFA23461A4A0A212062102032
:1038A000FEF726FA184B216A5326D3F89820606257
:1038B00042F400528D688168C3F89820D3F89820AC
:1038C00022F40052C3F89820D3F89820D3F8F020BF
:1038D00042F40052C3F8F020D3F8182142F4005209
:1038E000C3F81821D3F8183154232E600B608DE7EC
:1038F0001F3EFFFFFFFFB9DF580B0024880B002499
:103900003158000801590008004402580000000026
:10391000EFF30983054968334A6B22F001024A63D9
:1039200083F30988002383F31188704700EF00E0D8
:10393000E0B92DE9F8430E4D0E46174698462C790E
:10394000052C10D12868434632463946D0F81890E5
:103950002846C84704F1FF3C18B11CF0FF04F1D120
:103960000120BDE8F8830320BDE8F88304207047F8
:10397000040B002400000000000000000000000014
:103980002DE9F0474778AFB9154E3479052C11D1A0
:10399000054600F13008D0F82C90306801234246EB
:1039A0004946D0F818A03046D047631E30B113F016
:1039B000FF04F2D101273846BDE8F087E96A2B6A97
:1039C000AA69CB1AE8709342F5D2AB78022BF2D1F8
:1039D0000A44687841460123FFF7AAFFEBE700BFDE
:1039E000040B0024000000000000000000000000A4
:1039F0002DE9F84FC37807468946002B3BD17B69F8
:103A0000A9F10209023B99453CD27A89BB6A09FBBC
:103A1000023907F130084FF400720021C7F82C90EA
:103A2000404608F0EBF87B897BB37A780026184D86
:103A3000FAB92C79052C1CD109EB060A2868012358
:103A400042465146D0F818B02846D847631E40B1C8
:103A500013F0FF04F2D17889301A18BF0120BDE8B5
:103A6000F88F7B890136B3421846F5D97A78002A57
:103A7000DFD01846F0E7FFF783FF0028BFD0012012
:103A8000BDE8F88F4FF00009C3E718461E46E3E78C
:103A9000040B0024000000000000000000000000F3
:103AA0002DE9F047056904462035B5F5001F04D31C
:103AB00000230420A361BDE8F0878369002B4FD069
:103AC000C5F308080668B8F1000F37D10F46013377
:103AD00041698361002938D07389013B13EA552974
:103AE0002CD1304607F044F90128824634D9B0F190
:103AF000FF3F2FD07369834212D8002FD8D061695D
:103B0000206807F0CDF9824640B3012824D0B0F1F7
:103B1000FF3F1FD001463046FFF76AFFD0B97369F7
:103B2000023BC4F814A0AAF1020A9A4504D2B6F8DE
:103B30000A90B36A0AFB0939C4F81890303600209D
:103B400025614644E661BDE8F0873389B3EB551F34
:103B5000F4D8ADE70120AEE70220ACE70720AAE7E2
:103B60000420A8E7000000000000000000000000A2
:103B70002DE9F047C37806460C46F3B97778AFB91C
:103B8000DFF8488098F80450052D0FD106F1300A6F
:103B9000D8F80000012352462146D0F81490404640
:103BA000C8476B1E28B113F0FF05F1D101274FF074
:103BB000FF343846F462BDE8F087FFF7E1FE0746C0
:103BC0000028DBD03846BDE8F08700BF040B002496
:103BD00070B504460568FFF7FBFB064648B1042EA6
:103BE00008BF0726304670BD01212046FFF758FF69
:103BF00040BBA1692846EB6A994202D0FFF7B8FFA3
:103C000000BBE0690378E52B01D0002BECD1A16962
:103C1000EB6A994204D02846FFF7AAFFA0B9E069F1
:103C20002022002107F0EAFF04F12003E2690124C9
:103C300003CB10603046516019889B7811819372D4
:103C4000EC7070BD0646CAE70646304670BD00BF40
:103C50002DE9F04F0B7883B002680F465C2B0546C8
:103C6000019201D02F2B05D117F8013F2F2BFBD04C
:103C70005C2BF9D00023AB603B781F2B40F2BE8059
:103C800005F12006B8464FF0203373603360C6F864
:103C9000073098F80040202C40F28580C34600276A
:103CA0004FF008094FF0010A2F2C00F081805C2CA6
:103CB0007ED02E2C57D04F4555D2210603D504F087
:103CC0007F04584B1C5D2146574808F073F80028C4
:103CD00069D1A4F16103192B01D8203CE4B2F45559
:103CE00001371BF8014F0AF1010A202CDCD895F8A6
:103CF0002030D044E52B7AD00423284685F82B3099
:103D00002F68FFF765FB044698B182E093F80BA09B
:103D10000AF03F04AC71DC7A14F0080402D107F019
:103D20003BFF48B300212846FFF7BAFE04460028AF
:103D30006FD1A9693846FB6A994204D0FFF718FF92
:103D40000446002865D1EB690B2231461C781846E1
:103D5000002CDBD195F82B305A0760D4052420467F
:103D600003B0BDE8F08FB9F10B0F1CD02E2C1AD187
:103D700008274FF00B09B4E795F82B305B0713D4F5
:103D80001AF0100FEAD001992A690B460978C2F39C
:103D900008023033032913445A8B02D19B8A42EA2A
:103DA0000342AA606FE70624204603B0BDE8F08F07
:103DB00018F80A3008EB0A022F2B01D05C2B26D111
:103DC0000AF101034344984613F8012B2F2AFAD035
:103DD0005C2AF8D0002FE6D095F82030E52B06D0ED
:103DE00098F80030212B34BF0423002385E70523F6
:103DF000202C85F820307FF67FAFF1E7802328461E
:103E000085F82B3003B0BDE8F04FFFF7E1BA9046DC
:103E1000E0E7042C9ED0204603B0BDE8F08F0424D8
:103E2000C2E700BF9C180108281701080000000025
:103E300038B54FF0FF33002204469942C270C36286
:103E400003D0FFF795FE002856D194F83020B4F83F
:103E50002E5202F11803DBB2012B01D9EB2A13D148
:103E60004AF655239D4216D0B4F83B3094F83D10E5
:103E70005A1E1A4206D129B1B3F5007F02D14B1E5A
:103E80000B423BD0032038BD4AF65520854214BF73
:103E90000320022038BD08221A4904F1820007F0ED
:103EA0007BFE0028EFD0B4F83B305A1E1A4221D1D5
:103EB00094F83D20F2B1B3F5007F1BD1531E13429D
:103EC00018D1E38FB3B194F84030013B012BDBD81C
:103ED000B4F84130002BD7D0B4F843307F2B03D84F
:103EE000236DB3F5803FCFD3B4F84630002BCBD051
:103EF000002038BD022038BD042038BDE38F002BE0
:103F0000E1D1BFE738170108000000000000000001
:103F100000232DE9F0410B6084B00D469046FEF77A
:103F200047FA061EC0F2C980954B53F82640002C74
:103F300000F0C8802C6023784BB167783FB9914876
:103F40000379052B03689B6800F0BE809847002327
:103F5000F7B22370677027B10327384604B0BDE875
:103F6000F08188480379052B07D0036803279B68F5
:103F70009847384604B0BDE8F08103689B689847CD
:103F800090B900212046FFF753FF022811D00428E2
:103F900008D0012828D90D27384604B0BDE8F081A3
:103FA0000428F8D10127D8E7B8F1000FE9D00A2793
:103FB000D3E7D4F806326D46D4F8F61104AED4F83F
:103FC0001622CDE90013D4F82632CDE9022301E010
:103FD000AE42E5D055F8041B03200029F8D0204656
:103FE000FFF726FF0128F3D8B4F83B30B3F5007F84
:103FF000D1D1B4F8463003B9636D94F84020D4F8B9
:104000002CE0501EA361A2700128C4D894F83D0092
:1040100085B26581002DBED0411E0142BBD1B4F8EE
:10402000416031072681B6D1B4F8435005B9256DFA
:10403000E18F0029AFD003FB02F201EB161C944480
:104040006545A8D3A5EB0C058542B5FBF0F8A2D3D6
:104050004D4880459FD84FF6F570804540D840F6D2
:10406000F57071440EEB0C05C4F81CE0804508F1B6
:104070000200A5626061216256D8002E8BD00A44EE
:1040800000EB4001626200F0010202EB51020121EB
:1040900002F2FF12B3EB522FFFF47DAF4FF0FF326D
:1040A0008020CBB22071C4E90322384A23701388E0
:1040B00001339BB21380E3804FE70B27384604B0EF
:1040C000BDE8F0810C2748E7984700283FF445AF4A
:1040D000B8F1000F18BF0A27384604B0BDE8F081D8
:1040E000714408F10202C4F81CE021620EEB0C01DD
:1040F0006261A162B4F85A1031437FF44CAF920070
:10410000E16D02F2FF126162B3EB522FFFF443AF95
:104110004FF0FF338022C4E90333B4F860302271DA
:10412000012B09D00323C0E7002E3FF434AF114424
:10413000420061620221ABE70EF101012046FFF768
:1041400017FD0028EED14AF65523B4F82E2220712F
:104150009A42E7D1226B0E4B9A42E3D103F1FF530F
:10416000D4F8142203F5005320339A42DAD1D4F85C
:1041700018120323D4F81C22C4E9032195E700BFD9
:10418000340A0024040B0024F5FFFF0F380A002432
:1041900052526141000000000000000000000000D9
:1041A0002DE9F843037804460D461646022B06D047
:1041B000032B52D0012B1BD00220BDE8F883016AEB
:1041C000C36A01EB1521994203D0FFF7D1FC002807
:1041D000F3D16D0004F13003C6F30722002005F48B
:1041E000FF755E55591901234A70E370BDE8F883E5
:1041F00001EB5107016AC36A01EB5721994203D0D1
:10420000FFF7B6FC0028D8D1EB0707F1010804F14D
:104210003009C7F3080742D519F8073003F00F0338
:1042200043EA061309F807300123216AE37001EB22
:104230005821E36A994204D02046FFF799FC0028F0
:10424000BBD1C8F30808C6F30712C844012388F895
:1042500000200020E370BDE8F883016AC36A01EB27
:10426000D511994203D0FFF783FC0028A5D1AD00FA
:1042700004F1300026F0704205F4FE7543594119EF
:1042800003F070431A43130C4255100A8B70120E40
:1042900001234870CA700020E370BDE8F88309F874
:1042A00007600123216AE37001EB5821E36A994218
:1042B00005D02046FFF75CFC00287FF47EAFC8F3F2
:1042C0000808C6F30322C84498F8003023F00F060C
:1042D0003243BBE7000000000000000000000000C7
:1042E000034616224FF0FF301A60704700000000AE
:1042F00000207047000000000000000000000000E7
:104300001846704700000000000000000000000098
:1043100000207047000000000000000000000000C6
:104320003023024610B483F311880D4B18685C6883
:104330000144A1420AD8884208D84FF0000C196005
:104340008CF3118828B15DF8044B7047002383F388
:1043500011880C234FF0FF305DF8044B1360704759
:1043600028C200240000000000000000000000003F
:1043700008B5134600215822184607F03FFC4FF4B9
:104380000052034600205A6008BD00BF0000000034
:104390000120704700000000000000000000000045
:1043A0000120704700000000000000000000000035
:1043B0000C4A4FF08041D2F88C3002F50960496A0E
:1043C00010B4094C59601968646864F31F2143F8FC
:1043D000101B83425DF8044B28BF02F19003C2F822
:1043E0008C30704750B70024001000E0000000003F
:1043F00038B5234DB5F8883013F004041FD03023AE
:1044000083F311881F4B0022D3E91001CA6318B14E
:104410001A64826206F01CFE002383F31188B5F84B
:10442000883013F0040418D0302383F31188164B1E
:104430005B6813F400631ED183F3118838BD302309
:1044400083F311880321D5F88C30104A19709A60D3
:10445000FFF7AEFF84F31188D1E7302383F311888F
:104460000421D5F88C30094A19709A60FFF7A0FF33
:1044700084F31188D8E7BDE83840FEF729BD00BFB6
:1044800050B70024040B002400ED00E0081B0108D5
:1044900038B51C4DB5F8883013F0040412D01A4812
:1044A000FDF76EFEB5F8883013F0040418D0302301
:1044B00083F31188154B5B6813F400631ED183F3FB
:1044C000118838BD302383F311880321D5F88C304F
:1044D0000F4A19709A60FFF76BFF84F31188DEE7CB
:1044E000302383F311880421D5F88C30084A1970E1
:1044F0009A60FFF75DFF84F31188D8E7BDE8384084
:10450000FEF7E6BC50B700243C0A002400ED00E0B2
:10451000F01A010800000000000000000000000088
:1045200038B51C4DB5F8883013F0040412D01A4881
:10453000FDF726FEB5F8883013F0040418D03023B8
:1045400083F31188154B5B6813F400631ED183F36A
:10455000118838BD302383F311880321D5F88C30BE
:104560000F4A19709A60FFF723FF84F31188DEE782
:10457000302383F311880421D5F88C30084A197050
:104580009A60FFF715FF84F31188D8E7BDE838403B
:10459000FEF79EBC50B70024A00A002400ED00E006
:1045A000841A010800000000000000000000000064
:1045B0002DE9F0475F4DB5F8883013F004041BD0A7
:1045C0004FF080463369F2681340DAB29B076FEA16
:1045D000020232612CD4B5F8883013F0040419D0EB
:1045E000302383F31188544B5B6813F4006379D153
:1045F00083F31188BDE8F087302383F3118803210A
:10460000D5F88C304D4A19709A60FFF7D1FE84F3CB
:104610001188D5E7302383F311880421D5F88C3035
:10462000464A19709A60FFF7C3FE84F31188D7E7F2
:10463000302383F31188424F4FF000094FF03008C8
:1046400009E089F31188D4E903312046984788F3BB
:1046500011886369B3B9EB69716A2C69C81AA268D9
:10466000904203EB020A2AD3D4E90032C5F81CA019
:1046700013605A60C4F800902B69BB42E1D1C6F8C0
:104680000C90DEE7716AA1EB0A0083422ED32A69FF
:10469000BA4245D091688B4204D912685B1A91687E
:1046A0009942FAD3A36091682260CB1A5168616085
:1046B0000C60C2E901434FF0FF33AB61BEE7BC427F
:1046C0000CD01344E9615B1A022BA36038BF0223AC
:1046D000CA187263726A511A8B4210D9002383F38D
:1046E000118878E7BDE8F047FEF7F2BB6B6B2A69EB
:1046F00043F00203BA426B6318D00346CAE70223B1
:104700004FF080410133D0184863486A821A9A42B8
:104710000ED2022BE2D96B6B43F001036B63DDE732
:1047200053445A1A2046FEF773F9D7E70022F9E7F7
:104730000246E7E750B7002400ED00E0541A0108F4
:1047400060B700240000000000000000000000002E
:1047500038B5204DB5F8883013F0040419D01E4B3D
:104760001E481968426801F03D0199600AB18068ED
:104770009047B5F8883013F0040418D0302383F341
:104780001188174B5B6813F400631ED183F3118803
:1047900038BD302383F311880321D5F88C30114ABA
:1047A00019709A60FFF704FE84F31188D7E730236D
:1047B00083F311880421D5F88C300A4A19709A6065
:1047C000FFF7F6FD84F31188D8E7BDE83840FEF71F
:1047D0007FBB00BF50B700240000024058C2002435
:1047E00000ED00E0E41A01080000000000000000F5
:1047F00038B5214DB5F8883013F004041BD01F4B99
:104800001F4A1968890901F03D0188019860D36841
:104810000BB110699847B5F8883013F0040418D02C
:10482000302383F31188174B5B6813F400631ED1A8
:1048300083F3118838BD302383F311880321D5F821
:104840008C30114A19709A60FFF7B2FD84F3118819
:10485000D5E7302383F311880421D5F88C300A4A38
:1048600019709A60FFF7A4FD84F31188D8E7BDE8BA
:104870003840FEF72DBB00BF50B7002400000240B7
:1048800058C2002400ED00E0D81A01080000000022
:1048900038B5214DB5F8883013F004041BD01F4BF8
:1048A0001F4A1968090C01F03D010804986053691A
:1048B0000BB190699847B5F8883013F0040418D00C
:1048C000302383F31188174B5B6813F400631ED108
:1048D00083F3118838BD302383F311880321D5F881
:1048E0008C30114A19709A60FFF762FD84F31188C9
:1048F000D5E7302383F311880421D5F88C300A4A98
:1049000019709A60FFF754FD84F31188D8E7BDE869
:104910003840FEF7DDBA00BF50B700240000024067
:1049200058C2002400ED00E0CC1A0108000000008D
:1049300038B5214DB5F8883013F004041BD01F4B57
:104940001F4A1968890D01F03D0188059860D369F7
:104950000BB1106A9847B5F8883013F0040418D0EA
:10496000302383F31188174B5B6813F400631ED167
:1049700083F3118838BD302383F311880321D5F8E0
:104980008C30114A19709A60FFF712FD84F3118878
:10499000D5E7302383F311880421D5F88C300A4AF7
:1049A00019709A60FFF704FD84F31188D8E7BDE819
:1049B0003840FEF78DBA00BF50B700240000024017
:1049C00058C2002400ED00E0C01A010800000000F9
:1049D00038B5204DB5F8883013F0040419D01E4BBB
:1049E0001E485968426A01F03D01D9600AB1806AE7
:1049F0009047B5F8883013F0040418D0302383F3BF
:104A00001188174B5B6813F400631ED183F3118880
:104A100038BD302383F311880321D5F88C30114A37
:104A200019709A60FFF7C4FC84F31188D7E730232C
:104A300083F311880421D5F88C300A4A19709A60E2
:104A4000FFF7B6FC84F31188D8E7BDE83840FEF7DD
:104A50003FBA00BF50B700240000024058C20024F3
:104A600000ED00E0B41A01080000000000000000A2
:104A700038B5214DB5F8883013F004041BD01F4B16
:104A80001F4A5968890901F03D018801D860D36A3D
:104A90000BB1106B9847B5F8883013F0040418D0A8
:104AA000302383F31188174B5B6813F400631ED126
:104AB00083F3118838BD302383F311880321D5F89F
:104AC0008C30114A19709A60FFF772FC84F31188D8
:104AD000D5E7302383F311880421D5F88C300A4AB6
:104AE00019709A60FFF764FC84F31188D8E7BDE879
:104AF0003840FEF7EDB900BF50B700240000024077
:104B000058C2002400ED00E0A81A010800000000CF
:104B100038B5214DB5F8883013F004041BD01F4B75
:104B20001F4A5968090C01F03D010804D860536B15
:104B30000BB1906B9847B5F8883013F0040418D087
:104B4000302383F31188174B5B6813F400631ED185
:104B500083F3118838BD302383F311880321D5F8FE
:104B60008C30114A19709A60FFF722FC84F3118887
:104B7000D5E7302383F311880421D5F88C300A4A15
:104B800019709A60FFF714FC84F31188D8E7BDE828
:104B90003840FEF79DB900BF50B700240000024026
:104BA00058C2002400ED00E0681B0108000000006E
:104BB00038B5214DB5F8883013F004041BD01F4BD5
:104BC0001F4A5968890D01F03D018805D860D36BF3
:104BD0000BB1106C9847B5F8883013F0040418D066
:104BE000302383F31188174B5B6813F400631ED1E5
:104BF00083F3118838BD302383F311880321D5F85E
:104C00008C30114A19709A60FFF7D2FB84F3118837
:104C1000D5E7302383F311880421D5F88C300A4A74
:104C200019709A60FFF7C4FB84F31188D8E7BDE8D8
:104C30003840FEF74DB900BF50B7002400000240D5
:104C400058C2002400ED00E05C1B010800000000D9
:104C500038B5204DB5F8883013F0040419D01E4B38
:104C60001E481968426C01F03D0199600AB1806CE0
:104C70009047B5F8883013F0040418D0302383F33C
:104C80001188174B5B6813F400631ED183F31188FE
:104C900038BD302383F311880321D5F88C30114AB5
:104CA00019709A60FFF784FB84F31188D7E73023EB
:104CB00083F311880421D5F88C300A4A19709A6060
:104CC000FFF776FB84F31188D8E7BDE83840FEF79C
:104CD000FFB800BF50B700240004024058C20024AF
:104CE00000ED00E0501B0108000000000000000083
:104CF00038B5214DB5F8883013F004041BD01F4B94
:104D00001F4A1968890901F03D0188019860D36C38
:104D10000BB1106D9847B5F8883013F0040418D023
:104D2000302383F31188174B5B6813F400631ED1A3
:104D300083F3118838BD302383F311880321D5F81C
:104D40008C30114A19709A60FFF732FB84F3118896
:104D5000D5E7302383F311880421D5F88C300A4A33
:104D600019709A60FFF724FB84F31188D8E7BDE837
:104D70003840FEF7ADB800BF50B700240004024031
:104D800058C2002400ED00E0441B010800000000B0
:104D900038B5214DB5F8883013F004041BD01F4BF3
:104DA0001F4A1968090C01F03D0108049860536D11
:104DB0000BB1906D9847B5F8883013F0040418D003
:104DC000302383F31188174B5B6813F400631ED103
:104DD00083F3118838BD302383F311880321D5F87C
:104DE0008C30114A19709A60FFF7E2FA84F3118847
:104DF000D5E7302383F311880421D5F88C300A4A93
:104E000019709A60FFF7D4FA84F31188D8E7BDE8E7
:104E10003840FEF75DB800BF50B7002400040240E0
:104E200058C2002400ED00E0381B0108000000001B
:104E300038B5214DB5F8883013F004041BD01F4B52
:104E40001F4A1968890D01F03D0188059860D36DEE
:104E50000BB1106E9847B5F8883013F0040418D0E1
:104E6000302383F31188174B5B6813F400631ED162
:104E700083F3118838BD302383F311880321D5F8DB
:104E80008C30114A19709A60FFF792FA84F31188F6
:104E9000D5E7302383F311880421D5F88C300A4AF2
:104EA00019709A60FFF784FA84F31188D8E7BDE897
:104EB0003840FEF70DB800BF50B700240004024090
:104EC00058C2002400ED00E02C1B01080000000087
:104ED00038B5204DB5F8883013F0040419D01E4BB6
:104EE0001E485968426E01F03D01D9600AB1806EDA
:104EF0009047B5F8883013F0040418D0302383F3BA
:104F00001188174B5B6813F400631ED183F311887B
:104F100038BD302383F311880321D5F88C30114A32
:104F200019709A60FFF744FA84F31188D7E73023A9
:104F300083F311880421D5F88C300A4A19709A60DD
:104F4000FFF736FA84F31188D8E7BDE83840FDF75B
:104F5000BFBF00BF50B700240004024058C2002465
:104F600000ED00E0141B010800000000000000003C
:104F700038B5214DB5F8883013F004041BD01F4B11
:104F80001F4A5968890901F03D018801D860D36E34
:104F90000BB1106F9847B5F8883013F0040418D09F
:104FA000302383F31188174B5B6813F400631ED121
:104FB00083F3118838BD302383F311880321D5F89A
:104FC0008C30114A19709A60FFF7F2F984F3118856
:104FD000D5E7302383F311880421D5F88C300A4AB1
:104FE00019709A60FFF7E4F984F31188D8E7BDE8F7
:104FF0003840FDF76DBF00BF50B7002400040240E9
:1050000058C2002400ED00E0FC1A01080000000076
:1050100038B5214DB5F8883013F004041BD01F4B70
:105020001F4A5968090C01F03D010804D860536F0C
:105030000BB1906F9847B5F8883013F0040418D07E
:10504000302383F31188174B5B6813F400631ED180
:1050500083F3118838BD302383F311880321D5F8F9
:105060008C30114A19709A60FFF7A2F984F3118805
:10507000D5E7302383F311880421D5F88C300A4A10
:1050800019709A60FFF794F984F31188D8E7BDE8A6
:105090003840FDF71DBF00BF50B700240004024098
:1050A00058C2002400ED00E0901A01080000000042
:1050B00038B5214DB5F8883013F004041CD01F4BCF
:1050C0001F4A5968890D01F03D018805D860D36FEA
:1050D00013B1D2F880009847B5F8883013F0040473
:1050E00018D0302383F31188164B5B6813F40063E8
:1050F0001ED183F3118838BD302383F31188032137
:10510000D5F88C30104A19709A60FFF751F984F382
:105110001188D4E7302383F311880421D5F88C302B
:10512000094A19709A60FFF743F984F31188D8E7A8
:10513000BDE83840FDF7CCBE50B700240004024063
:1051400058C2002400ED00E0601A010800000000D1
:105150002DE9F84FDFF8C092B9F8883013F0040455
:1051600000F0F080A94ED6F890406769A3691F400F
:1051700017F48058676140F07881002FC0F2C38037
:105180003A0500F1FB80BB040CD5D4F8083813F0C5
:10519000060FE36823F470530CBF43F4105343F439
:1051A000A053E3603D0756D4F90261D4BA0200F17E
:1051B0002681FB0600F1F7803B03D4F818481AD586
:1051C000E60300F11C82A50300F11F82600300F1D9
:1051D0002282210300F12582E20200F12882A3024B
:1051E00000F12B82660200F12E82250200F131824D
:1051F000E00100F1AD8179031AD5E20700F149829F
:10520000A30700F14282670700F13B82260700F105
:105210003482E50600F12D82A00600F126826106A7
:1052200000F11F82220600F11882E30500F1978148
:10523000B9F8883013F0040400F09280302383F32F
:105240001188734B5B6813F4006340F07D8183F336
:105250001188BDE8F88F7268D368002B00F0838155
:105260003178052900F0878168489847F9029DD573
:105270004FF0000CD6F890A0DFF8A0B101226546EF
:10528000624807E00135D6F89430EDB29B689D4244
:10529000AC468BD80AEB4511D1F8003903F4402312
:1052A000B3F5802FEED1D1F80039002BEADAD1F82E
:1052B000003943F09043C1F80039D1F80039002B90
:1052C000FBDB4FEA8C1CD6F890104CF020030B61EE
:1052D0000B699B06FCD4DBF80410DBF804305B1A86
:1052E000112BFAD906EB8503318902FA05FCDB683C
:1052F00021EA0C019B683181002BC3D029469847D5
:1053000001224248BEE7D4F8003E990705D0D4F800
:10531000003E23F00303C4F8003ED4F8043831788B
:1053200023F001030529C4F804387FF429AF96F867
:105330008C30337073681B68002B3FF421AF334807
:1053400098471DE7302383F311880321D9F88C3067
:10535000304A19709A60FFF72BF884F3118801E73F
:10536000302383F311880421D9F88C30294A19702D
:105370009A60FFF71DF884F311885FE7D6E92401EE
:1053800005F0EEFE3378052B3FF4FDAE86F88C3049
:105390000523337073681B6813B104211B489847B9
:1053A0000023B360EFE6D6F890100B6A03F4F01018
:1053B000C3F30A1203F00F03B0F5802F00F0F3805F
:1053C000B0F5402F7FF4F8AE06EB8303DB68186A74
:1053D000002A3FF4F1AE01F580550023464613F054
:1053E000030F014600D12E68072B03F1010303D8F8
:1053F00001F8016B360A08469A42F0D1DCE6D6F88D
:1054000090A000254FF0010B004811E0B80B0024DC
:1054100000ED00E06C1A010850B70024001000E015
:105420000135D6F89430EDB29B689D423FF6C1AE8F
:105430000AEB4512D2F8003B03F44023B3F5802F6A
:10544000EED1D2F8003B0BFA05F1002BE8DA06EBBF
:105450008503DB68DA68738923EA01037381002A14
:10546000DED0294690478D48DAE700250223242222
:1054700006F10C002946C6F88850B560337006F076
:10548000BDFB202386F870502361236913F02003AD
:10549000FBD1834948684A68121A112AFBD90022B5
:1054A000D6F894704FF000604FF0FF31C4F8342804
:1054B0004FF00112BD68C4F81C2804EB4312AB4244
:1054C00003F10103C2F80009C2F8000BC2F8081981
:1054D000C2F8081BF1D13868102360622361236988
:1054E000DD06FCD46E4A516853685B1A112BFBD958
:1054F000D4F80038002123F4FE63C4F80038694B67
:10550000A26913437268A36109231268C4F81038B2
:10551000C4F81438644BF3604FF0C043C4F8103B38
:10552000624BC4F8003BC4F81019C4F8003900F10C
:10553000100340F48010C6F89830A062002A3FF4AF
:1055400077AE5648904773E6BDE8F84FFDF7C0BC0C
:105550000820FDF7DDF979037FF56AAE4DE60820F6
:10556000FDF7A6F864E6A16921F00801A161317890
:1055700005297FF419AED4F8001E880705D0D4F8A9
:10558000001E21F00301C4F8001E96F88C10317043
:10559000126822B10521414890477368DB68002BEF
:1055A0007FF462AE00E6981C06EB80035B689B69A3
:1055B000D3E9005AA5EB0A0E9D68DAB101F5805CCB
:1055C000294600234546884613F0030F414601D182
:1055D000DCF800509E4503F1010303D901F8015B9B
:1055E0002D0A88469A42EFD106EB80035B689B69DF
:1055F000D3E901A515445244C3E90125DCE50020A7
:10560000FDF786F9A5037FF5E1AD0120FDF780F9EF
:1056100060037FF5DEAD0220FDF77AF921037FF507
:10562000DBAD0320FDF774F9E2027FF5D8AD04206D
:10563000FDF76EF9A3027FF5D5AD0520FDF768F9FA
:1056400066027FF5D2AD0620FDF762F925027FF5EF
:10565000CFAD0720FDF75CF9CAE50720FDF728F874
:10566000E3E50620FDF724F8DCE50520FDF720F84A
:10567000D5E50420FDF71CF8CEE50320FDF718F86A
:10568000C7E50220FDF714F8C0E50120FDF710F88A
:10569000B9E50020FDF70CF8B2E500BFB80B002417
:1056A000001000E010000C00C81C01084080001031
:1056B000F8B5204DB5F8883013F0040410D01E4B17
:1056C000DB695A6919690A409A61302383F31188AA
:1056D0001A4B5B6813F4006327D183F31188F8BD7C
:1056E000302787F311880322D5F88C30144E1A70B6
:1056F0009E60FEF75DFE84F311880F4AB5F888308E
:10570000D26913F004045169106901EA0001916142
:10571000DBD187F311880422D5F88C301A709E6093
:10572000FEF746FE84F31188CFE7BDE8F840FDF7A9
:10573000CFBB00BF50B70024580B002400ED00E0A1
:105740009C1A01080000000000000000000000009A
:10575000F8B5204DB5F8883013F0040410D01E4B76
:10576000DB695A6919690A409A61302383F3118809
:105770001A4B5B6813F4006327D183F31188F8BDDB
:10578000302787F311880322D5F88C30144E1A7015
:105790009E60FEF70DFE84F311880F4AB5F888303D
:1057A000D26913F004045169106901EA00019161A2
:1057B000DBD187F311880422D5F88C301A709E60F3
:1057C000FEF7F6FD84F31188CFE7BDE8F840FDF75A
:1057D0007FBB00BF50B70024880B002400ED00E021
:1057E000781A01080000000000000000000000001E
:1057F000044608B572B6094DB5F888301B0705D5C3
:10580000074B0322C5F884401A70FEE7D5F88C30A8
:10581000052298601A70FEF7CBFDF1E750B700241F
:1058200030C2002400000000000000000000000062
:1058300011F00C0F70B554D1456804462B78002B3D
:1058400038D1C269416A136843F4806313600A68FF
:10585000136823F01F0313601368D807FCD4087B78
:105860003D234A688340216A13600A68136823F065
:105870001F0313601368DB07FCD4087B3D234968D2
:105880006A6883400B60002A2ED0042320462370D0
:1058900090472378042B27D0302383F31188A06806
:1058A00020B10023A360836205F0D2FB002383F3C1
:1058B000118870BDCB060E4603D56B68002BF8D05F
:1058C0009847B506F5D563685B68002BF1D00422D4
:1058D0002046227098472378042BEAD103232370B3
:1058E00070BD0648FFF784FF02232370302383F343
:1058F0001188A0680028D4D1D8E700BF4417010858
:1059000011F00C0F00D17047014808B5FFF770FF88
:105910004417010800000000000000000000000023
:10592000014808B5FFF764FF5017010800000000A8
:10593000014808B5FFF75CFF581701080000000098
:10594000124BB3F88820D20710B504460FD50022B9
:10595000A369A16884F824201B689A688A42FBD84E
:105960005A6820462360626014605C6010BD90F845
:105970002420D3F88C10D300806A43F00103C1E9DE
:1059800002400B70FEF714FDE1E700BF50B70024A2
:1059900070B5154C01222568E0682B685C6085F8BD
:1059A00024202360E560FFF7CBFFB4F8883006467B
:1059B0009B0705D531462846BDE87040FAF732BD51
:1059C00090F82430816ADB00D4F88C2043F0020385
:1059D000C2E902511370FEF7EBFC31462846BDE8E0
:1059E0007040FAF71FBD00BF50B700240000000050
:1059F00038B51A4D8368EC68A34200D038BD024622
:105A0000302383F311880168C3688842E36322D09E
:105A1000206C4BB119688B4203D08968884238BF2B
:105A20000846DB68002BF5D1A06010680368C16BE5
:105A300013605A60C2E90201C26305F009FB2A68DB
:105A4000EB6892689B689A4201D9FFF7A1FF002397
:105A500083F3118838BD00238360F8E750B7002432
:105A600010B530230C4683F3118891F824300C2BA9
:105A700010D8DFE803F02D0F0F290B070F0B0F0FC6
:105A80000F0F0B00896A8A6801328A60D4E900210D
:105A90000A60516016494FF0FF32B1F88800A262E7
:105AA000C00719D50022A369A16884F824201B68C7
:105AB0009A688A42FBD25A680021236062601460AF
:105AC0005C6081F3118810BD8A6A00211160E1E7F2
:105AD000002383F3118810BDDB00D1F88C1043F054
:105AE0000103C1E902420B70FEF762FCDAE700BF76
