:020000040800F2
:1000000000080020FD030008FF030008FF030008AC
:10001000FF030008FF030008FF030008FF030008B8
:10002000FF030008FF030008FF030008710E00082B
:10003000FF030008FF030008FF030008FF03000898
:10004000FF030008FF030008FF030008FF03000888
:10005000FF030008FF030008FF030008FF03000878
:10006000FF030008FF030008FF030008FF03000868
:10007000FF030008FF030008FF030008FF03000858
:10008000FF030008FF030008FF030008FF03000848
:10009000FF030008FF030008FF030008FF03000838
:1000A000FF030008FF030008FF030008FF03000828
:1000B000E10B0008FF030008FF030008FF0300082E
:1000C000FF030008FF030008FF030008FF03000808
:1000D000FF030008FF030008FF030008FF030008F8
:1000E000FF030008FF030008FF030008FF030008E8
:1000F000FF030008FF030008FF030008FF030008D8
:1002E00072B6374880F30888364880F30988364864
:1002F0003649086040F20000CCF200004EF634713E
:10030000CEF200010860BFF34F8FBFF36F8F40F252
:100310000000C0F2F0004EF68851CEF200010860F5
:10032000BFF34F8FBFF36F8F4FF00000E1EE100A65
:100330004EF63C71CEF200010860062080F314886E
:10034000BFF36F8F00F08CFB00F0CAFB4FF055300D
:100350001F491B4A91423CBF41F8040BFAE71D4973
:10036000184A91423CBF41F8040BFAE71A491B4A6C
:100370001B4B9A423EBF51F8040B42F8040BF8E7BE
:1003800000201849184A91423CBF41F8040BFAE793
:1003900000F0BEFB00F0ACFB144C154DAC4203DA90
:1003A00054F8041B8847F9E700F072FD114C124D18
:1003B000AC4203DA54F8041B8847F9E700F0A0BB0D
:1003C00000080020001000200000000808ED00E0F8
:1003D0000000002000080020F8130008000000249E
:1003E0000000002400000024881E0024E002000811
:1003F000E0020008E0020008E002000870E700F0F8
:1004000000F8FEE72DE9F04F2DED108AC1F80CD071
:10041000D0F80CD0BDEC108ABDE8F08F002383F338
:1004200011882846A047002000F0F2FCFEE700F00B
:10043000BFFC00DFFEE7000000000000000000003D
:10044000FEE700BF00000000000000000000000008
:10045000014B5B6883607047001000E00000000003
:100460000E4A0F4B81685B6810B4946802691B1BCD
:10047000C4685B1A41690134D218026141F100017C
:10048000426841619342026888BF43609342C0E979
:10049000023438BF03605DF8044B7047E00A002463
:1004A000001000E00000000000000000000000005C
:1004B000302310B483F311880C4B49425C68201A36
:1004C00008401968821A8A4208D3944206D35A60B7
:1004D000002383F311885DF8044B7047002000234C
:1004E00083F311885DF8044B704700BFD80A0024DD
:1004F000064B49425A68101A08401968884203D3CB
:10050000824201D35860704700207047D80A002407
:100510000C4A4FF08041D2F88C3002F50960496AEC
:1005200010B4094C59601968646864F31F2143F8DA
:10053000101B83425DF8044B28BF02F19003C2F800
:100540008C30704700000024001000E00000000024
:1005500026490B69984230B40DD090E838009A686B
:1005600023602A445C6000249A604FF0FF330460EB
:100570008B6130BC704702680B46002543F8102F92
:10058000536005600C699C4229D0A3684FF0804CF1
:1005900082681A44CB69A260DCF82400C41AA24223
:1005A000E7D91B1A1344022B38BF0223C218CCF818
:1005B0003420DCF82420101A8342DAD802230133D5
:1005C000D018CCF83400DCF82400821A9A420AD2FF
:1005D000022BCED94B6B43F001034B63C9E74FF0BD
:1005E0008043DD60C5E70246E9E700BF0000002464
:1005F000124BB3F88820D20710B504460FD500225D
:10060000A369A16884F824201B689A688A42FBD8F1
:100610005A6820462360626014605C6010BD90F8E8
:100620002420D3F88C10D300806A43F00103C1E981
:1006300002400B70FFF76CFFE1E700BF00000024F1
:10064000114BB3F88820D20710B504460ED500220E
:10065000A369A16884F824201B689A688A42FBD2A7
:100660005A68C4E9003214605C6010BD90F8242020
:10067000D3F88C10D300806A43F00103C1E9024033
:100680000B70FFF745FFE2E70000002400000000C8
:1006900010B530230C4683F3118891F824300C2BCD
:1006A00010D8DFE803F02D0F0F290B070F0B0F0FEA
:1006B0000F0F0B00896A8A6801328A60D4E9002131
:1006C0000A60516016494FF0FF32B1F88800A2620B
:1006D000C00719D50022A369A16884F824201B68EB
:1006E0009A688A42FBD25A680021236062601460D3
:1006F0005C6081F3118810BD8A6A00211160E1E716
:10070000002383F3118810BDDB00D1F88C1043F077
:100710000103C1E902420B70FFF7FAFEDAE700BFFE
:1007200000000024000000000000000000000000A5
:10073000164B022A30B403F11004D961826038BF2D
:10074000022244601C69046060608C1818614FF0DC
:1007500080404463002404610224C460456AA5EB20
:10076000010C624503D930BC704729461546013457
:1007700021444163426A511BA142F6D2022CF2D9B4
:100780005A6B42F0010230BC5A63704700000024EB
:10079000F0B4254E4FF0804C3346DCF8247053F80B
:1007A000102F9A4238D0F36905469468FB1ACB188B
:1007B00028BF0B469C4203D912E012681B1B9468A9
:1007C0009C42FAD35168AB60C5E900210D60916885
:1007D0005560CB1A4FF0FF319360B161F0BC7047A8
:1007E000022938BF02217818CCF83400DCF8240044
:1007F000C71B8F42E4D3022101314718CCF8347073
:10080000DCF82470381A88420BD20229D8D9716BCF
:1008100041F001017163D3E70A463946F0BCFFF7A6
:1008200087BF3846E8E700BF000000240000000052
:1008300038B5144B01211C68DD6885F82400226856
:10084000536084F82410B3F888101A608A07DC60BB
:1008500005D529462046BDE83840FFF7D3BD95F8B9
:100860002420D3F88C10D300A86A43F00203C1E916
:1008700002400B70FFF74CFE29462046BDE8384089
:10088000FFF7C0BD000000240000000000000000D1
:10089000431C16D00C4B00220146DB6810B586B015
:1008A0000A4C6846049305920394FFF771FF0820F1
:1008B000FFF7BEFF009B13B16846FFF749FE06B085
:1008C00010BD0820FFF7B4BF000000249106000807
:1008D0000E4B0F4ADB6880B53027DA6187F3118849
:1008E0004FF080460025736A85F3118803F11404E4
:1008F00087F31188706AC31A201A132B01D8FFF7E7
:10090000C7FF85F311882346F0E700BF00000024ED
:1009100000130008000000000000000000000000BC
:100920000E4B0F4ADB6880B53027DA6187F31188F8
:100930004FF080460025736A85F3118803F10A049D
:1009400087F31188706AC31A201A092B01D8FFF7A0
:100950009FFF85F311882346F0E700BF00000024C5
:100960000C13000800000000000000000000000060
:10097000F8B53023044683F31188334D00F6141084
:10098000C4F880190023DFF8C8C00127C4F8B819DB
:100990000221C4F8840904F67816E86AA4F89C19C0
:1009A00004F68811C4F85429C4F894C905F1280C38
:1009B000264AC4F88C09C4F85839C4F8742904F6D6
:1009C000A812C4F8B43984F89E79C4F8B039C4F8D0
:1009D00088C9C4F89849C4F890590160E868C4F817
:1009E000A03904F6A413C4F8A829C4F8AC29E96214
:1009F000D4F88029C4F8A43983689A421FD9FFF734
:100A0000F7FDB5F8883084F89C7904469B07EE60C2
:100A100007D521463046FFF7F5FC002383F3118804
:100A2000F8BD90F82430816ADB00D5F88C2043F0C3
:100A30000203C2E902611370FFF76AFDE9E730467D
:100A4000FFF7FEFDE9E700BF000000241D040008D9
:100A50001813000800000000000000000000000063
:100A600010B5BFF34F8FBFF36F8F1C480022C0F843
:100A70005022BFF34F8FBFF36F8F436943F40033AE
:100A80004361BFF34F8FBFF36F8FC0F88420BFF374
:100A90004F8FD0F8803043F6E074C3F34E3CC3F37D
:100AA000C90E4FEA4C1C0CEA0401734641EA8372FA
:100AB000013BC0F860225A1CF8D1ACF1200C1CF1AB
:100AC000200FF0D1BFF34F8F436943F4803343616C
:100AD000BFF34F8FBFF36F8F10BD00BF00ED00E07D
:100AE000704700BF00000000000000000000000090
:100AF000704700BF00000000000000000000000080
:100B0000FEE700BF00000000000000000000000041
:100B1000F8B52B4D2B4F2C4905F170042B482C4A6E
:100B200088420DD2043A034652F8046F43F8046B2E
:100B30008B42F9D34B1E1B1A23F0030304331844D2
:100B4000B84207D2013F00213F1A27F003020432C6
:100B500000F084FBA54205D0D5E90420D5E90617AD
:100B60001035DDE71B480023C0F88430BFF34F8FFA
:100B7000D0F8805043F6E076C5F34E34C5F3C9058E
:100B8000640104EA06012B4641EA8372013BC0F886
:100B90006C225A1CF8D1203C14F1200FF1D1BFF384
:100BA0004F8FBFF36F8FBFF34F8FBFF36F8F002354
:100BB000C0F85032BFF34F8FBFF36F8FF8BD00BF47
:100BC00078130008881E0024881E0024881E002434
:100BD000F813000800ED00E0000000000000000035
:100BE0002DE9F047694DB5F8883013F004041BD0A7
:100BF0004FF080463369F2681340DAB29B076FEA20
:100C0000020232612CD4B5F8883013F0040419D0F4
:100C1000302383F311885E4B5B6813F4006379D152
:100C200083F31188BDE8F087302383F31188032113
:100C3000D5F88C30574A19709A60FFF769FC84F335
:100C40001188D5E7302383F311880421D5F88C303F
:100C5000504A19709A60FFF75BFC84F31188D7E75C
:100C6000302383F311884C4F4FF000094FF03008C8
:100C700009E089F31188D4E903312046984788F3C5
:100C800011886369B3B9EB69716A2C69C81AA268E3
:100C9000904203EB020A2AD3D4E90032C5F81CA023
:100CA00013605A60C4F800902B69BB42E1D1C6F8CA
:100CB0000C90DEE7716AA1EB0A00834242D32A69F5
:100CC000BA4259D091688B4204D912685B1A916874
:100CD0009942FAD3A36091682260CB1A516861608F
:100CE0000C60C2E901434FF0FF33AB61BEE7BC4289
:100CF0000CD01344E9615B1A022BA36038BF0223B6
:100D0000CA187263726A511A8B4224D9002383F382
:100D1000118878E7F1EE103AEFF309834FF0807114
:100D20001E4A683BD961D26B1A6683F30988296829
:100D3000EA688968926891428CBF194A194A9A6197
:100D4000BDE8F0876B6B2A6943F00203BA426B631C
:100D500018D00346B6E702234FF080410133D01884
:100D60004863486A821A9A420ED2022BCED96B6B24
:100D700043F001036B63C9E753445A1A2046FFF757
:100D8000D7FCC3E70022F9E70246E7E700000024AA
:100D900000ED00E02C1300081000002400EF00E03C
:100DA0002F040008320400080000000000000000CA
:100DB00070B5154C01222568E0682B685C6085F8E9
:100DC00024202360E560FFF713FCB4F88830064662
:100DD0009B0705D531462846BDE87040FFF712BB9A
:100DE00090F82430816ADB00D4F88C2043F00203B1
:100DF000C2E902511370FFF78BFB31462846BDE86C
:100E00007040FFF7FFBA00BF0000002400000000A0
:100E100038B5302383F31188124BDC6804F12C05BC
:100E2000E36AA0629D4207D194F8263083B10F2077
:100E3000BDE83840FFF7FCBC1A681846E262FFF7CD
:100E4000FFFBE36AAB42F7D194F82630002BEED1DA
:100E500094F825309B07EAD1D4E9043213605A6034
:100E6000E5E700BF000000240000000000000000D3
:100E7000EFF30983054968334A6B22F001024A63A4
:100E800083F30988002383F31188704700EF00E0A3
:100E9000C74B00224FF0FF31C64CD3F8800060F002
:100EA000004080B5C3F8800086B0D3F88000C24F00
:100EB00000F00040C3F88000D3F88000D3F884002D
:100EC000C3F88410D3F88400C3F88420D3F88400D6
:100ED000D86F2043B94CD867D86F2040B84CD8673A
:100EE000D86FD3F888000443B648C3F88840D3F8D5
:100EF0008840C4F30A04C3F888409024D3F888508B
:100F0000D3F89050C3F89010D3F89050C3F89020C5
:100F1000D3F89050D3F89450C3F89410D3F8945069
:100F2000C3F89420D3F89450D3F89850C3F898108D
:100F3000D3F89850C3F89820D3F89850D3F88C5031
:100F4000C3F88C10D3F88C50C3F88C20D3F88C5095
:100F5000D3F89C50C3F89C10D3F89C50C3F89C2045
:100F6000D3F89C5080F87A434FF08064C0F88C41ED
:100F7000C460702480F81C434FF08054C0F8804156
:100F80000460D3F8E800904C40F00100C3F8E8009A
:100F9000D3F8100140F00100C3F81001D3F810316C
:100FA0004FF08043E06B40F00100E06344F61F64C3
:100FB00001209C620424D9629A615A63DA605A6003
:100FC000586118607A603870BA60009103929FEDA2
:100FD000767BCDE901228DED047B6846FFF738FA78
:100FE000FFF73EFA013CF8D1009A3026774BBA6001
:100FF000774A784D1A60784A7D605A60774B784A14
:101000005C611A6003F10C022C63C3E90144C3E97B
:101010000322744B03F110029C605C611A6114227C
:10102000DC629A610422DA615A6303F13C02DA63FA
:1010300003F140021A6403F144025A646A4A1A62D4
:101040009A6303F124025A6203F128029A621C2275
:10105000C3E900331A63654BAB6386F3118862B64C
:10106000634B4FF6FF0C6C63EC616249624AC5E961
:101070000154D86800EA0C000143D960D3F8FC1091
:1010800041F08071C3F8FC105C49C2F8B01F1168D0
:1010900041F0010111602022DA7783F8226005F126
:1010A00010032D60C5E904334FF0FF33AB614FF0FF
:1010B0008043596A524B0A46C5F8883005F19003BF
:1010C000C5F88C302346C5E90823C5F8844005EBF4
:1010D0000413013493F89020802C6FF3020283F8FC
:1010E0009020F4D1474B01224748002603F14001EC
:1010F000A5F86020C0F8C021C0F8F82180F8DE21F2
:1011000085F8622003F12402A9664049C0F8C8317D
:10111000C0F8CC212B65AA6203F14402A9651433FF
:101120003B49EB6000F5AA73C0F894113949C0F847
:10113000C43100F5F273C0F8B4116C643649C0F8DC
:101140009861C0F8D051C0F8D4116D656E67EE6536
:10115000C0F8D801C5E91B2200F5E472C5E91E6498
:10116000EA640224EA6200F5F472A0F8DC41C0E906
:101170007C66C0E97932C0F8EC2100F5DC70FFF73D
:101180005FFA3C7086F31188244A94212448302465
:10119000FFF7EEFB234A8A212348244FFFF7E8FBA1
:1011A00046E000BFAFF30080000000000000000038
:1011B00000440258FFEFFF7FE00A00240010008087
:1011C00000F8FFFF00E100E00010005CD80A0024F6
:1011D000881E00240000002400000824EC0A0024DB
:1011E000B1040008900A0024F10400083813000834
:1011F00000ED00E00003FA05001000E055CEACC59C
:10120000FFFF800028000024900800244C130008F1
:10121000410400081D0400082013000821090008EB
:10122000C8140024D1080008080B00249106000807
:1012300084F31188EB6842F2107168460596CDE997
:101240000373FFF7A5FA0820FFF7F2FA009B684640
:101250000BB1FFF77DF986F31188E9E7830730B515
:1012600048D0541E002A3FD0CAB2034601E0013CD8
:101270003AD303F8012B9D07F9D1032C2DD9CDB218
:1012800045EA05250F2C45EA054536D9A4F110029B
:1012900022F00F0C03F1200EE6444FEA121C03F17A
:1012A000100242E9045542E9025510327245F8D164
:1012B0000CF1010214F00C0F03EB021204F00F0CFE
:1012C00013D0ACF1040323F003030433134442F8B6
:1012D000045B9342FBD10CF003042CB1CAB21C4452
:1012E00003F8012B9C42FBD130BD64461346002C11
:1012F000F4D1F9E703461446BFE71A46A446E0E7EF
:10130000666C696768745F6374726C0073656E7392
:101310006F725F72656164006E6F6E616D65000073
:1013200069646C65000000006330000056656374FA
:101330006F72423000000000281300080000000017
:101340000000000090080024900A00246D61696E7E
:10135000002C0438040448080C10141C20242526F2
:101360000000000000006404010004000000000010
:10137000000C001028303400F8130008881E0024E8
:10138000881E0024881E0024F81300080000003086
:101390000000003000000030F813000800000030AA
:1013A0000000003000000030F81300080000043096
:1013B0000000043000000430F8130008000000387A
:1013C0000000003800000038F8130008001000206A
:1013D0000010002000100020F8130008000000009A
:1013E0000000000000000000F81300080000803832
:0813F000000080380000803885
:04000005080003FDEF
:00000001FF
